{
  "contractName": "DEX",
  "abi": [
    {
      "constant": true,
      "inputs": [],
      "name": "minTransferConfirmations",
      "outputs": [
        {
          "name": "",
          "type": "uint256"
        }
      ],
      "payable": false,
      "stateMutability": "view",
      "type": "function",
      "signature": "0x1bc24158"
    },
    {
      "constant": true,
      "inputs": [
        {
          "name": "",
          "type": "uint256"
        }
      ],
      "name": "trades",
      "outputs": [
        {
          "name": "maker",
          "type": "address"
        },
        {
          "name": "taker",
          "type": "address"
        },
        {
          "name": "collateralValue",
          "type": "uint256"
        },
        {
          "name": "openBlock",
          "type": "uint256"
        },
        {
          "name": "closeBlock",
          "type": "uint256"
        }
      ],
      "payable": false,
      "stateMutability": "view",
      "type": "function",
      "signature": "0x1e6c598e"
    },
    {
      "constant": true,
      "inputs": [],
      "name": "tradingBlocks",
      "outputs": [
        {
          "name": "",
          "type": "uint256"
        }
      ],
      "payable": false,
      "stateMutability": "view",
      "type": "function",
      "signature": "0x537592bb"
    },
    {
      "constant": true,
      "inputs": [
        {
          "name": "",
          "type": "uint256"
        }
      ],
      "name": "oracles",
      "outputs": [
        {
          "name": "",
          "type": "address"
        }
      ],
      "payable": false,
      "stateMutability": "view",
      "type": "function",
      "signature": "0x5b69a7d8"
    },
    {
      "constant": true,
      "inputs": [
        {
          "name": "",
          "type": "uint256"
        },
        {
          "name": "",
          "type": "address"
        },
        {
          "name": "",
          "type": "uint256"
        }
      ],
      "name": "transferConfirmations",
      "outputs": [
        {
          "name": "",
          "type": "address"
        }
      ],
      "payable": false,
      "stateMutability": "view",
      "type": "function",
      "signature": "0x74eed848"
    },
    {
      "constant": true,
      "inputs": [
        {
          "name": "",
          "type": "uint256"
        },
        {
          "name": "",
          "type": "address"
        }
      ],
      "name": "valueToBuy",
      "outputs": [
        {
          "name": "",
          "type": "uint256"
        }
      ],
      "payable": false,
      "stateMutability": "view",
      "type": "function",
      "signature": "0x9e073ab9"
    },
    {
      "constant": true,
      "inputs": [
        {
          "name": "",
          "type": "uint256"
        },
        {
          "name": "",
          "type": "address"
        }
      ],
      "name": "extraData",
      "outputs": [
        {
          "name": "",
          "type": "bytes"
        }
      ],
      "payable": false,
      "stateMutability": "view",
      "type": "function",
      "signature": "0xa79902d0"
    },
    {
      "constant": true,
      "inputs": [],
      "name": "collateral",
      "outputs": [
        {
          "name": "",
          "type": "address"
        }
      ],
      "payable": false,
      "stateMutability": "view",
      "type": "function",
      "signature": "0xd8dfeb45"
    },
    {
      "constant": true,
      "inputs": [
        {
          "name": "",
          "type": "address"
        }
      ],
      "name": "isTradeOracle",
      "outputs": [
        {
          "name": "",
          "type": "bool"
        }
      ],
      "payable": false,
      "stateMutability": "view",
      "type": "function",
      "signature": "0xdc158a92"
    },
    {
      "constant": true,
      "inputs": [
        {
          "name": "",
          "type": "bytes32"
        }
      ],
      "name": "isHashConsumed",
      "outputs": [
        {
          "name": "",
          "type": "bool"
        }
      ],
      "payable": false,
      "stateMutability": "view",
      "type": "function",
      "signature": "0xfa3260de"
    },
    {
      "constant": true,
      "inputs": [
        {
          "name": "",
          "type": "uint256"
        },
        {
          "name": "",
          "type": "address"
        }
      ],
      "name": "valueToSell",
      "outputs": [
        {
          "name": "",
          "type": "uint256"
        }
      ],
      "payable": false,
      "stateMutability": "view",
      "type": "function",
      "signature": "0xfc078d87"
    },
    {
      "inputs": [
        {
          "name": "_collateral",
          "type": "address"
        },
        {
          "name": "_tradingBlocks",
          "type": "uint256"
        },
        {
          "name": "_minConfirmations",
          "type": "uint256"
        }
      ],
      "payable": false,
      "stateMutability": "nonpayable",
      "type": "constructor",
      "signature": "constructor"
    },
    {
      "anonymous": false,
      "inputs": [
        {
          "indexed": true,
          "name": "hash",
          "type": "bytes32"
        }
      ],
      "name": "HashConsumed",
      "type": "event",
      "signature": "0xff8bad61d8f2eaa50a98cc8d31de285608e5a904d330f193043d6c9854e2586d"
    },
    {
      "anonymous": false,
      "inputs": [
        {
          "indexed": true,
          "name": "id",
          "type": "uint256"
        }
      ],
      "name": "TradeOpened",
      "type": "event",
      "signature": "0x4d128b73dec2d69780103de3826e7ecc104faece313ac950c8541c616e2aef4b"
    },
    {
      "anonymous": false,
      "inputs": [
        {
          "indexed": true,
          "name": "id",
          "type": "uint256"
        }
      ],
      "name": "TradeClosed",
      "type": "event",
      "signature": "0xbe2b332e8e34afe0840746913f0e88f88fbbda69b3c05c49a197de3f55941277"
    },
    {
      "anonymous": false,
      "inputs": [
        {
          "indexed": true,
          "name": "id",
          "type": "uint256"
        },
        {
          "indexed": true,
          "name": "trader",
          "type": "address"
        },
        {
          "indexed": true,
          "name": "oracle",
          "type": "address"
        }
      ],
      "name": "TransferConfirmed",
      "type": "event",
      "signature": "0x01bf00be9142dc2b3af06c3941ff80c59f11dd54fa5110e9201ec4a76af23f61"
    },
    {
      "constant": false,
      "inputs": [
        {
          "name": "_oracles",
          "type": "address[]"
        }
      ],
      "name": "setOracles",
      "outputs": [],
      "payable": false,
      "stateMutability": "nonpayable",
      "type": "function",
      "signature": "0xae9b71af"
    },
    {
      "constant": false,
      "inputs": [
        {
          "name": "makerOrder",
          "type": "bytes"
        },
        {
          "name": "makerSignature",
          "type": "bytes"
        },
        {
          "name": "takerOrder",
          "type": "bytes"
        },
        {
          "name": "takerSignature",
          "type": "bytes"
        }
      ],
      "name": "openTrade",
      "outputs": [
        {
          "name": "tradeId",
          "type": "uint256"
        }
      ],
      "payable": false,
      "stateMutability": "nonpayable",
      "type": "function",
      "signature": "0x53f818df"
    },
    {
      "constant": false,
      "inputs": [
        {
          "name": "_tradeId",
          "type": "uint256"
        }
      ],
      "name": "closeTrade",
      "outputs": [
        {
          "name": "success",
          "type": "bool"
        }
      ],
      "payable": false,
      "stateMutability": "nonpayable",
      "type": "function",
      "signature": "0xa39cea84"
    },
    {
      "constant": false,
      "inputs": [
        {
          "name": "_tradeId",
          "type": "uint256"
        },
        {
          "name": "_trader",
          "type": "address"
        }
      ],
      "name": "confirmTransfer",
      "outputs": [
        {
          "name": "success",
          "type": "bool"
        }
      ],
      "payable": false,
      "stateMutability": "nonpayable",
      "type": "function",
      "signature": "0x6ab04436"
    }
  ],
  "bytecode": "0x608060405234801561001057600080fd5b5060405160608061150f8339810180604052606081101561003057600080fd5b508051602082015160409092015160048054600160a060020a031916600160a060020a0390931692909217909155600591909155600a55611499806100766000396000f3fe608060405234801561001057600080fd5b50600436106100f95760003560e060020a900480639e073ab91161009b578063d8dfeb451161006a578063d8dfeb45146104e1578063dc158a92146104e9578063fa3260de1461050f578063fc078d871461052c576100f9565b80639e073ab914610385578063a39cea84146103b1578063a79902d0146103ce578063ae9b71af1461046f576100f9565b806353f818df116100d757806353f818df146101745780635b69a7d8146102da5780636ab044361461031357806374eed84814610353576100f9565b80631bc24158146100fe5780631e6c598e14610118578063537592bb1461016c575b600080fd5b610106610558565b60408051918252519081900360200190f35b6101356004803603602081101561012e57600080fd5b503561055e565b60408051600160a060020a039687168152949095166020850152838501929092526060830152608082015290519081900360a00190f35b6101066105a9565b6101066004803603608081101561018a57600080fd5b8101906020810181356401000000008111156101a557600080fd5b8201836020820111156101b757600080fd5b803590602001918460018302840111640100000000831117156101d957600080fd5b9193909290916020810190356401000000008111156101f757600080fd5b82018360208201111561020957600080fd5b8035906020019184600183028401116401000000008311171561022b57600080fd5b91939092909160208101903564010000000081111561024957600080fd5b82018360208201111561025b57600080fd5b8035906020019184600183028401116401000000008311171561027d57600080fd5b91939092909160208101903564010000000081111561029b57600080fd5b8201836020820111156102ad57600080fd5b803590602001918460018302840111640100000000831117156102cf57600080fd5b5090925090506105af565b6102f7600480360360208110156102f057600080fd5b5035610993565b60408051600160a060020a039092168252519081900360200190f35b61033f6004803603604081101561032957600080fd5b5080359060200135600160a060020a03166109bb565b604080519115158252519081900360200190f35b6102f76004803603606081101561036957600080fd5b50803590600160a060020a036020820135169060400135610aef565b6101066004803603604081101561039b57600080fd5b5080359060200135600160a060020a0316610b33565b61033f600480360360208110156103c757600080fd5b5035610b50565b6103fa600480360360408110156103e457600080fd5b5080359060200135600160a060020a0316610cef565b6040805160208082528351818301528351919283929083019185019080838360005b8381101561043457818101518382015260200161041c565b50505050905090810190601f1680156104615780820380516001836020036101000a031916815260200191505b509250505060405180910390f35b6104df6004803603602081101561048557600080fd5b8101906020810181356401000000008111156104a057600080fd5b8201836020820111156104b257600080fd5b803590602001918460208302840111640100000000831117156104d457600080fd5b509092509050610d93565b005b6102f7610e08565b61033f600480360360208110156104ff57600080fd5b5035600160a060020a0316610e17565b61033f6004803603602081101561052557600080fd5b5035610e2c565b6101066004803603604081101561054257600080fd5b5080359060200135600160a060020a0316610e41565b600a5481565b600080548290811061056c57fe5b600091825260209091206005909102018054600182015460028301546003840154600490940154600160a060020a03938416955091909216929085565b60055481565b600080546105c082600183016112b6565b9050600080828154811015156105d257fe5b906000526020600020906005020190506106078a8a6040518083838082843760405192018290039091209350610e5e92505050565b5061067588888080601f0160208091040260200160405190810160405280939291908181526020018383808284376000920191909152505060405161066992508e91508d908083838082843760405192018290039091209350610ebe92505050565b9063ffffffff610f0f16565b815473ffffffffffffffffffffffffffffffffffffffff1916600160a060020a03919091161781556040516106c590879087908083838082843760405192018290039091209350610e5e92505050565b5061072784848080601f0160208091040260200160405190810160405280939291908181526020018383808284376000920191909152505060405161066992508a915089908083838082843760405192018290039091209350610ebe92505050565b60018201805473ffffffffffffffffffffffffffffffffffffffff1916600160a060020a039283161790554360038301558154604080516020601f8e018190048102820181019092528c815261079b93869316918e908e9081908401838280828437600092019190915250610fe792505050565b600282018190556000106107ae57600080fd5b6001810154604080516020601f89018190048102820181019092528781526107ff928592600160a060020a0390911691908a908a9081908401838280828437600092019190915250610fe792505050565b60028201541461080e57600080fd5b6000828152600260209081526040808320600180860154600160a060020a03908116865291845282852054878652908452828520865490921685529252909120541461085957600080fd5b600082815260016020818152604080842092850154600160a060020a0390811685529282528084205486855260028352818520865490941685529290915290912054146108a557600080fd5b60005b60085481101561095a5760088054829081106108c057fe5b9060005260206000200160009054906101000a9004600160a060020a0316600160a060020a0316635905df9d846040518263ffffffff1660e060020a02815260040180828152602001915050602060405180830381600087803b15801561092657600080fd5b505af115801561093a573d6000803e3d6000fd5b505050506040513d602081101561095057600080fd5b50506001016108a8565b5060405182907f4d128b73dec2d69780103de3826e7ecc104faece313ac950c8541c616e2aef4b90600090a25098975050505050505050565b60088054829081106109a157fe5b600091825260209091200154600160a060020a0316905081565b33600090815260096020526040812054839060ff1615156109db57600080fd5b836000818154811015156109eb57fe5b9060005260206000209060050201600401546000141515610a0b57600080fd5b6000858152600760209081526040808320600160a060020a03881684529091528120905b8154811015610a705781543390839083908110610a4857fe5b600091825260209091200154600160a060020a03161415610a6857600080fd5b600101610a2f565b50805460018101825560008281526020902001805473ffffffffffffffffffffffffffffffffffffffff191633179055600a54815410610ae3576040513390600160a060020a0387169088907f01bf00be9142dc2b3af06c3941ff80c59f11dd54fa5110e9201ec4a76af23f6190600090a45b50600195945050505050565b600760205282600052604060002060205281600052604060002081815481101515610b1657fe5b600091825260209091200154600160a060020a0316925083915050565b600260209081526000928352604080842090915290825290205481565b600080600083815481101515610b6257fe5b9060005260206000209060050201905060008160030154118015610b8857506004810154155b8015610bb7575043600554600085815481101515610ba257fe5b90600052602060002090600502016003015401105b1515610bc257600080fd5b60008381526007602090815260408083206001850154600160a060020a03168452909152812054600a54909190821015610c06578254600160a060020a0316610c15565b6001830154600160a060020a03165b6002840154600454919250610c3b91600160a060020a031690839063ffffffff61116b16565b60008581526007602090815260408083208654600160a060020a03168452909152812054600a54909190821015610c7f576001850154600160a060020a0316610c8b565b8454600160a060020a03165b6002860154600454919250610cb191600160a060020a031690839063ffffffff61116b16565b43600486015560405187907fbe2b332e8e34afe0840746913f0e88f88fbbda69b3c05c49a197de3f5594127790600090a25060019695505050505050565b60036020908152600092835260408084208252918352918190208054825160026001831615610100026000190190921691909104601f810185900485028201850190935282815292909190830182828015610d8b5780601f10610d6057610100808354040283529160200191610d8b565b820191906000526020600020905b815481529060010190602001808311610d6e57829003601f168201915b505050505081565b60085415610da057600080fd5b610dac600883836112e2565b5060005b81811015610e0357600160096000858585818110610dca57fe5b60209081029290920135600160a060020a0316835250810191909152604001600020805460ff1916911515919091179055600101610db0565b505050565b600454600160a060020a031681565b60096020526000908152604090205460ff1681565b60066020526000908152604090205460ff1681565b600160209081526000928352604080842090915290825290205481565b60008181526006602052604081205460ff1615610e7a57600080fd5b600082815260066020526040808220805460ff191660011790555183917fff8bad61d8f2eaa50a98cc8d31de285608e5a904d330f193043d6c9854e2586d91a25090565b604080517f19457468657265756d205369676e6564204d6573736167653a0a333200000000602080830191909152603c8083019490945282518083039094018452605c909101909152815191012090565b60008060008084516041141515610f2c5760009350505050610fe1565b50505060208201516040830151606084015160001a601b60ff82161015610f5157601b015b8060ff16601b14158015610f6957508060ff16601c14155b15610f7a5760009350505050610fe1565b6040805160008152602080820180845289905260ff8416828401526060820186905260808201859052915160019260a0808401939192601f1981019281900390910190855afa158015610fd1573d6000803e3d6000fd5b5050506020604051035193505050505b92915050565b6000606060008380602001905160a081101561100257600080fd5b81019080805164010000000081111561101a57600080fd5b8201602081018481111561102d57600080fd5b815164010000000081118282018710171561104757600080fd5b505092919060200180519060200190929190805190602001909291908051906020019092919080519060200190929190505050849450600260008c815260200190815260200160002060008b600160a060020a0316600160a060020a031681526020019081526020016000206000600160008e815260200190815260200160002060008d600160a060020a0316600160a060020a031681526020019081526020016000206000849950859b50869190505585919050558496505050505050438111151561111357600080fd5b60045461113190600160a060020a031686308663ffffffff61120516565b6000868152600360209081526040808320600160a060020a03891684528252909120835161116192850190611352565b5050509392505050565b82600160a060020a031663a9059cbb83836040518363ffffffff1660e060020a0281526004018083600160a060020a0316600160a060020a0316815260200182815260200192505050602060405180830381600087803b1580156111ce57600080fd5b505af11580156111e2573d6000803e3d6000fd5b505050506040513d60208110156111f857600080fd5b50511515610e0357600080fd5b604080517f23b872dd000000000000000000000000000000000000000000000000000000008152600160a060020a0385811660048301528481166024830152604482018490529151918616916323b872dd916064808201926020929091908290030181600087803b15801561127957600080fd5b505af115801561128d573d6000803e3d6000fd5b505050506040513d60208110156112a357600080fd5b505115156112b057600080fd5b50505050565b815481835581811115610e0357600502816005028360005260206000209182019101610e0391906113cc565b828054828255906000526020600020908101928215611342579160200282015b8281111561134257815473ffffffffffffffffffffffffffffffffffffffff1916600160a060020a03843516178255602090920191600190910190611302565b5061134e929150611422565b5090565b828054600181600116156101000203166002900490600052602060002090601f016020900481019282601f1061139357805160ff19168380011785556113c0565b828001600101855582156113c0579182015b828111156113c05782518255916020019190600101906113a5565b5061134e929150611453565b61141f91905b8082111561134e57805473ffffffffffffffffffffffffffffffffffffffff19908116825560018201805490911690556000600282018190556003820181905560048201556005016113d2565b90565b61141f91905b8082111561134e57805473ffffffffffffffffffffffffffffffffffffffff19168155600101611428565b61141f91905b8082111561134e576000815560010161145956fea165627a7a72305820cbca3af9457b19aca59515db5d80ce0f6f318af9c6edf0c2cfc97da9aa97be320029",
  "source": "/*\n    DEX core contract.\n*/\n\npragma solidity >= 0.5.0;\n\nimport 'openzeppelin-solidity/contracts/cryptography/ECDSA.sol';\nimport 'openzeppelin-solidity/contracts/token/ERC20/SafeERC20.sol';\n\nimport './AbstractDEX.sol';\nimport './SingletonHash.sol';\nimport './AbstractOracle.sol';\n\ncontract DEX is AbstractDEX, SingletonHash {\n    constructor(\n        ERC20   _collateral,\n        uint256 _tradingBlocks,\n        uint256 _minConfirmations\n    ) public {\n        collateral = _collateral;\n        tradingBlocks = _tradingBlocks;\n        minTransferConfirmations = _minConfirmations;\n    }\n\n    using SafeERC20 for ERC20;\n    using ECDSA for bytes32;\n\n    // TODO: restrict visibility\n    mapping(uint256 => mapping(address => address[])) public transferConfirmations;\n\n    // TODO: keep in mind that it could be user params\n    function setOracles(AbstractOracle[] calldata _oracles) external {\n        require(oracles.length == 0);\n        oracles = _oracles;\n        for (uint256 i = 0; i < _oracles.length; ++i)\n            isTradeOracle[address(_oracles[i])] = true;\n    }\n    AbstractOracle[] public oracles;\n    mapping(address => bool) public isTradeOracle;\n    uint256 public minTransferConfirmations;\n\n    modifier oraclesOnly(uint256 _tradeId) {\n        // Check that sender is trade oracle\n        require(isTradeOracle[msg.sender]);\n        _;\n    }\n\n    modifier openTradeOnly(uint256 _tradeId) {\n        // Check that trade isn't closed before\n        require(trades[_tradeId].closeBlock == 0);\n        _;\n    }\n\n    function openTrade(\n        bytes calldata makerOrder,\n        bytes calldata makerSignature,\n        bytes calldata takerOrder,\n        bytes calldata takerSignature\n    ) external returns (\n        uint256 tradeId\n    ) {\n        // Instantiate new trade\n        tradeId = trades.length++;\n        Trade storage trade = trades[tradeId];\n\n        // Recover trader addresses\n        singleton(keccak256(makerOrder));\n        trade.maker = keccak256(makerOrder)\n            .toEthSignedMessageHash()\n            .recover(makerSignature);\n\n        singleton(keccak256(takerOrder));\n        trade.taker = keccak256(takerOrder)\n            .toEthSignedMessageHash()\n            .recover(takerSignature);\n\n        // Open order at current block\n        trade.openBlock = block.number;\n\n        // Process orders\n        trade.collateralValue = processOrder(tradeId, trade.maker, makerOrder);\n        require(trade.collateralValue > 0);\n        require(trade.collateralValue == processOrder(tradeId, trade.taker, takerOrder));\n\n        // Order matching validation\n        require(valueToSell[tradeId][trade.maker] == valueToBuy[tradeId][trade.taker]);\n        require(valueToBuy[tradeId][trade.maker] == valueToSell[tradeId][trade.taker]);\n\n        // Notify oracles to start transfer checking\n        for (uint256 i = 0; i < oracles.length; ++i)\n            oracles[i].checkTrade(tradeId);\n\n        emit TradeOpened(tradeId);\n    }\n\n    function closeTrade(\n        uint256 _tradeId\n    ) external\n      returns (\n        bool success\n    ) {\n        Trade storage trade = trades[_tradeId];\n        // Checko that trade isn't closed\n        require(trade.openBlock > 0\n            && trade.closeBlock == 0\n            && trades[_tradeId].openBlock + tradingBlocks < block.number);\n\n        uint256 takerConfirmations = transferConfirmations[_tradeId][trade.taker].length;\n        address takerRefund = takerConfirmations >= minTransferConfirmations ? trade.taker : trade.maker;\n        collateral.safeTransfer(takerRefund, trade.collateralValue);\n\n        uint256 makerConfirmations = transferConfirmations[_tradeId][trade.maker].length;\n        address makerRefund = makerConfirmations >= minTransferConfirmations ? trade.maker : trade.taker;\n        collateral.safeTransfer(makerRefund, trade.collateralValue);\n\n        trade.closeBlock = block.number;\n        emit TradeClosed(_tradeId);\n        success = true;\n    }\n\n    function confirmTransfer(\n        uint256 _tradeId,\n        address _trader\n    ) external \n      oraclesOnly(_tradeId)\n      openTradeOnly(_tradeId)\n      returns (\n        bool success\n    ) {\n        address[] storage transfer_confirmations\n            = transferConfirmations[_tradeId][_trader];\n        for (uint256 i = 0; i < transfer_confirmations.length; ++i)\n            require(transfer_confirmations[i] != msg.sender);\n        transfer_confirmations.push(msg.sender);\n\n        if (transfer_confirmations.length >= minTransferConfirmations)\n            emit TransferConfirmed(_tradeId, _trader, msg.sender);\n\n        return true;\n    }\n\n    function processOrder(\n        uint256 _tradeId,\n        address _trader,\n        bytes memory _order\n    ) internal returns (\n        uint256 collateralValue\n    ) {\n        bytes memory extra;\n        uint256 deadline;\n\n        (extra,\n         valueToBuy[_tradeId][_trader],\n         valueToSell[_tradeId][_trader],\n         collateralValue,\n         deadline)\n            = abi.decode(_order, (bytes, uint256, uint256, uint256, uint256));\n\n        // Order deadline check\n        require(deadline > block.number);\n\n        // Collateral transfer\n        collateral.safeTransferFrom(_trader, address(this), collateralValue);\n\n        // Store trader extra data\n        extraData[_tradeId][_trader] = extra;\n    }\n}\n",
  "sourcePath": "/home/akru/devel/cdex/contracts/DEX.sol",
  "compiler": {
    "name": "solc",
    "version": "0.5.3+commit.10d17f24.Emscripten.clang"
  },
  "schemaVersion": "3.0.1",
  "updatedAt": "2019-02-11T22:40:09.624Z",
  "devdoc": {
    "methods": {}
  },
  "userdoc": {
    "methods": {}
  }
}