{
  "contractName": "Exchange",
  "abi": [
    {
      "constant": true,
      "inputs": [
        {
          "name": "",
          "type": "bytes32"
        }
      ],
      "name": "isHashConsumed",
      "outputs": [
        {
          "name": "",
          "type": "bool"
        }
      ],
      "payable": false,
      "stateMutability": "view",
      "type": "function"
    },
    {
      "constant": true,
      "inputs": [],
      "name": "token",
      "outputs": [
        {
          "name": "",
          "type": "address"
        }
      ],
      "payable": false,
      "stateMutability": "view",
      "type": "function"
    },
    {
      "inputs": [
        {
          "name": "_collateral",
          "type": "address"
        }
      ],
      "payable": false,
      "stateMutability": "nonpayable",
      "type": "constructor"
    },
    {
      "anonymous": false,
      "inputs": [
        {
          "indexed": true,
          "name": "hash",
          "type": "bytes32"
        }
      ],
      "name": "HashConsumed",
      "type": "event"
    },
    {
      "anonymous": false,
      "inputs": [
        {
          "indexed": true,
          "name": "id",
          "type": "bytes32"
        }
      ],
      "name": "NewMarket",
      "type": "event"
    },
    {
      "anonymous": false,
      "inputs": [
        {
          "indexed": true,
          "name": "id",
          "type": "uint256"
        }
      ],
      "name": "TradeStart",
      "type": "event"
    },
    {
      "anonymous": false,
      "inputs": [
        {
          "indexed": true,
          "name": "id",
          "type": "uint256"
        }
      ],
      "name": "TradePartial",
      "type": "event"
    },
    {
      "anonymous": false,
      "inputs": [
        {
          "indexed": true,
          "name": "id",
          "type": "uint256"
        }
      ],
      "name": "TradeFinish",
      "type": "event"
    },
    {
      "anonymous": false,
      "inputs": [
        {
          "indexed": true,
          "name": "id",
          "type": "uint256"
        },
        {
          "indexed": true,
          "name": "oracle",
          "type": "address"
        }
      ],
      "name": "TakerTransferConfirmation",
      "type": "event"
    },
    {
      "anonymous": false,
      "inputs": [
        {
          "indexed": true,
          "name": "id",
          "type": "uint256"
        }
      ],
      "name": "TakerTransferConfirmed",
      "type": "event"
    },
    {
      "anonymous": false,
      "inputs": [
        {
          "indexed": true,
          "name": "id",
          "type": "uint256"
        },
        {
          "indexed": true,
          "name": "oracle",
          "type": "address"
        }
      ],
      "name": "MakerTransferConfirmation",
      "type": "event"
    },
    {
      "anonymous": false,
      "inputs": [
        {
          "indexed": true,
          "name": "id",
          "type": "uint256"
        }
      ],
      "name": "MakerTransferConfirmed",
      "type": "event"
    },
    {
      "constant": true,
      "inputs": [
        {
          "name": "_id",
          "type": "uint256"
        }
      ],
      "name": "getTrade",
      "outputs": [
        {
          "name": "market",
          "type": "bytes32"
        },
        {
          "name": "deal",
          "type": "bytes32"
        },
        {
          "name": "maker",
          "type": "address"
        },
        {
          "name": "taker",
          "type": "address"
        },
        {
          "name": "collateral",
          "type": "uint256"
        },
        {
          "name": "makerTransferConfirmations",
          "type": "uint256"
        },
        {
          "name": "takerTransferConfirmations",
          "type": "uint256"
        },
        {
          "name": "startBlock",
          "type": "uint256"
        },
        {
          "name": "partialBlock",
          "type": "uint256"
        },
        {
          "name": "finishBlock",
          "type": "uint256"
        },
        {
          "name": "makerExtra",
          "type": "bytes"
        },
        {
          "name": "takerExtra",
          "type": "bytes"
        }
      ],
      "payable": false,
      "stateMutability": "view",
      "type": "function"
    },
    {
      "constant": true,
      "inputs": [
        {
          "name": "_id",
          "type": "bytes32"
        }
      ],
      "name": "getMarket",
      "outputs": [
        {
          "name": "makerTimeout",
          "type": "uint256"
        },
        {
          "name": "takerTimeout",
          "type": "uint256"
        },
        {
          "name": "oracles",
          "type": "address[]"
        },
        {
          "name": "minimalConfirmations",
          "type": "uint256"
        }
      ],
      "payable": false,
      "stateMutability": "view",
      "type": "function"
    },
    {
      "constant": false,
      "inputs": [
        {
          "name": "_makerTimeout",
          "type": "uint256"
        },
        {
          "name": "_takerTimeout",
          "type": "uint256"
        },
        {
          "name": "_oracles",
          "type": "address[]"
        },
        {
          "name": "_minimalConfirmations",
          "type": "uint256"
        }
      ],
      "name": "addMarket",
      "outputs": [
        {
          "name": "id",
          "type": "bytes32"
        }
      ],
      "payable": false,
      "stateMutability": "nonpayable",
      "type": "function"
    },
    {
      "constant": false,
      "inputs": [
        {
          "name": "_makerOrder",
          "type": "bytes"
        },
        {
          "name": "_makerSignature",
          "type": "bytes"
        },
        {
          "name": "_takerOrder",
          "type": "bytes"
        },
        {
          "name": "_takerSignature",
          "type": "bytes"
        }
      ],
      "name": "startTrade",
      "outputs": [
        {
          "name": "id",
          "type": "uint256"
        }
      ],
      "payable": false,
      "stateMutability": "nonpayable",
      "type": "function"
    },
    {
      "constant": false,
      "inputs": [
        {
          "name": "_id",
          "type": "uint256"
        }
      ],
      "name": "confirmTakerTransfer",
      "outputs": [
        {
          "name": "success",
          "type": "bool"
        }
      ],
      "payable": false,
      "stateMutability": "nonpayable",
      "type": "function"
    },
    {
      "constant": false,
      "inputs": [
        {
          "name": "_id",
          "type": "uint256"
        }
      ],
      "name": "confirmMakerTransfer",
      "outputs": [
        {
          "name": "success",
          "type": "bool"
        }
      ],
      "payable": false,
      "stateMutability": "nonpayable",
      "type": "function"
    },
    {
      "constant": false,
      "inputs": [
        {
          "name": "_id",
          "type": "uint256"
        }
      ],
      "name": "finishTrade",
      "outputs": [
        {
          "name": "success",
          "type": "bool"
        }
      ],
      "payable": false,
      "stateMutability": "nonpayable",
      "type": "function"
    }
  ],
  "bytecode": "0x608060405234801561001057600080fd5b506040516020806124928339810180604052602081101561003057600080fd5b505160018054600160a060020a031916600160a060020a03909216919091179055612432806100606000396000f3fe608060405234801561001057600080fd5b50600436106100b0576000357c010000000000000000000000000000000000000000000000000000000090048063b29531a811610083578063b29531a8146102f6578063c3c95c7b14610313578063d35d763014610399578063fa3260de146104ff578063fc0c546a1461051c576100b0565b806305564c57146100b557806318671b0d146101435780632db25e0514610174578063a9dd4631146102d9575b600080fd5b610131600480360360808110156100cb57600080fd5b8135916020810135918101906060810160408201356401000000008111156100f257600080fd5b82018360208201111561010457600080fd5b8035906020019184602083028401116401000000008311171561012657600080fd5b919350915035610540565b60408051918252519081900360200190f35b6101606004803603602081101561015957600080fd5b5035610622565b604080519115158252519081900360200190f35b6101916004803603602081101561018a57600080fd5b5035610af7565b604051808d81526020018c81526020018b600160a060020a0316600160a060020a031681526020018a600160a060020a0316600160a060020a031681526020018981526020018881526020018781526020018681526020018581526020018481526020018060200180602001838103835285818151815260200191508051906020019080838360005b8381101561023257818101518382015260200161021a565b50505050905090810190601f16801561025f5780820380516001836020036101000a031916815260200191505b50838103825284518152845160209182019186019080838360005b8381101561029257818101518382015260200161027a565b50505050905090810190601f1680156102bf5780820380516001836020036101000a031916815260200191505b509e50505050505050505050505050505060405180910390f35b610160600480360360208110156102ef57600080fd5b5035610cd7565b6101606004803603602081101561030c57600080fd5b5035610f81565b6103306004803603602081101561032957600080fd5b50356113be565b6040518085815260200184815260200180602001838152602001828103825284818151815260200191508051906020019060200280838360005b8381101561038257818101518382015260200161036a565b505050509050019550505050505060405180910390f35b610131600480360360808110156103af57600080fd5b8101906020810181356401000000008111156103ca57600080fd5b8201836020820111156103dc57600080fd5b803590602001918460018302840111640100000000831117156103fe57600080fd5b91939092909160208101903564010000000081111561041c57600080fd5b82018360208201111561042e57600080fd5b8035906020019184600183028401116401000000008311171561045057600080fd5b91939092909160208101903564010000000081111561046e57600080fd5b82018360208201111561048057600080fd5b803590602001918460018302840111640100000000831117156104a257600080fd5b9193909290916020810190356401000000008111156104c057600080fd5b8201836020820111156104d257600080fd5b803590602001918460018302840111640100000000831117156104f457600080fd5b509092509050611476565b6101606004803603602081101561051557600080fd5b50356117da565b6105246117ef565b60408051600160a060020a039092168252519081900360200190f35b600085858585856040516020018086815260200185815260200184846020028082843791909101928352505060408051808303815260209283018252805190830120600081815260039093529082208c8155600181018c9055600481018990559096509450925050505b848110156105ec576105e38686838181106105c157fe5b90506020020135600160a060020a0316836002016117fe90919063ffffffff16565b506001016105aa565b5060405182907fadb0b642cc3d1212056d46e8f97582d0bfdca873afee107060c312996830ceb190600090a25095945050505050565b60008161066d336003600060028581548110151561063c57fe5b90600052602060002090600f020160000154815260200190815260200160002060020161188790919063ffffffff16565b606060405190810160405280602481526020016123c0602491399015156107155760405160e560020a62461bcd0281526004018080602001828103825283818151815260200191508051906020019080838360005b838110156106da5781810151838201526020016106c2565b50505050905090810190601f1680156107075780820380516001836020036101000a031916815260200191505b509250505060405180910390fd5b5082600060028281548110151561072857fe5b90600052602060002090600f0201905080600a0154600014156040805190810160405280601381526020017f547261646520646f65736e2774206578697374000000000000000000000000008152509015156107c95760405160e560020a62461bcd028152600401808060200182810382528381815181526020019150805190602001908083836000838110156106da5781810151838201526020016106c2565b50600c81015460408051808201909152601481527f547261646520616c72656164792066696e697368000000000000000000000000602082015290156108545760405160e560020a62461bcd028152600401808060200182810382528381815181526020019150805190602001908083836000838110156106da5781810151838201526020016106c2565b506000600982015460ff16600481111561086a57fe5b14801561089057508054600090815260036020526040902060010154600a820154439101105b1561089e5761089e826118a6565b6001600982015460ff1660048111156108b357fe5b1480156108d657508054600090815260036020526040902054600b820154439101105b156108e4576108e48261191f565b8460018060028054849081106108f657fe5b600091825260209091206009600f90920201015460ff16600481111561091857fe5b1460606040519081016040528060228152602001612359602291399015156109855760405160e560020a62461bcd028152600401808060200182810382528381815181526020019150805190602001908083836000838110156106da5781810151838201526020016106c2565b50600060028881548110151561099757fe5b90600052602060002090600f020190506109bd33826005016117fe90919063ffffffff16565b6060604051908101604052806023815260200161237b60239139901515610a295760405160e560020a62461bcd028152600401808060200182810382528381815181526020019150805190602001908083836000838110156106da5781810151838201526020016106c2565b50604051339089907f32ca8f737abc610300808e342bb2e650f1d1cb7a8154d1a07dc02abd5c768b9e90600090a38054600090815260036020526040902060040154610a776005830161195f565b10610abd5743600b82015560098101805460ff1916600217905560405188907f3d2d158c34b8257ce6aafd794d6e530674d8799a530e8b6e69b88aa77368f58290600090a25b506001955060029150610acd9050565b600982015460ff166004811115610ae057fe5b1415610aef57610aef826118a6565b505050919050565b600080600080600080600080600080606080600060028e815481101515610b1a57fe5b90600052602060002090600f0201905080600001549c5080600101549b508060020160009054906101000a9004600160a060020a03169a508060030160009054906101000a9004600160a060020a0316995080600401549850610b7f8160050161195f565b9750610b8d8160070161195f565b600a820154600b830154600c840154600d85018054604080516020601f60026000196101006001881615020190951694909404938401819004810282018101909252828152969d50949b5092995090975091830182828015610c305780601f10610c0557610100808354040283529160200191610c30565b820191906000526020600020905b815481529060010190602001808311610c1357829003601f168201915b50505050600e8301805460408051602060026001851615610100026000190190941693909304601f8101849004840282018401909252818152949750919250830182828015610cc05780601f10610c9557610100808354040283529160200191610cc0565b820191906000526020600020905b815481529060010190602001808311610ca357829003601f168201915b505050505091505091939597999b5091939597999b565b6000816000600282815481101515610ceb57fe5b90600052602060002090600f0201905080600a0154600014156040805190810160405280601381526020017f547261646520646f65736e277420657869737400000000000000000000000000815250901515610d8c5760405160e560020a62461bcd028152600401808060200182810382528381815181526020019150805190602001908083836000838110156106da5781810151838201526020016106c2565b50600c81015460408051808201909152601481527f547261646520616c72656164792066696e69736800000000000000000000000060208201529015610e175760405160e560020a62461bcd028152600401808060200182810382528381815181526020019150805190602001908083836000838110156106da5781810151838201526020016106c2565b506000600982015460ff166004811115610e2d57fe5b148015610e5357508054600090815260036020526040902060010154600a820154439101105b15610e6157610e61826118a6565b6001600982015460ff166004811115610e7657fe5b148015610e9957508054600090815260036020526040902054600b820154439101105b15610ea757610ea78261191f565b836004806002805484908110610eb957fe5b600091825260209091206009600f90920201015460ff166004811115610edb57fe5b146060604051908101604052806022815260200161235960229139901515610f485760405160e560020a62461bcd028152600401808060200182810382528381815181526020019150805190602001908083836000838110156106da5781810151838201526020016106c2565b506001945060029150610f589050565b600982015460ff166004811115610f6b57fe5b1415610f7a57610f7a826118a6565b5050919050565b600081610f9b336003600060028581548110151561063c57fe5b606060405190810160405280602481526020016123c0602491399015156110075760405160e560020a62461bcd028152600401808060200182810382528381815181526020019150805190602001908083836000838110156106da5781810151838201526020016106c2565b5082600060028281548110151561101a57fe5b90600052602060002090600f0201905080600a0154600014156040805190810160405280601381526020017f547261646520646f65736e2774206578697374000000000000000000000000008152509015156110bb5760405160e560020a62461bcd028152600401808060200182810382528381815181526020019150805190602001908083836000838110156106da5781810151838201526020016106c2565b50600c81015460408051808201909152601481527f547261646520616c72656164792066696e697368000000000000000000000000602082015290156111465760405160e560020a62461bcd028152600401808060200182810382528381815181526020019150805190602001908083836000838110156106da5781810151838201526020016106c2565b506000600982015460ff16600481111561115c57fe5b14801561118257508054600090815260036020526040902060010154600a820154439101105b1561119057611190826118a6565b6001600982015460ff1660048111156111a557fe5b1480156111c857508054600090815260036020526040902054600b820154439101105b156111d6576111d68261191f565b8460008060028054849081106111e857fe5b600091825260209091206009600f90920201015460ff16600481111561120a57fe5b1460606040519081016040528060228152602001612359602291399015156112775760405160e560020a62461bcd028152600401808060200182810382528381815181526020019150805190602001908083836000838110156106da5781810151838201526020016106c2565b50600060028881548110151561128957fe5b90600052602060002090600f020190506112af33826007016117fe90919063ffffffff16565b6060604051908101604052806023815260200161237b6023913990151561131b5760405160e560020a62461bcd028152600401808060200182810382528381815181526020019150805190602001908083836000838110156106da5781810151838201526020016106c2565b50604051339089907f0d291e954d312d910375b4fe87ee3727a2ff8f40086d3cf02aea7caeb813b2ac90600090a380546000908152600360205260409020600401546113696007830161195f565b10610abd5743600b82015560098101805460ff1916600117905560405188907f4068f884306033ded5e133201660034656370d5cf3e4d672f3ec90b1af00983f90600090a2506001955060029150610acd9050565b6000818152600360205260409020805460018201546004830154919290916060916113eb6002820161195f565b604051908082528060200260200182016040528015611414578160200160208202803883390190505b50925060005b6114268260020161195f565b81101561146d57611440600283018263ffffffff61196616565b848281518110151561144e57fe5b600160a060020a0390921660209283029091019091015260010161141a565b50509193509193565b6002805460009161148a9060018301612170565b9050600060028281548110151561149d57fe5b90600052602060002090600f0201905060008a8a60405180838380828437604051920182900390912094506114d893508492506119a5915050565b5061152a89898080601f01602080910402602001604051908101604052809392919081815260200183838082843760009201919091525061151e9250859150611a059050565b9063ffffffff611a5616565b8260020160006101000a815481600160a060020a030219169083600160a060020a0316021790555060008787604051808383808284376040519201829003909120945061157d93508492506119a5915050565b506115c386868080601f01602080910402602001604051908101604052809392919081815260200183838082843760009201919091525061151e9250859150611a059050565b60038401805473ffffffffffffffffffffffffffffffffffffffff1916600160a060020a039290921691909117905543600a84015560098301805460ff19169055604080516020601f8e018190048102820181019092528c8152611644918691908f908f9081908401838280828437600092019190915250611b4592505050565b151561164f57600080fd5b61168f8489898080601f016020809104026020016040519081016040528093929190818152602001838380828437600092019190915250611ccd92505050565b151561169a57600080fd5b82546000908152600360205260408120600201906116b78261195f565b116116c157600080fd5b60005b6116cd8261195f565b81101561179e576116e4828263ffffffff61196616565b600160a060020a03166381145d5c30886040518363ffffffff167c01000000000000000000000000000000000000000000000000000000000281526004018083600160a060020a0316600160a060020a0316815260200182815260200192505050602060405180830381600087803b15801561175f57600080fd5b505af1158015611773573d6000803e3d6000fd5b505050506040513d602081101561178957600080fd5b5051151561179657600080fd5b6001016116c4565b5060405185907fbdff1082bcfe6f84faf7e9593444477bf93482b5f6e23a524d27c3f7a69d9d9690600090a25050505098975050505050505050565b60006020819052908152604090205460ff1681565b600154600160a060020a031681565b600160a060020a03811660009081526020839052604081205460ff16151561187d5750600160a060020a0381166000818152602084815260408220805460ff19166001908117909155858101805480830182559084529190922001805473ffffffffffffffffffffffffffffffffffffffff1916909217909155611881565b5060005b92915050565b600160a060020a03166000908152602091909152604090205460ff1690565b6119136002828154811015156118b857fe5b600091825260209091206002600f909202018101548154600160a060020a039091169190849081106118e657fe5b600091825260209091206004600f909202010154600154600160a060020a0316919063ffffffff611ec616565b61191c81611f4b565b50565b61191360028281548110151561193157fe5b600091825260209091206003600f90920201015460028054600160a060020a0390921691849081106118e657fe5b6001015490565b6001820154600090821061197957600080fd5b6001830180548390811061198957fe5b600091825260209091200154600160a060020a03169392505050565b60008181526020819052604081205460ff16156119c157600080fd5b600082815260208190526040808220805460ff191660011790555183917fff8bad61d8f2eaa50a98cc8d31de285608e5a904d330f193043d6c9854e2586d91a25090565b604080517f19457468657265756d205369676e6564204d6573736167653a0a333200000000602080830191909152603c8083019490945282518083039094018452605c909101909152815191012090565b8051600090604114611a6a57506000611881565b60208201516040830151606084015160001a7f7fffffffffffffffffffffffffffffff5d576e7357a4501ddfe92f46681b20a0821115611ab05760009350505050611881565b8060ff16601b14158015611ac857508060ff16601c14155b15611ad95760009350505050611881565b6040805160008152602080820180845289905260ff8416828401526060820186905260808201859052915160019260a0808401939192601f1981019281900390910190855afa158015611b30573d6000803e3d6000fd5b5050604051601f190151979650505050505050565b6000806000600285815481101515611b5957fe5b90600052602060002090600f020190508380602001905160a0811015611b7e57600080fd5b815160208301516040840151606085015160808601805194969395929491939283019291640100000000811115611bb457600080fd5b82016020810184811115611bc757600080fd5b8151640100000000811182820187101715611be157600080fd5b50508051909350889250600091506001830190829060048501908290611c1090600d88019060208a019061219c565b50509690965595909555949094556040805160608101909152602280825291965043871194509250905061239e6020830139901515611c945760405160e560020a62461bcd028152600401808060200182810382528381815181526020019150805190602001908083836000838110156106da5781810151838201526020016106c2565b5060028101546004820154600154611cc292600160a060020a0391821692911690309063ffffffff611fdb16565b506001949350505050565b600080600080848060200190516080811015611ce857600080fd5b8151602083015160408401516060850180519395929491939183019291640100000000811115611d1757600080fd5b82016020810184811115611d2a57600080fd5b8151640100000000811182820187101715611d4457600080fd5b50506002805491945092508c91508110611d5a57fe5b90600052602060002090600f0201600e016000829190509080519060200190611d8492919061219c565b505060408051606081019091526022808252919650929450909250438511919061239e6020830139901515611dfe5760405160e560020a62461bcd028152600401808060200182810382528381815181526020019150805190602001908083836000838110156106da5781810151838201526020016106c2565b5081600287815481101515611e0f57fe5b90600052602060002090600f020160000154148015611e4d575080600287815481101515611e3957fe5b90600052602060002090600f020160010154145b606060405190810160405280602381526020016123e460239139901515611eb95760405160e560020a62461bcd028152600401808060200182810382528381815181526020019150805190602001908083836000838110156106da5781810151838201526020016106c2565b5060019695505050505050565b60408051600160a060020a038416602482015260448082018490528251808303909101815260649091019091526020810180517bffffffffffffffffffffffffffffffffffffffffffffffffffffffff167fa9059cbb00000000000000000000000000000000000000000000000000000000179052611f46908490612069565b505050565b43600282815481101515611f5b57fe5b90600052602060002090600f0201600c01819055506004600282815481101515611f8157fe5b600091825260209091206009600f9092020101805460ff19166001836004811115611fa857fe5b021790555060405181907fa8816d60783926d64c61f723a3cf7753f733302a70b3cd3d0a845fae7c8dd7ef90600090a250565b60408051600160a060020a0385811660248301528416604482015260648082018490528251808303909101815260849091019091526020810180517bffffffffffffffffffffffffffffffffffffffffffffffffffffffff167f23b872dd00000000000000000000000000000000000000000000000000000000179052612063908590612069565b50505050565b61207b82600160a060020a0316612168565b151561208657600080fd5b6000606083600160a060020a0316836040518082805190602001908083835b602083106120c45780518252601f1990920191602091820191016120a5565b6001836020036101000a0380198251168184511680821785525050505050509050019150506000604051808303816000865af19150503d8060008114612126576040519150601f19603f3d011682016040523d82523d6000602084013e61212b565b606091505b509150915081151561213c57600080fd5b6000815111156120635780806020019051602081101561215b57600080fd5b5051151561206357600080fd5b6000903b1190565b815481835581811115611f4657600f0281600f028360005260206000209182019101611f46919061221a565b828054600181600116156101000203166002900490600052602060002090601f016020900481019282601f106121dd57805160ff191683800117855561220a565b8280016001018555821561220a579182015b8281111561220a5782518255916020019190600101906121ef565b506122169291506122dc565b5090565b6122d991905b808211156122165760008082556001820181905560028201805473ffffffffffffffffffffffffffffffffffffffff19908116909155600383018054909116905560048201819055600582018161227a60068501826122f6565b505060078201600061228f60088501826122f6565b505060098201805460ff191690556000600a8301819055600b8301819055600c83018190556122c290600d840190612314565b6122d0600e83016000612314565b50600f01612220565b90565b6122d991905b8082111561221657600081556001016122e2565b508054600082559060005260206000209081019061191c91906122dc565b50805460018160011615610100020316600290046000825580601f1061233a575061191c565b601f01602090049060005260206000209081019061191c91906122dc56fe43616c6c206d6574686f6420696e20696e76616c69642074726164652073746174654f7261636c652063616e20766f746520666f72207472616465206f6e6c79206f6e63654f72646572206d65737361676520646561646c696e6520776173207265616368656454686973206d6574686f6420697320666f72207472616465206f7261636c65206f6e6c794f72646572206d65737361676573206d69736d61746368656420627920706172616d73a165627a7a72305820660e3263b36b40968f117c3044ad2bf90e7029153c067312e7cd6c328b2692ff0029",
  "source": "/**\n * @title Exchange smart contract.\n */\n\npragma solidity >= 0.5.0;\n\nimport 'openzeppelin-solidity/contracts/cryptography/ECDSA.sol';\nimport 'openzeppelin-solidity/contracts/token/ERC20/ERC20.sol';\nimport 'openzeppelin-solidity/contracts/token/ERC20/SafeERC20.sol';\n\nimport './interface/IExchange.sol';\nimport './interface/IOracle.sol';\nimport './misc/SingletonHash.sol';\nimport './misc/Set.sol';\n\ncontract Exchange is IExchange, SingletonHash {\n    constructor(ERC20 _collateral) public {\n        token = _collateral;\n    }\n\n    string constant private ERROR_TRADE_DOESNT_EXIT = \"Trade doesn't exist\";\n    string constant private ERROR_TRADE_ALREADY_FINISH = \"Trade already finish\";\n    string constant private ERROR_ORACLE_ONLY = \"This method is for trade oracle only\";\n    string constant private ERROR_INVALID_STATE = \"Call method in invalid trade state\";\n    string constant private ERROR_DOUBLE_VOTE = \"Oracle can vote for trade only once\"; \n    string constant private ERROR_DEADLINE_REACHED = \"Order message deadline was reached\";\n    string constant private ERROR_ORDER_MISMATCHED = \"Order messages mismatched by params\";\n\n    using SafeERC20 for ERC20;\n    using ECDSA for bytes32;\n    using Set for Set.Address;\n\n    ERC20 public token;\n    Trade[] private trades;\n    mapping(bytes32 => Market) private markets;\n\n    modifier oracleOnly(uint256 _id) {\n        require(markets[trades[_id].market].oracles.contains(msg.sender), ERROR_ORACLE_ONLY);\n        _;\n    }\n\n    modifier stateOnly(uint256 _id, TradeState _state) {\n        require(trades[_id].state == _state, ERROR_INVALID_STATE);\n        _;\n    }\n\n    modifier timedTransaction(uint256 _id) {\n        Trade storage trade = trades[_id];\n\n        // Start/finish checks\n        require(trade.startBlock != 0, ERROR_TRADE_DOESNT_EXIT);\n        require(trade.finishBlock == 0, ERROR_TRADE_ALREADY_FINISH);\n\n        // Check for taker timeout\n        if (trade.state == TradeState.Start\n            && trade.startBlock + markets[trade.market].takerTimeout < block.number)\n            _release(_id);\n\n        // Check for maker timeout\n        if (trade.state == TradeState.Partial\n            && trade.partialBlock + markets[trade.market].makerTimeout < block.number)\n                _penalty(_id);\n\n        _;\n\n        // Make release when needed\n        if (trade.state == TradeState.Release)\n            _release(_id);\n    }\n\n    function getTrade(\n        uint256 _id\n    ) external view returns (\n        bytes32 market,\n        bytes32 deal,\n        address maker,\n        address taker,\n        uint256 collateral,\n        uint256 makerTransferConfirmations,\n        uint256 takerTransferConfirmations,\n        uint256 startBlock,\n        uint256 partialBlock,\n        uint256 finishBlock,\n        bytes memory makerExtra,\n        bytes memory takerExtra\n    ) {\n        Trade storage trade = trades[_id];\n        market = trade.market;\n        deal = trade.deal;\n        maker = trade.maker;\n        taker = trade.taker;\n        collateral = trade.collateral;\n        makerTransferConfirmations = trade.makerTransferConfirmations.size();\n        takerTransferConfirmations = trade.takerTransferConfirmations.size();\n        startBlock = trade.startBlock;\n        partialBlock = trade.partialBlock;\n        finishBlock = trade.finishBlock;\n        makerExtra = trade.makerExtra;\n        takerExtra = trade.takerExtra;\n    }\n\n    function getMarket(\n        bytes32 _id\n    ) external view returns (\n        uint256 makerTimeout,\n        uint256 takerTimeout,\n        address[] memory oracles,\n        uint256 minimalConfirmations\n    ) {\n        Market storage market = markets[_id];\n\n        makerTimeout = market.makerTimeout;\n        takerTimeout = market.takerTimeout;\n        minimalConfirmations = market.minimalConfirmations;\n\n        oracles = new address[](market.oracles.size());\n        for (uint256 i = 0; i < market.oracles.size(); ++i)\n            oracles[i] = market.oracles.at(i);\n    }\n\n    function addMarket(\n        uint256 _makerTimeout,\n        uint256 _takerTimeout,\n        address[] calldata _oracles,\n        uint256 _minimalConfirmations\n    ) external returns (\n        bytes32 id \n    ) {\n        id = keccak256(abi.encodePacked(\n            _makerTimeout,\n            _takerTimeout,\n            _oracles,\n            _minimalConfirmations\n        ));\n\n        Market storage market = markets[id];\n        market.makerTimeout = _makerTimeout;\n        market.takerTimeout = _takerTimeout;\n        market.minimalConfirmations = _minimalConfirmations;\n\n        for (uint256 i = 0; i < _oracles.length; ++i)\n            market.oracles.insert(_oracles[i]);\n\n        emit NewMarket(id);\n    }\n\n    function startTrade(\n        bytes calldata _makerOrder,\n        bytes calldata _makerSignature,\n        bytes calldata _takerOrder,\n        bytes calldata _takerSignature\n    ) external returns (\n        uint256 id\n    ) {\n        // Start new trade\n        id = trades.length++;\n        Trade storage trade = trades[id];\n\n        // Recover trader addresses\n        bytes32 makerOrderHash = keccak256(_makerOrder);\n        singleton(makerOrderHash);\n        trade.maker = makerOrderHash\n            .toEthSignedMessageHash()\n            .recover(_makerSignature);\n\n        bytes32 takerOrderHash = keccak256(_takerOrder);\n        singleton(takerOrderHash);\n        trade.taker = takerOrderHash\n            .toEthSignedMessageHash()\n            .recover(_takerSignature);\n\n        // Open order at current block\n        trade.startBlock = block.number;\n        trade.state = TradeState.Start;\n\n        // Process orders\n        require(processMakerOrder(id, _makerOrder));\n        require(processTakerOrder(id, _takerOrder));\n\n        // Notify oracles to start transfer checking\n        Set.Address storage oracles = markets[trade.market].oracles;\n        require(oracles.size() > 0);\n        for (uint256 i = 0; i < oracles.size(); ++i)\n            require(IOracle(oracles.at(i)).checkTrade(address(this), id));\n\n        emit TradeStart(id);\n    }\n\n    function confirmTakerTransfer(\n        uint256 _id\n    ) external\n      oracleOnly(_id)\n      timedTransaction(_id)\n      stateOnly(_id, TradeState.Start)\n      returns (\n        bool success\n    ) {\n        Trade storage trade = trades[_id];\n        require(trade.takerTransferConfirmations.insert(msg.sender), ERROR_DOUBLE_VOTE);\n        emit TakerTransferConfirmation(_id, msg.sender);\n\n        if (trade.takerTransferConfirmations.size() >= markets[trade.market].minimalConfirmations) {\n            trade.partialBlock = block.number;\n            trade.state = TradeState.Partial;\n            emit TakerTransferConfirmed(_id);\n        }\n\n        success = true;\n    }\n\n    function confirmMakerTransfer(\n        uint256 _id\n    ) external\n      oracleOnly(_id)\n      timedTransaction(_id)\n      stateOnly(_id, TradeState.Partial)\n      returns (\n        bool success\n    ) {\n        Trade storage trade = trades[_id];\n        require(trade.makerTransferConfirmations.insert(msg.sender), ERROR_DOUBLE_VOTE);\n        emit MakerTransferConfirmation(_id, msg.sender);\n\n        if (trade.makerTransferConfirmations.size() >= markets[trade.market].minimalConfirmations) {\n            trade.partialBlock = block.number;\n            trade.state = TradeState.Release;\n            emit MakerTransferConfirmed(_id);\n        }\n\n        success = true;\n    }\n\n    function finishTrade(\n        uint256 _id\n    ) external\n      timedTransaction(_id)\n      stateOnly(_id, TradeState.Finish)\n      returns (\n        bool success\n    ) {\n        success = true;\n    }\n\n    function _penalty(\n        uint256 _id\n    ) internal {\n        token.safeTransfer(trades[_id].taker, trades[_id].collateral);\n        _finish(_id);\n    }\n\n    function _release(\n        uint256 _id\n    ) internal {\n        token.safeTransfer(trades[_id].maker, trades[_id].collateral);\n        _finish(_id);\n    }\n\n    function _finish(\n        uint256 _id\n    ) internal {\n        trades[_id].finishBlock = block.number;\n        trades[_id].state = TradeState.Finish;\n        emit TradeFinish(_id);\n    }\n\n    function processMakerOrder(\n        uint256 _id,\n        bytes memory _order\n    ) internal returns (\n        bool success\n    ) {\n        uint256 deadline;\n        Trade storage trade = trades[_id];\n\n        (trade.market,\n         trade.deal,\n         trade.collateral,\n         deadline,\n         trade.makerExtra)\n            = abi.decode(_order, (bytes32, bytes32, uint256, uint256, bytes));\n\n        // Order deadline check\n        require(deadline > block.number, ERROR_DEADLINE_REACHED);\n\n        // Collateral transfer\n        token.safeTransferFrom(trade.maker, address(this), trade.collateral);\n\n        success = true;\n    }\n\n    function processTakerOrder(\n        uint256 _id,\n        bytes memory _order\n    ) internal returns (\n        bool success\n    ) {\n        uint256 deadline;\n        bytes32 market;\n        bytes32 deal;\n\n        (market,\n         deal,\n         deadline,\n         trades[_id].takerExtra)\n            = abi.decode(_order, (bytes32, bytes32, uint256, bytes));\n\n        // Order deadline check\n        require(deadline > block.number, ERROR_DEADLINE_REACHED);\n\n        // Check for market & deal\n        require(trades[_id].market == market && trades[_id].deal == deal, ERROR_ORDER_MISMATCHED);\n\n        success = true;\n    }\n}\n",
  "sourcePath": "/home/akru/enon-dex/contracts/Exchange.sol",
  "compiler": {
    "name": "solc",
    "version": "0.5.4+commit.9549d8ff.Emscripten.clang"
  },
  "schemaVersion": "3.0.6",
  "updatedAt": "2019-05-24T14:10:53.571Z",
  "devdoc": {
    "methods": {}
  },
  "userdoc": {
    "methods": {}
  }
}