{
  "contractName": "Exchange",
  "abi": [
    {
      "constant": true,
      "inputs": [
        {
          "name": "",
          "type": "bytes32"
        }
      ],
      "name": "isHashConsumed",
      "outputs": [
        {
          "name": "",
          "type": "bool"
        }
      ],
      "payable": false,
      "stateMutability": "view",
      "type": "function"
    },
    {
      "constant": true,
      "inputs": [],
      "name": "token",
      "outputs": [
        {
          "name": "",
          "type": "address"
        }
      ],
      "payable": false,
      "stateMutability": "view",
      "type": "function"
    },
    {
      "inputs": [
        {
          "name": "_collateral",
          "type": "address"
        }
      ],
      "payable": false,
      "stateMutability": "nonpayable",
      "type": "constructor"
    },
    {
      "anonymous": false,
      "inputs": [
        {
          "indexed": true,
          "name": "hash",
          "type": "bytes32"
        }
      ],
      "name": "HashConsumed",
      "type": "event"
    },
    {
      "anonymous": false,
      "inputs": [
        {
          "indexed": true,
          "name": "id",
          "type": "bytes32"
        }
      ],
      "name": "NewMarket",
      "type": "event"
    },
    {
      "anonymous": false,
      "inputs": [
        {
          "indexed": true,
          "name": "id",
          "type": "uint256"
        }
      ],
      "name": "TradeStart",
      "type": "event"
    },
    {
      "anonymous": false,
      "inputs": [
        {
          "indexed": true,
          "name": "id",
          "type": "uint256"
        }
      ],
      "name": "TradePartial",
      "type": "event"
    },
    {
      "anonymous": false,
      "inputs": [
        {
          "indexed": true,
          "name": "id",
          "type": "uint256"
        }
      ],
      "name": "TradeFinish",
      "type": "event"
    },
    {
      "anonymous": false,
      "inputs": [
        {
          "indexed": true,
          "name": "id",
          "type": "uint256"
        },
        {
          "indexed": true,
          "name": "oracle",
          "type": "address"
        }
      ],
      "name": "TakerTransferConfirmation",
      "type": "event"
    },
    {
      "anonymous": false,
      "inputs": [
        {
          "indexed": true,
          "name": "id",
          "type": "uint256"
        }
      ],
      "name": "TakerTransferConfirmed",
      "type": "event"
    },
    {
      "anonymous": false,
      "inputs": [
        {
          "indexed": true,
          "name": "id",
          "type": "uint256"
        },
        {
          "indexed": true,
          "name": "oracle",
          "type": "address"
        }
      ],
      "name": "MakerTransferConfirmation",
      "type": "event"
    },
    {
      "anonymous": false,
      "inputs": [
        {
          "indexed": true,
          "name": "id",
          "type": "uint256"
        }
      ],
      "name": "MakerTransferConfirmed",
      "type": "event"
    },
    {
      "constant": true,
      "inputs": [
        {
          "name": "_id",
          "type": "uint256"
        }
      ],
      "name": "getTrade",
      "outputs": [
        {
          "name": "market",
          "type": "bytes32"
        },
        {
          "name": "deal",
          "type": "bytes32"
        },
        {
          "name": "maker",
          "type": "address"
        },
        {
          "name": "taker",
          "type": "address"
        },
        {
          "name": "collateral",
          "type": "uint256"
        },
        {
          "name": "makerTransferConfirmations",
          "type": "uint256"
        },
        {
          "name": "takerTransferConfirmations",
          "type": "uint256"
        },
        {
          "name": "startBlock",
          "type": "uint256"
        },
        {
          "name": "partialBlock",
          "type": "uint256"
        },
        {
          "name": "finishBlock",
          "type": "uint256"
        },
        {
          "name": "makerExtra",
          "type": "bytes"
        },
        {
          "name": "takerExtra",
          "type": "bytes"
        }
      ],
      "payable": false,
      "stateMutability": "view",
      "type": "function"
    },
    {
      "constant": true,
      "inputs": [
        {
          "name": "_id",
          "type": "bytes32"
        }
      ],
      "name": "getMarket",
      "outputs": [
        {
          "name": "makerTimeout",
          "type": "uint256"
        },
        {
          "name": "takerTimeout",
          "type": "uint256"
        },
        {
          "name": "oracles",
          "type": "address[]"
        },
        {
          "name": "minimalConfirmations",
          "type": "uint256"
        }
      ],
      "payable": false,
      "stateMutability": "view",
      "type": "function"
    },
    {
      "constant": false,
      "inputs": [
        {
          "name": "_makerTimeout",
          "type": "uint256"
        },
        {
          "name": "_takerTimeout",
          "type": "uint256"
        },
        {
          "name": "_oracles",
          "type": "address[]"
        },
        {
          "name": "_minimalConfirmations",
          "type": "uint256"
        }
      ],
      "name": "addMarket",
      "outputs": [
        {
          "name": "id",
          "type": "bytes32"
        }
      ],
      "payable": false,
      "stateMutability": "nonpayable",
      "type": "function"
    },
    {
      "constant": false,
      "inputs": [
        {
          "name": "_makerOrder",
          "type": "bytes"
        },
        {
          "name": "_makerSignature",
          "type": "bytes"
        },
        {
          "name": "_takerOrder",
          "type": "bytes"
        },
        {
          "name": "_takerSignature",
          "type": "bytes"
        }
      ],
      "name": "startTrade",
      "outputs": [
        {
          "name": "id",
          "type": "uint256"
        }
      ],
      "payable": false,
      "stateMutability": "nonpayable",
      "type": "function"
    },
    {
      "constant": false,
      "inputs": [
        {
          "name": "_id",
          "type": "uint256"
        }
      ],
      "name": "confirmTakerTransfer",
      "outputs": [
        {
          "name": "success",
          "type": "bool"
        }
      ],
      "payable": false,
      "stateMutability": "nonpayable",
      "type": "function"
    },
    {
      "constant": false,
      "inputs": [
        {
          "name": "_id",
          "type": "uint256"
        }
      ],
      "name": "confirmMakerTransfer",
      "outputs": [
        {
          "name": "success",
          "type": "bool"
        }
      ],
      "payable": false,
      "stateMutability": "nonpayable",
      "type": "function"
    },
    {
      "constant": false,
      "inputs": [
        {
          "name": "_id",
          "type": "uint256"
        }
      ],
      "name": "finishTrade",
      "outputs": [
        {
          "name": "success",
          "type": "bool"
        }
      ],
      "payable": false,
      "stateMutability": "nonpayable",
      "type": "function"
    }
  ],
  "bytecode": "0x608060405234801561001057600080fd5b5060405160208061237d8339810180604052602081101561003057600080fd5b505160018054600160a060020a031916600160a060020a0390921691909117905561231d806100606000396000f3fe608060405234801561001057600080fd5b50600436106100975760003560e060020a90048063b29531a81161006a578063b29531a8146102dd578063c3c95c7b146102fa578063d35d763014610380578063fa3260de146104e6578063fc0c546a1461050357610097565b806305564c571461009c57806318671b0d1461012a5780632db25e051461015b578063a9dd4631146102c0575b600080fd5b610118600480360360808110156100b257600080fd5b8135916020810135918101906060810160408201356401000000008111156100d957600080fd5b8201836020820111156100eb57600080fd5b8035906020019184602083028401116401000000008311171561010d57600080fd5b919350915035610527565b60408051918252519081900360200190f35b6101476004803603602081101561014057600080fd5b5035610609565b604080519115158252519081900360200190f35b6101786004803603602081101561017157600080fd5b5035610ade565b604051808d81526020018c81526020018b600160a060020a0316600160a060020a031681526020018a600160a060020a0316600160a060020a031681526020018981526020018881526020018781526020018681526020018581526020018481526020018060200180602001838103835285818151815260200191508051906020019080838360005b83811015610219578181015183820152602001610201565b50505050905090810190601f1680156102465780820380516001836020036101000a031916815260200191505b50838103825284518152845160209182019186019080838360005b83811015610279578181015183820152602001610261565b50505050905090810190601f1680156102a65780820380516001836020036101000a031916815260200191505b509e50505050505050505050505050505060405180910390f35b610147600480360360208110156102d657600080fd5b5035610cbe565b610147600480360360208110156102f357600080fd5b5035610f68565b6103176004803603602081101561031057600080fd5b50356113a5565b6040518085815260200184815260200180602001838152602001828103825284818151815260200191508051906020019060200280838360005b83811015610369578181015183820152602001610351565b505050509050019550505050505060405180910390f35b6101186004803603608081101561039657600080fd5b8101906020810181356401000000008111156103b157600080fd5b8201836020820111156103c357600080fd5b803590602001918460018302840111640100000000831117156103e557600080fd5b91939092909160208101903564010000000081111561040357600080fd5b82018360208201111561041557600080fd5b8035906020019184600183028401116401000000008311171561043757600080fd5b91939092909160208101903564010000000081111561045557600080fd5b82018360208201111561046757600080fd5b8035906020019184600183028401116401000000008311171561048957600080fd5b9193909290916020810190356401000000008111156104a757600080fd5b8201836020820111156104b957600080fd5b803590602001918460018302840111640100000000831117156104db57600080fd5b50909250905061145d565b610147600480360360208110156104fc57600080fd5b50356117a8565b61050b6117bd565b60408051600160a060020a039092168252519081900360200190f35b600085858585856040516020018086815260200185815260200184846020028082843791909101928352505060408051808303815260209283018252805190830120600081815260039093529082208c8155600181018c9055600481018990559096509450925050505b848110156105d3576105ca8686838181106105a857fe5b90506020020135600160a060020a0316836002016117cc90919063ffffffff16565b50600101610591565b5060405182907fadb0b642cc3d1212056d46e8f97582d0bfdca873afee107060c312996830ceb190600090a25095945050505050565b600081610654336003600060028581548110151561062357fe5b90600052602060002090600f020160000154815260200190815260200160002060020161185590919063ffffffff16565b606060405190810160405280602481526020016122ab602491399015156106fc5760405160e560020a62461bcd0281526004018080602001828103825283818151815260200191508051906020019080838360005b838110156106c15781810151838201526020016106a9565b50505050905090810190601f1680156106ee5780820380516001836020036101000a031916815260200191505b509250505060405180910390fd5b5082600060028281548110151561070f57fe5b90600052602060002090600f0201905080600a0154600014156040805190810160405280601381526020017f547261646520646f65736e2774206578697374000000000000000000000000008152509015156107b05760405160e560020a62461bcd028152600401808060200182810382528381815181526020019150805190602001908083836000838110156106c15781810151838201526020016106a9565b50600c81015460408051808201909152601481527f547261646520616c72656164792066696e6973680000000000000000000000006020820152901561083b5760405160e560020a62461bcd028152600401808060200182810382528381815181526020019150805190602001908083836000838110156106c15781810151838201526020016106a9565b506000600982015460ff16600481111561085157fe5b14801561087757508054600090815260036020526040902060010154600a820154439101105b156108855761088582611874565b6001600982015460ff16600481111561089a57fe5b1480156108bd57508054600090815260036020526040902054600b820154439101105b156108cb576108cb826118ed565b8460018060028054849081106108dd57fe5b600091825260209091206009600f90920201015460ff1660048111156108ff57fe5b14606060405190810160405280602281526020016122446022913990151561096c5760405160e560020a62461bcd028152600401808060200182810382528381815181526020019150805190602001908083836000838110156106c15781810151838201526020016106a9565b50600060028881548110151561097e57fe5b90600052602060002090600f020190506109a433826005016117cc90919063ffffffff16565b6060604051908101604052806023815260200161226660239139901515610a105760405160e560020a62461bcd028152600401808060200182810382528381815181526020019150805190602001908083836000838110156106c15781810151838201526020016106a9565b50604051339089907f32ca8f737abc610300808e342bb2e650f1d1cb7a8154d1a07dc02abd5c768b9e90600090a38054600090815260036020526040902060040154610a5e6005830161192d565b10610aa45743600b82015560098101805460ff1916600217905560405188907f3d2d158c34b8257ce6aafd794d6e530674d8799a530e8b6e69b88aa77368f58290600090a25b506001955060029150610ab49050565b600982015460ff166004811115610ac757fe5b1415610ad657610ad682611874565b505050919050565b600080600080600080600080600080606080600060028e815481101515610b0157fe5b90600052602060002090600f0201905080600001549c5080600101549b508060020160009054906101000a9004600160a060020a03169a508060030160009054906101000a9004600160a060020a0316995080600401549850610b668160050161192d565b9750610b748160070161192d565b600a820154600b830154600c840154600d85018054604080516020601f60026000196101006001881615020190951694909404938401819004810282018101909252828152969d50949b5092995090975091830182828015610c175780601f10610bec57610100808354040283529160200191610c17565b820191906000526020600020905b815481529060010190602001808311610bfa57829003601f168201915b50505050600e8301805460408051602060026001851615610100026000190190941693909304601f8101849004840282018401909252818152949750919250830182828015610ca75780601f10610c7c57610100808354040283529160200191610ca7565b820191906000526020600020905b815481529060010190602001808311610c8a57829003601f168201915b505050505091505091939597999b5091939597999b565b6000816000600282815481101515610cd257fe5b90600052602060002090600f0201905080600a0154600014156040805190810160405280601381526020017f547261646520646f65736e277420657869737400000000000000000000000000815250901515610d735760405160e560020a62461bcd028152600401808060200182810382528381815181526020019150805190602001908083836000838110156106c15781810151838201526020016106a9565b50600c81015460408051808201909152601481527f547261646520616c72656164792066696e69736800000000000000000000000060208201529015610dfe5760405160e560020a62461bcd028152600401808060200182810382528381815181526020019150805190602001908083836000838110156106c15781810151838201526020016106a9565b506000600982015460ff166004811115610e1457fe5b148015610e3a57508054600090815260036020526040902060010154600a820154439101105b15610e4857610e4882611874565b6001600982015460ff166004811115610e5d57fe5b148015610e8057508054600090815260036020526040902054600b820154439101105b15610e8e57610e8e826118ed565b836004806002805484908110610ea057fe5b600091825260209091206009600f90920201015460ff166004811115610ec257fe5b146060604051908101604052806022815260200161224460229139901515610f2f5760405160e560020a62461bcd028152600401808060200182810382528381815181526020019150805190602001908083836000838110156106c15781810151838201526020016106a9565b506001945060029150610f3f9050565b600982015460ff166004811115610f5257fe5b1415610f6157610f6182611874565b5050919050565b600081610f82336003600060028581548110151561062357fe5b606060405190810160405280602481526020016122ab60249139901515610fee5760405160e560020a62461bcd028152600401808060200182810382528381815181526020019150805190602001908083836000838110156106c15781810151838201526020016106a9565b5082600060028281548110151561100157fe5b90600052602060002090600f0201905080600a0154600014156040805190810160405280601381526020017f547261646520646f65736e2774206578697374000000000000000000000000008152509015156110a25760405160e560020a62461bcd028152600401808060200182810382528381815181526020019150805190602001908083836000838110156106c15781810151838201526020016106a9565b50600c81015460408051808201909152601481527f547261646520616c72656164792066696e6973680000000000000000000000006020820152901561112d5760405160e560020a62461bcd028152600401808060200182810382528381815181526020019150805190602001908083836000838110156106c15781810151838201526020016106a9565b506000600982015460ff16600481111561114357fe5b14801561116957508054600090815260036020526040902060010154600a820154439101105b156111775761117782611874565b6001600982015460ff16600481111561118c57fe5b1480156111af57508054600090815260036020526040902054600b820154439101105b156111bd576111bd826118ed565b8460008060028054849081106111cf57fe5b600091825260209091206009600f90920201015460ff1660048111156111f157fe5b14606060405190810160405280602281526020016122446022913990151561125e5760405160e560020a62461bcd028152600401808060200182810382528381815181526020019150805190602001908083836000838110156106c15781810151838201526020016106a9565b50600060028881548110151561127057fe5b90600052602060002090600f0201905061129633826007016117cc90919063ffffffff16565b60606040519081016040528060238152602001612266602391399015156113025760405160e560020a62461bcd028152600401808060200182810382528381815181526020019150805190602001908083836000838110156106c15781810151838201526020016106a9565b50604051339089907f0d291e954d312d910375b4fe87ee3727a2ff8f40086d3cf02aea7caeb813b2ac90600090a380546000908152600360205260409020600401546113506007830161192d565b10610aa45743600b82015560098101805460ff1916600117905560405188907f4068f884306033ded5e133201660034656370d5cf3e4d672f3ec90b1af00983f90600090a2506001955060029150610ab49050565b6000818152600360205260409020805460018201546004830154919290916060916113d26002820161192d565b6040519080825280602002602001820160405280156113fb578160200160208202803883390190505b50925060005b61140d8260020161192d565b81101561145457611427600283018263ffffffff61193416565b848281518110151561143557fe5b600160a060020a03909216602092830290910190910152600101611401565b50509193509193565b60028054600091611471906001830161205b565b9050600060028281548110151561148457fe5b90600052602060002090600f0201905060008a8a60405180838380828437604051920182900390912094506114bf9350849250611973915050565b5061151189898080601f01602080910402602001604051908101604052809392919081815260200183838082843760009201919091525061150592508591506119d39050565b9063ffffffff611a2416565b8260020160006101000a815481600160a060020a030219169083600160a060020a031602179055506000878760405180838380828437604051920182900390912094506115649350849250611973915050565b506115aa86868080601f01602080910402602001604051908101604052809392919081815260200183838082843760009201919091525061150592508591506119d39050565b60038401805473ffffffffffffffffffffffffffffffffffffffff1916600160a060020a039290921691909117905543600a84015560098301805460ff19169055604080516020601f8e018190048102820181019092528c815261162b918691908f908f9081908401838280828437600092019190915250611afa92505050565b151561163657600080fd5b6116768489898080601f016020809104026020016040519081016040528093929190818152602001838380828437600092019190915250611c8292505050565b151561168157600080fd5b825460009081526003602052604081206002019061169e8261192d565b116116a857600080fd5b60005b6116b48261192d565b81101561176c576116cb828263ffffffff61193416565b600160a060020a03166381145d5c30886040518363ffffffff1660e060020a0281526004018083600160a060020a0316600160a060020a0316815260200182815260200192505050602060405180830381600087803b15801561172d57600080fd5b505af1158015611741573d6000803e3d6000fd5b505050506040513d602081101561175757600080fd5b5051151561176457600080fd5b6001016116ab565b5060405185907fbdff1082bcfe6f84faf7e9593444477bf93482b5f6e23a524d27c3f7a69d9d9690600090a25050505098975050505050505050565b60006020819052908152604090205460ff1681565b600154600160a060020a031681565b600160a060020a03811660009081526020839052604081205460ff16151561184b5750600160a060020a0381166000818152602084815260408220805460ff19166001908117909155858101805480830182559084529190922001805473ffffffffffffffffffffffffffffffffffffffff191690921790915561184f565b5060005b92915050565b600160a060020a03166000908152602091909152604090205460ff1690565b6118e160028281548110151561188657fe5b600091825260209091206002600f909202018101548154600160a060020a039091169190849081106118b457fe5b600091825260209091206004600f909202010154600154600160a060020a0316919063ffffffff611e7b16565b6118ea81611f1a565b50565b6118e16002828154811015156118ff57fe5b600091825260209091206003600f90920201015460028054600160a060020a0390921691849081106118b457fe5b6001015490565b6001820154600090821061194757600080fd5b6001830180548390811061195757fe5b600091825260209091200154600160a060020a03169392505050565b60008181526020819052604081205460ff161561198f57600080fd5b600082815260208190526040808220805460ff191660011790555183917fff8bad61d8f2eaa50a98cc8d31de285608e5a904d330f193043d6c9854e2586d91a25090565b604080517f19457468657265756d205369676e6564204d6573736167653a0a333200000000602080830191909152603c8083019490945282518083039094018452605c909101909152815191012090565b60008060008084516041141515611a41576000935050505061184f565b50505060208201516040830151606084015160001a601b60ff82161015611a6657601b015b8060ff16601b14158015611a7e57508060ff16601c14155b15611a8f576000935050505061184f565b6040805160008152602080820180845289905260ff8416828401526060820186905260808201859052915160019260a0808401939192601f1981019281900390910190855afa158015611ae6573d6000803e3d6000fd5b50505060206040510351935050505061184f565b6000806000600285815481101515611b0e57fe5b90600052602060002090600f020190508380602001905160a0811015611b3357600080fd5b815160208301516040840151606085015160808601805194969395929491939283019291640100000000811115611b6957600080fd5b82016020810184811115611b7c57600080fd5b8151640100000000811182820187101715611b9657600080fd5b50508051909350889250600091506001830190829060048501908290611bc590600d88019060208a0190612087565b5050969096559590955594909455604080516060810190915260228082529196504387119450925090506122896020830139901515611c495760405160e560020a62461bcd028152600401808060200182810382528381815181526020019150805190602001908083836000838110156106c15781810151838201526020016106a9565b5060028101546004820154600154611c7792600160a060020a0391821692911690309063ffffffff611faa16565b506001949350505050565b600080600080848060200190516080811015611c9d57600080fd5b8151602083015160408401516060850180519395929491939183019291640100000000811115611ccc57600080fd5b82016020810184811115611cdf57600080fd5b8151640100000000811182820187101715611cf957600080fd5b50506002805491945092508c91508110611d0f57fe5b90600052602060002090600f0201600e016000829190509080519060200190611d39929190612087565b50506040805160608101909152602280825291965092945090925043851191906122896020830139901515611db35760405160e560020a62461bcd028152600401808060200182810382528381815181526020019150805190602001908083836000838110156106c15781810151838201526020016106a9565b5081600287815481101515611dc457fe5b90600052602060002090600f020160000154148015611e02575080600287815481101515611dee57fe5b90600052602060002090600f020160010154145b606060405190810160405280602381526020016122cf60239139901515611e6e5760405160e560020a62461bcd028152600401808060200182810382528381815181526020019150805190602001908083836000838110156106c15781810151838201526020016106a9565b5060019695505050505050565b82600160a060020a031663a9059cbb83836040518363ffffffff1660e060020a0281526004018083600160a060020a0316600160a060020a0316815260200182815260200192505050602060405180830381600087803b158015611ede57600080fd5b505af1158015611ef2573d6000803e3d6000fd5b505050506040513d6020811015611f0857600080fd5b50511515611f1557600080fd5b505050565b43600282815481101515611f2a57fe5b90600052602060002090600f0201600c01819055506004600282815481101515611f5057fe5b600091825260209091206009600f9092020101805460ff19166001836004811115611f7757fe5b021790555060405181907fa8816d60783926d64c61f723a3cf7753f733302a70b3cd3d0a845fae7c8dd7ef90600090a250565b604080517f23b872dd000000000000000000000000000000000000000000000000000000008152600160a060020a0385811660048301528481166024830152604482018490529151918616916323b872dd916064808201926020929091908290030181600087803b15801561201e57600080fd5b505af1158015612032573d6000803e3d6000fd5b505050506040513d602081101561204857600080fd5b5051151561205557600080fd5b50505050565b815481835581811115611f1557600f0281600f028360005260206000209182019101611f159190612105565b828054600181600116156101000203166002900490600052602060002090601f016020900481019282601f106120c857805160ff19168380011785556120f5565b828001600101855582156120f5579182015b828111156120f55782518255916020019190600101906120da565b506121019291506121c7565b5090565b6121c491905b808211156121015760008082556001820181905560028201805473ffffffffffffffffffffffffffffffffffffffff19908116909155600383018054909116905560048201819055600582018161216560068501826121e1565b505060078201600061217a60088501826121e1565b505060098201805460ff191690556000600a8301819055600b8301819055600c83018190556121ad90600d8401906121ff565b6121bb600e830160006121ff565b50600f0161210b565b90565b6121c491905b8082111561210157600081556001016121cd565b50805460008255906000526020600020908101906118ea91906121c7565b50805460018160011615610100020316600290046000825580601f1061222557506118ea565b601f0160209004906000526020600020908101906118ea91906121c756fe43616c6c206d6574686f6420696e20696e76616c69642074726164652073746174654f7261636c652063616e20766f746520666f72207472616465206f6e6c79206f6e63654f72646572206d65737361676520646561646c696e6520776173207265616368656454686973206d6574686f6420697320666f72207472616465206f7261636c65206f6e6c794f72646572206d65737361676573206d69736d61746368656420627920706172616d73a165627a7a7230582047225dce0889e70d9c918d14961657e7944b0fe03c154059f3f49dc9e173f2600029",
  "source": "/**\n * @title Exchange smart contract.\n */\n\npragma solidity >= 0.5.0;\n\nimport 'openzeppelin-solidity/contracts/cryptography/ECDSA.sol';\nimport 'openzeppelin-solidity/contracts/token/ERC20/ERC20.sol';\nimport 'openzeppelin-solidity/contracts/token/ERC20/SafeERC20.sol';\n\nimport './interface/IExchange.sol';\nimport './interface/IOracle.sol';\nimport './misc/SingletonHash.sol';\nimport './misc/Set.sol';\n\ncontract Exchange is IExchange, SingletonHash {\n    constructor(ERC20 _collateral) public {\n        token = _collateral;\n    }\n\n    string constant private ERROR_TRADE_DOESNT_EXIT = \"Trade doesn't exist\";\n    string constant private ERROR_TRADE_ALREADY_FINISH = \"Trade already finish\";\n    string constant private ERROR_ORACLE_ONLY = \"This method is for trade oracle only\";\n    string constant private ERROR_INVALID_STATE = \"Call method in invalid trade state\";\n    string constant private ERROR_DOUBLE_VOTE = \"Oracle can vote for trade only once\"; \n    string constant private ERROR_DEADLINE_REACHED = \"Order message deadline was reached\";\n    string constant private ERROR_ORDER_MISMATCHED = \"Order messages mismatched by params\";\n\n    using SafeERC20 for ERC20;\n    using ECDSA for bytes32;\n    using Set for Set.Address;\n\n    ERC20 public token;\n    Trade[] private trades;\n    mapping(bytes32 => Market) private markets;\n\n    modifier oracleOnly(uint256 _id) {\n        require(markets[trades[_id].market].oracles.contains(msg.sender), ERROR_ORACLE_ONLY);\n        _;\n    }\n\n    modifier stateOnly(uint256 _id, TradeState _state) {\n        require(trades[_id].state == _state, ERROR_INVALID_STATE);\n        _;\n    }\n\n    modifier timedTransaction(uint256 _id) {\n        Trade storage trade = trades[_id];\n\n        // Start/finish checks\n        require(trade.startBlock != 0, ERROR_TRADE_DOESNT_EXIT);\n        require(trade.finishBlock == 0, ERROR_TRADE_ALREADY_FINISH);\n\n        // Check for taker timeout\n        if (trade.state == TradeState.Start\n            && trade.startBlock + markets[trade.market].takerTimeout < block.number)\n            _release(_id);\n\n        // Check for maker timeout\n        if (trade.state == TradeState.Partial\n            && trade.partialBlock + markets[trade.market].makerTimeout < block.number)\n                _penalty(_id);\n\n        _;\n\n        // Make release when needed\n        if (trade.state == TradeState.Release)\n            _release(_id);\n    }\n\n    function getTrade(\n        uint256 _id\n    ) external view returns (\n        bytes32 market,\n        bytes32 deal,\n        address maker,\n        address taker,\n        uint256 collateral,\n        uint256 makerTransferConfirmations,\n        uint256 takerTransferConfirmations,\n        uint256 startBlock,\n        uint256 partialBlock,\n        uint256 finishBlock,\n        bytes memory makerExtra,\n        bytes memory takerExtra\n    ) {\n        Trade storage trade = trades[_id];\n        market = trade.market;\n        deal = trade.deal;\n        maker = trade.maker;\n        taker = trade.taker;\n        collateral = trade.collateral;\n        makerTransferConfirmations = trade.makerTransferConfirmations.size();\n        takerTransferConfirmations = trade.takerTransferConfirmations.size();\n        startBlock = trade.startBlock;\n        partialBlock = trade.partialBlock;\n        finishBlock = trade.finishBlock;\n        makerExtra = trade.makerExtra;\n        takerExtra = trade.takerExtra;\n    }\n\n    function getMarket(\n        bytes32 _id\n    ) external view returns (\n        uint256 makerTimeout,\n        uint256 takerTimeout,\n        address[] memory oracles,\n        uint256 minimalConfirmations\n    ) {\n        Market storage market = markets[_id];\n\n        makerTimeout = market.makerTimeout;\n        takerTimeout = market.takerTimeout;\n        minimalConfirmations = market.minimalConfirmations;\n\n        oracles = new address[](market.oracles.size());\n        for (uint256 i = 0; i < market.oracles.size(); ++i)\n            oracles[i] = market.oracles.at(i);\n    }\n\n    function addMarket(\n        uint256 _makerTimeout,\n        uint256 _takerTimeout,\n        address[] calldata _oracles,\n        uint256 _minimalConfirmations\n    ) external returns (\n        bytes32 id \n    ) {\n        id = keccak256(abi.encodePacked(\n            _makerTimeout,\n            _takerTimeout,\n            _oracles,\n            _minimalConfirmations\n        ));\n\n        Market storage market = markets[id];\n        market.makerTimeout = _makerTimeout;\n        market.takerTimeout = _takerTimeout;\n        market.minimalConfirmations = _minimalConfirmations;\n\n        for (uint256 i = 0; i < _oracles.length; ++i)\n            market.oracles.insert(_oracles[i]);\n\n        emit NewMarket(id);\n    }\n\n    function startTrade(\n        bytes calldata _makerOrder,\n        bytes calldata _makerSignature,\n        bytes calldata _takerOrder,\n        bytes calldata _takerSignature\n    ) external returns (\n        uint256 id\n    ) {\n        // Start new trade\n        id = trades.length++;\n        Trade storage trade = trades[id];\n\n        // Recover trader addresses\n        bytes32 makerOrderHash = keccak256(_makerOrder);\n        singleton(makerOrderHash);\n        trade.maker = makerOrderHash\n            .toEthSignedMessageHash()\n            .recover(_makerSignature);\n\n        bytes32 takerOrderHash = keccak256(_takerOrder);\n        singleton(takerOrderHash);\n        trade.taker = takerOrderHash\n            .toEthSignedMessageHash()\n            .recover(_takerSignature);\n\n        // Open order at current block\n        trade.startBlock = block.number;\n        trade.state = TradeState.Start;\n\n        // Process orders\n        require(processMakerOrder(id, _makerOrder));\n        require(processTakerOrder(id, _takerOrder));\n\n        // Notify oracles to start transfer checking\n        Set.Address storage oracles = markets[trade.market].oracles;\n        require(oracles.size() > 0);\n        for (uint256 i = 0; i < oracles.size(); ++i)\n            require(IOracle(oracles.at(i)).checkTrade(address(this), id));\n\n        emit TradeStart(id);\n    }\n\n    function confirmTakerTransfer(\n        uint256 _id\n    ) external\n      oracleOnly(_id)\n      timedTransaction(_id)\n      stateOnly(_id, TradeState.Start)\n      returns (\n        bool success\n    ) {\n        Trade storage trade = trades[_id];\n        require(trade.takerTransferConfirmations.insert(msg.sender), ERROR_DOUBLE_VOTE);\n        emit TakerTransferConfirmation(_id, msg.sender);\n\n        if (trade.takerTransferConfirmations.size() >= markets[trade.market].minimalConfirmations) {\n            trade.partialBlock = block.number;\n            trade.state = TradeState.Partial;\n            emit TakerTransferConfirmed(_id);\n        }\n\n        success = true;\n    }\n\n    function confirmMakerTransfer(\n        uint256 _id\n    ) external\n      oracleOnly(_id)\n      timedTransaction(_id)\n      stateOnly(_id, TradeState.Partial)\n      returns (\n        bool success\n    ) {\n        Trade storage trade = trades[_id];\n        require(trade.makerTransferConfirmations.insert(msg.sender), ERROR_DOUBLE_VOTE);\n        emit MakerTransferConfirmation(_id, msg.sender);\n\n        if (trade.makerTransferConfirmations.size() >= markets[trade.market].minimalConfirmations) {\n            trade.partialBlock = block.number;\n            trade.state = TradeState.Release;\n            emit MakerTransferConfirmed(_id);\n        }\n\n        success = true;\n    }\n\n    function finishTrade(\n        uint256 _id\n    ) external\n      timedTransaction(_id)\n      stateOnly(_id, TradeState.Finish)\n      returns (\n        bool success\n    ) {\n        success = true;\n    }\n\n    function _penalty(\n        uint256 _id\n    ) internal {\n        token.safeTransfer(trades[_id].taker, trades[_id].collateral);\n        _finish(_id);\n    }\n\n    function _release(\n        uint256 _id\n    ) internal {\n        token.safeTransfer(trades[_id].maker, trades[_id].collateral);\n        _finish(_id);\n    }\n\n    function _finish(\n        uint256 _id\n    ) internal {\n        trades[_id].finishBlock = block.number;\n        trades[_id].state = TradeState.Finish;\n        emit TradeFinish(_id);\n    }\n\n    function processMakerOrder(\n        uint256 _id,\n        bytes memory _order\n    ) internal returns (\n        bool success\n    ) {\n        uint256 deadline;\n        Trade storage trade = trades[_id];\n\n        (trade.market,\n         trade.deal,\n         trade.collateral,\n         deadline,\n         trade.makerExtra)\n            = abi.decode(_order, (bytes32, bytes32, uint256, uint256, bytes));\n\n        // Order deadline check\n        require(deadline > block.number, ERROR_DEADLINE_REACHED);\n\n        // Collateral transfer\n        token.safeTransferFrom(trade.maker, address(this), trade.collateral);\n\n        success = true;\n    }\n\n    function processTakerOrder(\n        uint256 _id,\n        bytes memory _order\n    ) internal returns (\n        bool success\n    ) {\n        uint256 deadline;\n        bytes32 market;\n        bytes32 deal;\n\n        (market,\n         deal,\n         deadline,\n         trades[_id].takerExtra)\n            = abi.decode(_order, (bytes32, bytes32, uint256, bytes));\n\n        // Order deadline check\n        require(deadline > block.number, ERROR_DEADLINE_REACHED);\n\n        // Check for market & deal\n        require(trades[_id].market == market && trades[_id].deal == deal, ERROR_ORDER_MISMATCHED);\n\n        success = true;\n    }\n}\n",
  "sourcePath": "/home/akru/devel/cdex/contracts/Exchange.sol",
  "compiler": {
    "name": "solc",
    "version": "0.5.4+commit.9549d8ff.Emscripten.clang"
  },
  "schemaVersion": "3.0.2",
  "updatedAt": "2019-03-02T10:05:18.490Z",
  "devdoc": {
    "methods": {}
  },
  "userdoc": {
    "methods": {}
  }
}