{
  "contractName": "Exchange",
  "abi": [
    {
      "constant": true,
      "inputs": [
        {
          "name": "",
          "type": "bytes32"
        }
      ],
      "name": "isHashConsumed",
      "outputs": [
        {
          "name": "",
          "type": "bool"
        }
      ],
      "payable": false,
      "stateMutability": "view",
      "type": "function"
    },
    {
      "constant": true,
      "inputs": [],
      "name": "token",
      "outputs": [
        {
          "name": "",
          "type": "address"
        }
      ],
      "payable": false,
      "stateMutability": "view",
      "type": "function"
    },
    {
      "inputs": [
        {
          "name": "_collateral",
          "type": "address"
        }
      ],
      "payable": false,
      "stateMutability": "nonpayable",
      "type": "constructor"
    },
    {
      "anonymous": false,
      "inputs": [
        {
          "indexed": true,
          "name": "hash",
          "type": "bytes32"
        }
      ],
      "name": "HashConsumed",
      "type": "event"
    },
    {
      "anonymous": false,
      "inputs": [
        {
          "indexed": true,
          "name": "id",
          "type": "bytes32"
        }
      ],
      "name": "NewMarket",
      "type": "event"
    },
    {
      "anonymous": false,
      "inputs": [
        {
          "indexed": true,
          "name": "id",
          "type": "uint256"
        }
      ],
      "name": "TradeStart",
      "type": "event"
    },
    {
      "anonymous": false,
      "inputs": [
        {
          "indexed": true,
          "name": "id",
          "type": "uint256"
        }
      ],
      "name": "TradePartial",
      "type": "event"
    },
    {
      "anonymous": false,
      "inputs": [
        {
          "indexed": true,
          "name": "id",
          "type": "uint256"
        }
      ],
      "name": "TradeFinish",
      "type": "event"
    },
    {
      "anonymous": false,
      "inputs": [
        {
          "indexed": true,
          "name": "id",
          "type": "uint256"
        },
        {
          "indexed": true,
          "name": "oracle",
          "type": "address"
        }
      ],
      "name": "TakerTransferConfirmation",
      "type": "event"
    },
    {
      "anonymous": false,
      "inputs": [
        {
          "indexed": true,
          "name": "id",
          "type": "uint256"
        }
      ],
      "name": "TakerTransferConfirmed",
      "type": "event"
    },
    {
      "anonymous": false,
      "inputs": [
        {
          "indexed": true,
          "name": "id",
          "type": "uint256"
        },
        {
          "indexed": true,
          "name": "oracle",
          "type": "address"
        }
      ],
      "name": "MakerTransferConfirmation",
      "type": "event"
    },
    {
      "anonymous": false,
      "inputs": [
        {
          "indexed": true,
          "name": "id",
          "type": "uint256"
        }
      ],
      "name": "MakerTransferConfirmed",
      "type": "event"
    },
    {
      "constant": true,
      "inputs": [
        {
          "name": "_id",
          "type": "uint256"
        }
      ],
      "name": "getTrade",
      "outputs": [
        {
          "name": "market",
          "type": "bytes32"
        },
        {
          "name": "deal",
          "type": "bytes32"
        },
        {
          "name": "maker",
          "type": "address"
        },
        {
          "name": "taker",
          "type": "address"
        },
        {
          "name": "collateral",
          "type": "uint256"
        },
        {
          "name": "makerTransferConfirmations",
          "type": "uint256"
        },
        {
          "name": "takerTransferConfirmations",
          "type": "uint256"
        },
        {
          "name": "startBlock",
          "type": "uint256"
        },
        {
          "name": "partialBlock",
          "type": "uint256"
        },
        {
          "name": "finishBlock",
          "type": "uint256"
        },
        {
          "name": "makerExtra",
          "type": "bytes"
        },
        {
          "name": "takerExtra",
          "type": "bytes"
        }
      ],
      "payable": false,
      "stateMutability": "view",
      "type": "function"
    },
    {
      "constant": true,
      "inputs": [
        {
          "name": "_id",
          "type": "bytes32"
        }
      ],
      "name": "getMarket",
      "outputs": [
        {
          "name": "makerTimeout",
          "type": "uint256"
        },
        {
          "name": "takerTimeout",
          "type": "uint256"
        },
        {
          "name": "oracles",
          "type": "address[]"
        },
        {
          "name": "minimalConfirmations",
          "type": "uint256"
        }
      ],
      "payable": false,
      "stateMutability": "view",
      "type": "function"
    },
    {
      "constant": false,
      "inputs": [
        {
          "name": "_makerTimeout",
          "type": "uint256"
        },
        {
          "name": "_takerTimeout",
          "type": "uint256"
        },
        {
          "name": "_oracles",
          "type": "address[]"
        },
        {
          "name": "_minimalConfirmations",
          "type": "uint256"
        }
      ],
      "name": "newMarket",
      "outputs": [
        {
          "name": "id",
          "type": "bytes32"
        }
      ],
      "payable": false,
      "stateMutability": "nonpayable",
      "type": "function"
    },
    {
      "constant": false,
      "inputs": [
        {
          "name": "_makerOrder",
          "type": "bytes"
        },
        {
          "name": "_makerSignature",
          "type": "bytes"
        },
        {
          "name": "_takerOrder",
          "type": "bytes"
        },
        {
          "name": "_takerSignature",
          "type": "bytes"
        }
      ],
      "name": "startTrade",
      "outputs": [
        {
          "name": "id",
          "type": "uint256"
        }
      ],
      "payable": false,
      "stateMutability": "nonpayable",
      "type": "function"
    },
    {
      "constant": false,
      "inputs": [
        {
          "name": "_makers",
          "type": "uint256[]"
        },
        {
          "name": "_takers",
          "type": "uint256[]"
        }
      ],
      "name": "confirmTransfer",
      "outputs": [
        {
          "name": "success",
          "type": "bool"
        }
      ],
      "payable": false,
      "stateMutability": "nonpayable",
      "type": "function"
    },
    {
      "constant": false,
      "inputs": [
        {
          "name": "_id",
          "type": "uint256"
        }
      ],
      "name": "finishTrade",
      "outputs": [
        {
          "name": "success",
          "type": "bool"
        }
      ],
      "payable": false,
      "stateMutability": "nonpayable",
      "type": "function"
    }
  ],
  "bytecode": "0x608060405234801561001057600080fd5b5060405161251b38038061251b8339818101604052602081101561003357600080fd5b5051600180546001600160a01b0319166001600160a01b039092169190911790556124b8806100636000396000f3fe608060405234801561001057600080fd5b50600436106100885760003560e01c8063c40e06db1161005b578063c40e06db14610335578063d35d7630146103f3578063fa3260de14610551578063fc0c546a1461056e57610088565b80632db25e051461008d578063a59d6169146101f2578063a9dd46311461027e578063c3c95c7b146102af575b600080fd5b6100aa600480360360208110156100a357600080fd5b5035610592565b604051808d81526020018c81526020018b6001600160a01b03166001600160a01b031681526020018a6001600160a01b03166001600160a01b031681526020018981526020018881526020018781526020018681526020018581526020018481526020018060200180602001838103835285818151815260200191508051906020019080838360005b8381101561014b578181015183820152602001610133565b50505050905090810190601f1680156101785780820380516001836020036101000a031916815260200191505b50838103825284518152845160209182019186019080838360005b838110156101ab578181015183820152602001610193565b50505050905090810190601f1680156101d85780820380516001836020036101000a031916815260200191505b509e50505050505050505050505050505060405180910390f35b61026c6004803603608081101561020857600080fd5b813591602081013591810190606081016040820135600160201b81111561022e57600080fd5b82018360208201111561024057600080fd5b803590602001918460208302840111600160201b8311171561026157600080fd5b919350915035610770565b60408051918252519081900360200190f35b61029b6004803603602081101561029457600080fd5b5035610892565b604080519115158252519081900360200190f35b6102cc600480360360208110156102c557600080fd5b5035610b52565b6040518085815260200184815260200180602001838152602001828103825284818151815260200191508051906020019060200280838360005b8381101561031e578181015183820152602001610306565b505050509050019550505050505060405180910390f35b61029b6004803603604081101561034b57600080fd5b810190602081018135600160201b81111561036557600080fd5b82018360208201111561037757600080fd5b803590602001918460208302840111600160201b8311171561039857600080fd5b919390929091602081019035600160201b8111156103b557600080fd5b8201836020820111156103c757600080fd5b803590602001918460208302840111600160201b831117156103e857600080fd5b509092509050610c09565b61026c6004803603608081101561040957600080fd5b810190602081018135600160201b81111561042357600080fd5b82018360208201111561043557600080fd5b803590602001918460018302840111600160201b8311171561045657600080fd5b919390929091602081019035600160201b81111561047357600080fd5b82018360208201111561048557600080fd5b803590602001918460018302840111600160201b831117156104a657600080fd5b919390929091602081019035600160201b8111156104c357600080fd5b8201836020820111156104d557600080fd5b803590602001918460018302840111600160201b831117156104f657600080fd5b919390929091602081019035600160201b81111561051357600080fd5b82018360208201111561052557600080fd5b803590602001918460018302840111600160201b8311171561054657600080fd5b509092509050610c72565b61029b6004803603602081101561056757600080fd5b5035610fa5565b610576610fba565b604080516001600160a01b039092168252519081900360200190f35b600080600080600080600080600080606080600060028e815481106105b357fe5b90600052602060002090600f0201905080600001549c5080600101549b508060020160009054906101000a90046001600160a01b03169a508060030160009054906101000a90046001600160a01b031699508060040154985061061881600501610fc9565b975061062681600701610fc9565b600a820154600b830154600c840154600d85018054604080516020601f60026000196101006001881615020190951694909404938401819004810282018101909252828152969d50949b50929950909750918301828280156106c95780601f1061069e576101008083540402835291602001916106c9565b820191906000526020600020905b8154815290600101906020018083116106ac57829003601f168201915b50505050600e8301805460408051602060026001851615610100026000190190941693909304601f81018490048402820184019092528181529497509192508301828280156107595780601f1061072e57610100808354040283529160200191610759565b820191906000526020600020905b81548152906001019060200180831161073c57829003601f168201915b505050505091505091939597999b5091939597999b565b6000858585858560405160200180868152602001858152602001806020018381526020018281038252858582818152602001925060200280828437600081840152601f19601f8201169050808301925050509650505050505050604051602081830303815290604052805190602001209050600060036000838152602001908152602001600020905086816000018190555085816001018190555082816004018190555060008090505b8481101561085c5761085386868381811061083157fe5b905060200201356001600160a01b031683600201610fd090919063ffffffff16565b5060010161081a565b5060405182907fadb0b642cc3d1212056d46e8f97582d0bfdca873afee107060c312996830ceb190600090a25095945050505050565b6000816000600282815481106108a457fe5b90600052602060002090600f0201905080600a01546000141560405180604001604052806013815260200172151c98591948191bd95cdb89dd08195e1a5cdd606a1b815250906109725760405162461bcd60e51b81526004018080602001828103825283818151815260200191508051906020019080838360005b8381101561093757818101518382015260200161091f565b50505050905090810190601f1680156109645780820380516001836020036101000a031916815260200191505b509250505060405180910390fd5b50600c8101546040805180820190915260148152730a8e4c2c8ca40c2d8e4cac2c8f240ccd2dcd2e6d60631b602082015290156109f05760405162461bcd60e51b815260206004820181815283516024840152835190928392604490910191908501908083836000831561093757818101518382015260200161091f565b506000600982015460ff166004811115610a0657fe5b148015610a2c57508054600090815260036020526040902060010154600a820154439101105b15610a3a57610a3a8261104a565b6001600982015460ff166004811115610a4f57fe5b148015610a7257508054600090815260036020526040902054600b820154439101105b15610a8057610a80826110c5565b8360048060028381548110610a9157fe5b600091825260209091206009600f90920201015460ff166004811115610ab357fe5b146040518060600160405280602281526020016123ac6022913990610b195760405162461bcd60e51b815260206004820181815283516024840152835190928392604490910191908501908083836000831561093757818101518382015260200161091f565b506001945060029150610b299050565b600982015460ff166004811115610b3c57fe5b1415610b4b57610b4b8261104a565b5050919050565b600081815260036020526040902080546001820154600483015491929091606091610b7f60028201610fc9565b604051908082528060200260200182016040528015610ba8578160200160208202803883390190505b50925060005b610bba82600201610fc9565b811015610c0057610bd4600283018263ffffffff61110716565b848281518110610be057fe5b6001600160a01b0390921660209283029190910190910152600101610bae565b50509193509193565b6000805b84811015610c3957610c30868683818110610c2457fe5b90506020020135611145565b50600101610c0d565b5060005b82811015610c6957610c60848483818110610c5457fe5b905060200201356115a5565b50600101610c3d565b50949350505050565b60028054600091610c8690600183016121d0565b9050600060028281548110610c9757fe5b90600052602060002090600f0201905060008a8a6040518083838082843760405192018290039091209450610cd293508492506119a9915050565b50610d2489898080601f016020809104026020016040519081016040528093929190818152602001838380828437600092019190915250610d189250859150611a099050565b9063ffffffff611a5a16565b8260020160006101000a8154816001600160a01b0302191690836001600160a01b03160217905550600087876040518083838082843760405192018290039091209450610d7793508492506119a9915050565b50610dbd86868080601f016020809104026020016040519081016040528093929190818152602001838380828437600092019190915250610d189250859150611a099050565b6003840180546001600160a01b0319166001600160a01b039290921691909117905543600a84015560098301805460ff19169055604080516020601f8e018190048102820181019092528c8152610e31918691908f908f9081908401838280828437600092019190915250611b4892505050565b610e3a57600080fd5b610e7a8489898080601f016020809104026020016040519081016040528093929190818152602001838380828437600092019190915250611cc892505050565b610e8357600080fd5b8254600090815260036020526040812060020190610ea082610fc9565b11610eaa57600080fd5b60005b610eb682610fc9565b811015610f6957610ecd828263ffffffff61110716565b6001600160a01b03166381145d5c30886040518363ffffffff1660e01b815260040180836001600160a01b03166001600160a01b0316815260200182815260200192505050602060405180830381600087803b158015610f2c57600080fd5b505af1158015610f40573d6000803e3d6000fd5b505050506040513d6020811015610f5657600080fd5b5051610f6157600080fd5b600101610ead565b5060405185907fbdff1082bcfe6f84faf7e9593444477bf93482b5f6e23a524d27c3f7a69d9d9690600090a25050505098975050505050505050565b60006020819052908152604090205460ff1681565b6001546001600160a01b031681565b6001015490565b6001600160a01b03811660009081526020839052604081205460ff1661104057506001600160a01b0381166000818152602084815260408220805460ff1916600190811790915585810180548083018255908452919092200180546001600160a01b031916909217909155611044565b5060005b92915050565b6110b96002828154811061105a57fe5b90600052602060002090600f020160020160009054906101000a90046001600160a01b03166002838154811061108c57fe5b600091825260209091206004600f9092020101546001546001600160a01b0316919063ffffffff611eb016565b6110c281611f07565b50565b6110b9600282815481106110d557fe5b90600052602060002090600f020160030160009054906101000a90046001600160a01b03166002838154811061108c57fe5b6001820154600090821061111a57600080fd5b82600101828154811061112957fe5b6000918252602090912001546001600160a01b03169392505050565b60008161118e33600360006002858154811061115d57fe5b90600052602060002090600f0201600001548152602001908152602001600020600201611f9390919063ffffffff16565b60405180606001604052806024815260200161241360249139906111f35760405162461bcd60e51b815260206004820181815283516024840152835190928392604490910191908501908083836000831561093757818101518382015260200161091f565b508260006002828154811061120457fe5b90600052602060002090600f0201905080600a01546000141560405180604001604052806013815260200172151c98591948191bd95cdb89dd08195e1a5cdd606a1b815250906112955760405162461bcd60e51b815260206004820181815283516024840152835190928392604490910191908501908083836000831561093757818101518382015260200161091f565b50600c8101546040805180820190915260148152730a8e4c2c8ca40c2d8e4cac2c8f240ccd2dcd2e6d60631b602082015290156113135760405162461bcd60e51b815260206004820181815283516024840152835190928392604490910191908501908083836000831561093757818101518382015260200161091f565b506000600982015460ff16600481111561132957fe5b14801561134f57508054600090815260036020526040902060010154600a820154439101105b1561135d5761135d8261104a565b6001600982015460ff16600481111561137257fe5b14801561139557508054600090815260036020526040902054600b820154439101105b156113a3576113a3826110c5565b84600180600283815481106113b457fe5b600091825260209091206009600f90920201015460ff1660048111156113d657fe5b146040518060600160405280602281526020016123ac602291399061143c5760405162461bcd60e51b815260206004820181815283516024840152835190928392604490910191908501908083836000831561093757818101518382015260200161091f565b5060006002888154811061144c57fe5b90600052602060002090600f020190506114723382600501610fd090919063ffffffff16565b6040518060600160405280602381526020016123ce60239139906114d75760405162461bcd60e51b815260206004820181815283516024840152835190928392604490910191908501908083836000831561093757818101518382015260200161091f565b50604051339089907f32ca8f737abc610300808e342bb2e650f1d1cb7a8154d1a07dc02abd5c768b9e90600090a3805460009081526003602052604090206004015461152560058301610fc9565b1061156b5743600b82015560098101805460ff1916600217905560405188907f3d2d158c34b8257ce6aafd794d6e530674d8799a530e8b6e69b88aa77368f58290600090a25b50600195506002915061157b9050565b600982015460ff16600481111561158e57fe5b141561159d5761159d8261104a565b505050919050565b6000816115bd33600360006002858154811061115d57fe5b60405180606001604052806024815260200161241360249139906116225760405162461bcd60e51b815260206004820181815283516024840152835190928392604490910191908501908083836000831561093757818101518382015260200161091f565b508260006002828154811061163357fe5b90600052602060002090600f0201905080600a01546000141560405180604001604052806013815260200172151c98591948191bd95cdb89dd08195e1a5cdd606a1b815250906116c45760405162461bcd60e51b815260206004820181815283516024840152835190928392604490910191908501908083836000831561093757818101518382015260200161091f565b50600c8101546040805180820190915260148152730a8e4c2c8ca40c2d8e4cac2c8f240ccd2dcd2e6d60631b602082015290156117425760405162461bcd60e51b815260206004820181815283516024840152835190928392604490910191908501908083836000831561093757818101518382015260200161091f565b506000600982015460ff16600481111561175857fe5b14801561177e57508054600090815260036020526040902060010154600a820154439101105b1561178c5761178c8261104a565b6001600982015460ff1660048111156117a157fe5b1480156117c457508054600090815260036020526040902054600b820154439101105b156117d2576117d2826110c5565b84600080600283815481106117e357fe5b600091825260209091206009600f90920201015460ff16600481111561180557fe5b146040518060600160405280602281526020016123ac602291399061186b5760405162461bcd60e51b815260206004820181815283516024840152835190928392604490910191908501908083836000831561093757818101518382015260200161091f565b5060006002888154811061187b57fe5b90600052602060002090600f020190506118a13382600701610fd090919063ffffffff16565b6040518060600160405280602381526020016123ce60239139906119065760405162461bcd60e51b815260206004820181815283516024840152835190928392604490910191908501908083836000831561093757818101518382015260200161091f565b50604051339089907f0d291e954d312d910375b4fe87ee3727a2ff8f40086d3cf02aea7caeb813b2ac90600090a3805460009081526003602052604090206004015461195460078301610fc9565b1061156b5743600b82015560098101805460ff1916600117905560405188907f4068f884306033ded5e133201660034656370d5cf3e4d672f3ec90b1af00983f90600090a250600195506002915061157b9050565b60008181526020819052604081205460ff16156119c557600080fd5b600082815260208190526040808220805460ff191660011790555183917fff8bad61d8f2eaa50a98cc8d31de285608e5a904d330f193043d6c9854e2586d91a25090565b604080517f19457468657265756d205369676e6564204d6573736167653a0a333200000000602080830191909152603c8083019490945282518083039094018452605c909101909152815191012090565b60008151604114611a6d57506000611044565b60208201516040830151606084015160001a7f7fffffffffffffffffffffffffffffff5d576e7357a4501ddfe92f46681b20a0821115611ab35760009350505050611044565b8060ff16601b14158015611acb57508060ff16601c14155b15611adc5760009350505050611044565b6040805160008152602080820180845289905260ff8416828401526060820186905260808201859052915160019260a0808401939192601f1981019281900390910190855afa158015611b33573d6000803e3d6000fd5b5050604051601f190151979650505050505050565b600080600060028581548110611b5a57fe5b90600052602060002090600f020190508380602001905160a0811015611b7f57600080fd5b815160208301516040840151606085015160808601805194969395929491939283019291600160201b811115611bb457600080fd5b82016020810184811115611bc757600080fd5b8151600160201b811182820187101715611be057600080fd5b50508051909350889250600091506001830190829060048501908290611c0f90600d88019060208a01906121fc565b50879c5088919050558791905055869190505550505050504382116040518060600160405280602281526020016123f16022913990611c8f5760405162461bcd60e51b815260206004820181815283516024840152835190928392604490910191908501908083836000831561093757818101518382015260200161091f565b5060028101546004820154600154611cbd926001600160a01b0391821692911690309063ffffffff611fb216565b506001949350505050565b600080600080848060200190516080811015611ce357600080fd5b8151602083015160408401516060850180519395929491939183019291600160201b811115611d1157600080fd5b82016020810184811115611d2457600080fd5b8151600160201b811182820187101715611d3d57600080fd5b50506002805491945092508c91508110611d5357fe5b90600052602060002090600f0201600e016000829190509080519060200190611d7d9291906121fc565b50819650829450839550505050504383116040518060600160405280602281526020016123f16022913990611df35760405162461bcd60e51b815260206004820181815283516024840152835190928392604490910191908501908083836000831561093757818101518382015260200161091f565b508160028781548110611e0257fe5b90600052602060002090600f020160000154148015611e3e57508060028781548110611e2a57fe5b90600052602060002090600f020160010154145b6040518060600160405280602381526020016124376023913990611ea35760405162461bcd60e51b815260206004820181815283516024840152835190928392604490910191908501908083836000831561093757818101518382015260200161091f565b5060019695505050505050565b604080516001600160a01b038416602482015260448082018490528251808303909101815260649091019091526020810180516001600160e01b031663a9059cbb60e01b179052611f02908490612012565b505050565b4360028281548110611f1557fe5b90600052602060002090600f0201600c0181905550600460028281548110611f3957fe5b600091825260209091206009600f9092020101805460ff19166001836004811115611f6057fe5b021790555060405181907fa8816d60783926d64c61f723a3cf7753f733302a70b3cd3d0a845fae7c8dd7ef90600090a250565b6001600160a01b03166000908152602091909152604090205460ff1690565b604080516001600160a01b0385811660248301528416604482015260648082018490528251808303909101815260849091019091526020810180516001600160e01b03166323b872dd60e01b17905261200c908590612012565b50505050565b612024826001600160a01b03166121ca565b612075576040805162461bcd60e51b815260206004820152601f60248201527f5361666545524332303a2063616c6c20746f206e6f6e2d636f6e747261637400604482015290519081900360640190fd5b60006060836001600160a01b0316836040518082805190602001908083835b602083106120b35780518252601f199092019160209182019101612094565b6001836020036101000a0380198251168184511680821785525050505050509050019150506000604051808303816000865af19150503d8060008114612115576040519150601f19603f3d011682016040523d82523d6000602084013e61211a565b606091505b509150915081612171576040805162461bcd60e51b815260206004820181905260248201527f5361666545524332303a206c6f772d6c6576656c2063616c6c206661696c6564604482015290519081900360640190fd5b80511561200c5780806020019051602081101561218d57600080fd5b505161200c5760405162461bcd60e51b815260040180806020018281038252602a81526020018061245a602a913960400191505060405180910390fd5b3b151590565b815481835581811115611f0257600f0281600f028360005260206000209182019101611f02919061227a565b828054600181600116156101000203166002900490600052602060002090601f016020900481019282601f1061223d57805160ff191683800117855561226a565b8280016001018555821561226a579182015b8281111561226a57825182559160200191906001019061224f565b5061227692915061232f565b5090565b61232c91905b80821115612276576000808255600182018190556002820180546001600160a01b031990811690915560038301805490911690556004820181905560058201816122cd6006850182612349565b50506007820160006122e26008850182612349565b505060098201805460ff191690556000600a8301819055600b8301819055600c830181905561231590600d840190612367565b612323600e83016000612367565b50600f01612280565b90565b61232c91905b808211156122765760008155600101612335565b50805460008255906000526020600020908101906110c2919061232f565b50805460018160011615610100020316600290046000825580601f1061238d57506110c2565b601f0160209004906000526020600020908101906110c2919061232f56fe43616c6c206d6574686f6420696e20696e76616c69642074726164652073746174654f7261636c652063616e20766f746520666f72207472616465206f6e6c79206f6e63654f72646572206d65737361676520646561646c696e6520776173207265616368656454686973206d6574686f6420697320666f72207472616465206f7261636c65206f6e6c794f72646572206d65737361676573206d69736d61746368656420627920706172616d735361666545524332303a204552433230206f7065726174696f6e20646964206e6f742073756363656564a265627a7a723058204164d9c2cc89b098a10fa9bf49a1580ed7baf3972652e6d8d36189e6605fc8d364736f6c634300050a0032",
  "source": "/**\n * @title Exchange smart contract.\n */\n\npragma solidity >= 0.5.0;\n\nimport 'openzeppelin-solidity/contracts/cryptography/ECDSA.sol';\nimport 'openzeppelin-solidity/contracts/token/ERC20/ERC20.sol';\nimport 'openzeppelin-solidity/contracts/token/ERC20/SafeERC20.sol';\n\nimport './interface/IExchange.sol';\nimport './interface/IOracle.sol';\nimport './misc/SingletonHash.sol';\nimport './misc/Set.sol';\n\ncontract Exchange is IExchange, SingletonHash {\n    constructor(ERC20 _collateral) public {\n        token = _collateral;\n    }\n\n    string constant private ERROR_TRADE_DOESNT_EXIT = \"Trade doesn't exist\";\n    string constant private ERROR_TRADE_ALREADY_FINISH = \"Trade already finish\";\n    string constant private ERROR_ORACLE_ONLY = \"This method is for trade oracle only\";\n    string constant private ERROR_INVALID_STATE = \"Call method in invalid trade state\";\n    string constant private ERROR_DOUBLE_VOTE = \"Oracle can vote for trade only once\"; \n    string constant private ERROR_DEADLINE_REACHED = \"Order message deadline was reached\";\n    string constant private ERROR_ORDER_MISMATCHED = \"Order messages mismatched by params\";\n\n    using SafeERC20 for ERC20;\n    using ECDSA for bytes32;\n    using Set for Set.Address;\n\n    ERC20 public token;\n    Trade[] private trades;\n    mapping(bytes32 => Market) private markets;\n\n    modifier oracleOnly(uint256 _id) {\n        require(markets[trades[_id].market].oracles.contains(msg.sender), ERROR_ORACLE_ONLY);\n        _;\n    }\n\n    modifier stateOnly(uint256 _id, TradeState _state) {\n        require(trades[_id].state == _state, ERROR_INVALID_STATE);\n        _;\n    }\n\n    modifier timedTransaction(uint256 _id) {\n        Trade storage trade = trades[_id];\n\n        // Start/finish checks\n        require(trade.startBlock != 0, ERROR_TRADE_DOESNT_EXIT);\n        require(trade.finishBlock == 0, ERROR_TRADE_ALREADY_FINISH);\n\n        // Check for taker timeout\n        if (trade.state == TradeState.Start\n            && trade.startBlock + markets[trade.market].takerTimeout < block.number)\n            _release(_id);\n\n        // Check for maker timeout\n        if (trade.state == TradeState.Partial\n            && trade.partialBlock + markets[trade.market].makerTimeout < block.number)\n                _penalty(_id);\n\n        _;\n\n        // Make release when needed\n        if (trade.state == TradeState.Release)\n            _release(_id);\n    }\n\n    function getTrade(\n        uint256 _id\n    ) external view returns (\n        bytes32 market,\n        bytes32 deal,\n        address maker,\n        address taker,\n        uint256 collateral,\n        uint256 makerTransferConfirmations,\n        uint256 takerTransferConfirmations,\n        uint256 startBlock,\n        uint256 partialBlock,\n        uint256 finishBlock,\n        bytes memory makerExtra,\n        bytes memory takerExtra\n    ) {\n        Trade storage trade = trades[_id];\n        market = trade.market;\n        deal = trade.deal;\n        maker = trade.maker;\n        taker = trade.taker;\n        collateral = trade.collateral;\n        makerTransferConfirmations = trade.makerTransferConfirmations.size();\n        takerTransferConfirmations = trade.takerTransferConfirmations.size();\n        startBlock = trade.startBlock;\n        partialBlock = trade.partialBlock;\n        finishBlock = trade.finishBlock;\n        makerExtra = trade.makerExtra;\n        takerExtra = trade.takerExtra;\n    }\n\n    function getMarket(\n        bytes32 _id\n    ) external view returns (\n        uint256 makerTimeout,\n        uint256 takerTimeout,\n        address[] memory oracles,\n        uint256 minimalConfirmations\n    ) {\n        Market storage market = markets[_id];\n\n        makerTimeout = market.makerTimeout;\n        takerTimeout = market.takerTimeout;\n        minimalConfirmations = market.minimalConfirmations;\n\n        oracles = new address[](market.oracles.size());\n        for (uint256 i = 0; i < market.oracles.size(); ++i)\n            oracles[i] = market.oracles.at(i);\n    }\n\n    function newMarket(\n        uint256 _makerTimeout,\n        uint256 _takerTimeout,\n        address[] calldata _oracles,\n        uint256 _minimalConfirmations\n    ) external returns (\n        bytes32 id \n    ) {\n        id = keccak256(abi.encode(\n            _makerTimeout\n          , _takerTimeout\n          , _oracles\n          , _minimalConfirmations\n        ));\n\n        Market storage market = markets[id];\n        market.makerTimeout = _makerTimeout;\n        market.takerTimeout = _takerTimeout;\n        market.minimalConfirmations = _minimalConfirmations;\n\n        for (uint256 i = 0; i < _oracles.length; ++i)\n            market.oracles.insert(_oracles[i]);\n\n        emit NewMarket(id);\n    }\n\n    function startTrade(\n        bytes calldata _makerOrder,\n        bytes calldata _makerSignature,\n        bytes calldata _takerOrder,\n        bytes calldata _takerSignature\n    ) external returns (\n        uint256 id\n    ) {\n        // Start new trade\n        id = trades.length++;\n        Trade storage trade = trades[id];\n\n        // Recover trader addresses\n        bytes32 makerOrderHash = keccak256(_makerOrder);\n        singleton(makerOrderHash);\n        trade.maker = makerOrderHash\n            .toEthSignedMessageHash()\n            .recover(_makerSignature);\n\n        bytes32 takerOrderHash = keccak256(_takerOrder);\n        singleton(takerOrderHash);\n        trade.taker = takerOrderHash\n            .toEthSignedMessageHash()\n            .recover(_takerSignature);\n\n        // Open order at current block\n        trade.startBlock = block.number;\n        trade.state = TradeState.Start;\n\n        // Process orders\n        require(_processMakerOrder(id, _makerOrder));\n        require(_processTakerOrder(id, _takerOrder));\n\n        // Notify oracles to start transfer checking\n        Set.Address storage oracles = markets[trade.market].oracles;\n        require(oracles.size() > 0);\n        for (uint256 i = 0; i < oracles.size(); ++i)\n            require(IOracle(oracles.at(i)).checkTrade(address(this), id));\n\n        emit TradeStart(id);\n    }\n\n    function confirmTransfer(\n        uint256[] calldata _makers,\n        uint256[] calldata _takers\n    ) external returns (\n        bool success\n    ) {\n        for (uint256 i = 0; i < _makers.length; ++i)\n            _confirmMakerTransfer(_makers[i]);\n        for (uint256 i = 0; i < _takers.length; ++i)\n            _confirmTakerTransfer(_takers[i]);\n    }\n\n    function finishTrade(\n        uint256 _id\n    ) external\n      timedTransaction(_id)\n      stateOnly(_id, TradeState.Finish)\n      returns (\n        bool success\n    ) {\n        success = true;\n    }\n\n    function _confirmTakerTransfer(\n        uint256 _id\n    ) internal \n      oracleOnly(_id)\n      timedTransaction(_id)\n      stateOnly(_id, TradeState.Start)\n      returns (\n        bool success\n    ) {\n        Trade storage trade = trades[_id];\n        require(trade.takerTransferConfirmations.insert(msg.sender), ERROR_DOUBLE_VOTE);\n        emit TakerTransferConfirmation(_id, msg.sender);\n\n        if (trade.takerTransferConfirmations.size() >= markets[trade.market].minimalConfirmations) {\n            trade.partialBlock = block.number;\n            trade.state = TradeState.Partial;\n            emit TakerTransferConfirmed(_id);\n        }\n\n        success = true;\n    }\n\n    function _confirmMakerTransfer(\n        uint256 _id\n    ) internal \n      oracleOnly(_id)\n      timedTransaction(_id)\n      stateOnly(_id, TradeState.Partial)\n      returns (\n        bool success\n    ) {\n        Trade storage trade = trades[_id];\n        require(trade.makerTransferConfirmations.insert(msg.sender), ERROR_DOUBLE_VOTE);\n        emit MakerTransferConfirmation(_id, msg.sender);\n\n        if (trade.makerTransferConfirmations.size() >= markets[trade.market].minimalConfirmations) {\n            trade.partialBlock = block.number;\n            trade.state = TradeState.Release;\n            emit MakerTransferConfirmed(_id);\n        }\n\n        success = true;\n    }\n\n\n    function _penalty(\n        uint256 _id\n    ) internal {\n        token.safeTransfer(trades[_id].taker, trades[_id].collateral);\n        _finish(_id);\n    }\n\n    function _release(\n        uint256 _id\n    ) internal {\n        token.safeTransfer(trades[_id].maker, trades[_id].collateral);\n        _finish(_id);\n    }\n\n    function _finish(\n        uint256 _id\n    ) internal {\n        trades[_id].finishBlock = block.number;\n        trades[_id].state = TradeState.Finish;\n        emit TradeFinish(_id);\n    }\n\n    function _processMakerOrder(\n        uint256 _id,\n        bytes memory _order\n    ) internal returns (\n        bool success\n    ) {\n        uint256 deadline;\n        Trade storage trade = trades[_id];\n\n        (trade.market,\n         trade.deal,\n         trade.collateral,\n         deadline,\n         trade.makerExtra)\n            = abi.decode(_order, (bytes32, bytes32, uint256, uint256, bytes));\n\n        // Order deadline check\n        require(deadline > block.number, ERROR_DEADLINE_REACHED);\n\n        // Collateral transfer\n        token.safeTransferFrom(trade.maker, address(this), trade.collateral);\n\n        success = true;\n    }\n\n    function _processTakerOrder(\n        uint256 _id,\n        bytes memory _order\n    ) internal returns (\n        bool success\n    ) {\n        uint256 deadline;\n        bytes32 market;\n        bytes32 deal;\n\n        (market,\n         deal,\n         deadline,\n         trades[_id].takerExtra)\n            = abi.decode(_order, (bytes32, bytes32, uint256, bytes));\n\n        // Order deadline check\n        require(deadline > block.number, ERROR_DEADLINE_REACHED);\n\n        // Check for market & deal\n        require(trades[_id].market == market && trades[_id].deal == deal, ERROR_ORDER_MISMATCHED);\n\n        success = true;\n    }\n}\n",
  "sourcePath": "/home/akru/devel/enon-dex/contracts/Exchange.sol",
  "compiler": {
    "name": "solc",
    "version": "0.5.10+commit.5a6ea5b1.Emscripten.clang"
  },
  "schemaVersion": "3.0.11",
  "updatedAt": "2019-07-15T13:21:53.240Z",
  "devdoc": {
    "methods": {}
  },
  "userdoc": {
    "methods": {}
  }
}