{
  "contractName": "OraclizeOracle",
  "abi": [
    {
      "constant": true,
      "inputs": [],
      "name": "dex",
      "outputs": [
        {
          "name": "",
          "type": "address"
        }
      ],
      "payable": false,
      "stateMutability": "view",
      "type": "function",
      "signature": "0x692058c2"
    },
    {
      "constant": true,
      "inputs": [
        {
          "name": "",
          "type": "bytes32"
        }
      ],
      "name": "tradeOf",
      "outputs": [
        {
          "name": "",
          "type": "uint256"
        }
      ],
      "payable": false,
      "stateMutability": "view",
      "type": "function",
      "signature": "0xef53d2c0"
    },
    {
      "inputs": [
        {
          "name": "_dex",
          "type": "address"
        }
      ],
      "payable": false,
      "stateMutability": "nonpayable",
      "type": "constructor",
      "signature": "constructor"
    },
    {
      "payable": true,
      "stateMutability": "payable",
      "type": "fallback"
    },
    {
      "constant": false,
      "inputs": [
        {
          "name": "myid",
          "type": "bytes32"
        },
        {
          "name": "result",
          "type": "string"
        }
      ],
      "name": "__callback",
      "outputs": [],
      "payable": false,
      "stateMutability": "nonpayable",
      "type": "function",
      "signature": "0x27dc297e"
    },
    {
      "constant": false,
      "inputs": [
        {
          "name": "_myid",
          "type": "bytes32"
        },
        {
          "name": "_result",
          "type": "string"
        },
        {
          "name": "_proof",
          "type": "bytes"
        }
      ],
      "name": "__callback",
      "outputs": [],
      "payable": false,
      "stateMutability": "nonpayable",
      "type": "function",
      "signature": "0x38bbfa50"
    },
    {
      "constant": false,
      "inputs": [
        {
          "name": "_dex",
          "type": "address"
        },
        {
          "name": "_id",
          "type": "uint256"
        }
      ],
      "name": "checkTrade",
      "outputs": [
        {
          "name": "success",
          "type": "bool"
        }
      ],
      "payable": false,
      "stateMutability": "nonpayable",
      "type": "function",
      "signature": "0x81145d5c"
    }
  ],
  "bytecode": "0x608060405234801561001057600080fd5b506040516020806117ed8339810180604052602081101561003057600080fd5b505160068054600160a060020a031916600160a060020a0390921691909117905561178d806100606000396000f3fe60806040526004361061004d5760e060020a600035046327dc297e811461004f57806338bbfa5014610108578063692058c21461024757806381145d5c14610278578063ef53d2c0146102c5575b005b34801561005b57600080fd5b5061004d6004803603604081101561007257600080fd5b8135919081019060408101602082013564010000000081111561009457600080fd5b8201836020820111156100a657600080fd5b803590602001918460018302840111640100000000831117156100c857600080fd5b91908080601f0160208091040260200160405190810160405281815292919060208401838380828437600092019190915250929550610301945050505050565b34801561011457600080fd5b5061004d6004803603606081101561012b57600080fd5b8135919081019060408101602082013564010000000081111561014d57600080fd5b82018360208201111561015f57600080fd5b8035906020019184600183028401116401000000008311171561018157600080fd5b91908080601f016020809104026020016040519081016040528181529291906020840183838082843760009201919091525092959493602081019350359150506401000000008111156101d357600080fd5b8201836020820111156101e557600080fd5b8035906020019184600183028401116401000000008311171561020757600080fd5b91908080601f016020809104026020016040519081016040528181529291906020840183838082843760009201919091525092955061046d945050505050565b34801561025357600080fd5b5061025c610472565b604051600160a060020a03909116815260200160405180910390f35b34801561028457600080fd5b506102b16004803603604081101561029b57600080fd5b50600160a060020a038135169060200135610481565b604051901515815260200160405180910390f35b3480156102d157600080fd5b506102ef600480360360208110156102e857600080fd5b50356104b2565b60405190815260200160405180910390f35b6103096104c6565b600160a060020a0316331461031d57600080fd5b6000828152600560205260408120549050600061033983610699565b905060008160011611156103c557600654600160a060020a031663b29531a88360405160e060020a63ffffffff84160281526004810191909152602401602060405180830381600087803b15801561039057600080fd5b505af11580156103a4573d6000803e3d6000fd5b505050506040513d60208110156103ba57600080fd5b810190808051505050505b600081600216111561044f57600654600160a060020a03166318671b0d8360405160e060020a63ffffffff84160281526004810191909152602401602060405180830381600087803b15801561041a57600080fd5b505af115801561042e573d6000803e3d6000fd5b505050506040513d602081101561044457600080fd5b810190808051505050505b6000816004161115610467576104678261012c6106ae565b50505050565b505050565b600654600160a060020a031681565b600654600090600160a060020a0384811691161461049e57600080fd5b6104a98260006106ae565b50600192915050565b600560205280600052604060002054905081565b600154600090600160a060020a031615806104f357506001546104f190600160a060020a0316610759565b155b1561050457610502600061075d565b505b600154600160a060020a03166338cc48316040518163ffffffff1660e060020a028152600401602060405180830381600087803b15801561054457600080fd5b505af1158015610558573d6000803e3d6000fd5b505050506040513d602081101561056e57600080fd5b810190808051600054600160a060020a03908116911614925061062291505057600154600160a060020a03166338cc48316040518163ffffffff1660e060020a028152600401602060405180830381600087803b1580156105ce57600080fd5b505af11580156105e2573d6000803e3d6000fd5b505050506040513d60208110156105f857600080fd5b81019080805160008054600160a060020a031916600160a060020a03929092169190911790555050505b600054600160a060020a031663c281d19e6040518163ffffffff1660e060020a02815260040160206040518083038186803b15801561066057600080fd5b505afa158015610674573d6000803e3d6000fd5b505050506040513d602081101561068a57600080fd5b81019080805193505050505b90565b60006106a6826000610767565b90505b919050565b6000610740826040805190810160405280600b81526020017f636f6d7075746174696f6e0000000000000000000000000000000000000000008152506060604051908101604052806060604051908101604052602e8082526117346020830139815260065460209091019061072b90600160a060020a031661088b565b815260200161073988610938565b9052610a34565b6000818152600560205290915083906040902055505050565b3b90565b60006106a6610c35565b6000828180805b835181101561086d57603084828151811061078557fe5b016020015160f860020a900460f860020a0260f860020a900460ff16101580156107d7575060398482815181106107b857fe5b016020015160f860020a900460f860020a0260f860020a900460ff1611155b156108305781156107f6578515156107ee5761086d565b600019909501945b600a83029250603084828151811061080a57fe5b016020015160f860020a900460f860020a0260f860020a900460ff160383019250610865565b83818151811061083c57fe5b016020015160f860020a900460f860020a0260f860020a900460ff16602e141561086557600191505b60010161076e565b5060008511156108805784600a0a820291505b509150505b92915050565b6060806014604051818152601f19601f83011681016020016040529080156108ba576020820181803883390190505b50905060005b6014811015610931578060130360080260020a84600160a060020a03168115156108e657fe5b0460f860020a028282815181106108f957fe5b9060200101907effffffffffffffffffffffffffffffffffffffffffffffffffffffffffffff1916908160001a9053506001016108c0565b5092915050565b606081151561097c5760408051908101604052600181527f3000000000000000000000000000000000000000000000000000000000000000602082015290506106a9565b8160005b811561099457600101600a82049150610980565b606081604051818152601f19601f83011681016020016040529080156109c1576020820181803883390190505b50905060001982015b8515610a2b5760001981019060f860020a6030600a89060102908390815181106109f057fe5b9060200101907effffffffffffffffffffffffffffffffffffffffffffffffffffffffffffff1916908160001a905350600a860495506109ca565b50949350505050565b600154600090600160a060020a03161580610a615750600154610a5f90600160a060020a0316610759565b155b15610a7257610a70600061075d565b505b600154600160a060020a03166338cc48316040518163ffffffff1660e060020a028152600401602060405180830381600087803b158015610ab257600080fd5b505af1158015610ac6573d6000803e3d6000fd5b505050506040513d6020811015610adc57600080fd5b810190808051600054600160a060020a039081169116149250610b9091505057600154600160a060020a03166338cc48316040518163ffffffff1660e060020a028152600401602060405180830381600087803b158015610b3c57600080fd5b505af1158015610b50573d6000803e3d6000fd5b505050506040513d6020811015610b6657600080fd5b81019080805160008054600160a060020a031916600160a060020a03929092169190911790555050505b60606003604051908082528060200260200182016040528015610bc757816020015b6060815260200190600190039081610bb25790505b509050825181600081518110610bd957fe5b60209081029091010152826001602002015181600181518110610bf857fe5b6020908102919091010152604083015181600281518110610c1557fe5b60209081029091010152610c2a858583610f53565b9150505b9392505050565b600080610c55731d3b2638a7cc9f2cb3d298a3da7a90b67e5506ed610759565b1115610cc55760018054600160a060020a031916731d3b2638a7cc9f2cb3d298a3da7a90b67e5506ed179055610cbd60408051908101604052600b81527f6574685f6d61696e6e6574000000000000000000000000000000000000000000602082015261131e565b506001610696565b6000610ce473c03a2615d5efaf5f49f60b7bb6583eaec212fdf1610759565b1115610d4c5760018054600160a060020a03191673c03a2615d5efaf5f49f60b7bb6583eaec212fdf1179055610cbd60408051908101604052600c81527f6574685f726f707374656e330000000000000000000000000000000000000000602082015261131e565b6000610d6b73b7a07bcf2ba2f2703b24c0691b5278999c59ac7e610759565b1115610dd35760018054600160a060020a03191673b7a07bcf2ba2f2703b24c0691b5278999c59ac7e179055610cbd60408051908101604052600981527f6574685f6b6f76616e0000000000000000000000000000000000000000000000602082015261131e565b6000610df273146500cfd35b22e4a392fe0adc06de1a1368ed48610759565b1115610e5a5760018054600160a060020a03191673146500cfd35b22e4a392fe0adc06de1a1368ed48179055610cbd60408051908101604052600b81527f6574685f72696e6b656279000000000000000000000000000000000000000000602082015261131e565b6000610e79736f485c8bf6fc43ea212e93bbf8ce046c7f1cb475610759565b1115610eab575060018054600160a060020a031916736f485c8bf6fc43ea212e93bbf8ce046c7f1cb475178155610696565b6000610eca7320e12a1f859b3feae5fb2a0a32c18f5a65555bbf610759565b1115610efc575060018054600160a060020a0319167320e12a1f859b3feae5fb2a0a32c18f5a65555bbf178155610696565b6000610f1b7351efaf4c8b3c9afbd5ab9f4bbc82784ab6ef8faa610759565b1115610f4d575060018054600160a060020a0319167351efaf4c8b3c9afbd5ab9f4bbc82784ab6ef8faa178155610696565b50600090565b600154600090600160a060020a03161580610f805750600154610f7e90600160a060020a0316610759565b155b15610f9157610f8f600061075d565b505b600154600160a060020a03166338cc48316040518163ffffffff1660e060020a028152600401602060405180830381600087803b158015610fd157600080fd5b505af1158015610fe5573d6000803e3d6000fd5b505050506040513d6020811015610ffb57600080fd5b810190808051600054600160a060020a0390811691161492506110af91505057600154600160a060020a03166338cc48316040518163ffffffff1660e060020a028152600401602060405180830381600087803b15801561105b57600080fd5b505af115801561106f573d6000803e3d6000fd5b505050506040513d602081101561108557600080fd5b81019080805160008054600160a060020a031916600160a060020a03929092169190911790555050505b60008054600160a060020a031663524f3889856040518263ffffffff1660e060020a0281526004018080602001828103825283818151815260200191508051906020019080838360005b838110156111115780820151838201526020016110f9565b50505050905090810190601f16801561113e5780820380516001836020036101000a031916815260200191505b5092505050602060405180830381600087803b15801561115d57600080fd5b505af1158015611171573d6000803e3d6000fd5b505050506040513d602081101561118757600080fd5b8101908080519350505050670de0b6b3a764000062030d403a02018111156111b3575060009050610c2e565b60606111be84611335565b600054909150600160a060020a03166383eed3d5838888856040518563ffffffff1660e060020a028152600401808481526020018060200180602001838103835285818151815260200191508051906020019080838360005b8381101561122f578082015183820152602001611217565b50505050905090810190601f16801561125c5780820380516001836020036101000a031916815260200191505b50838103825284818151815260200191508051906020019080838360005b8381101561129257808201518382015260200161127a565b50505050905090810190601f1680156112bf5780820380516001836020036101000a031916815260200191505b50955050505050506020604051808303818588803b1580156112e057600080fd5b505af11580156112f4573d6000803e3d6000fd5b50505050506040513d602081101561130b57600080fd5b8101908080519998505050505050505050565b6002818051611331929160200190611683565b5050565b606061133f6113a9565b611347611701565b611353816104006113b5565b61135c816113e3565b60005b83518110156113965761138e84828151811061137757fe5b90602001906020020151839063ffffffff6113f116565b60010161135f565b506113a08161140e565b80519392505050565b60405180590338823950565b8060208106156113c85760208106602003015b60208301819052604051928390526000835290910160405250565b6113ee816004611415565b50565b6113fe826003835161142e565b61046d828263ffffffff61152c16565b6113ee8160075b61133182601f602060ff8516021763ffffffff6115c516565b6017811161144f5761144a8360ff8481166020021683176115c5565b61046d565b60ff811161148857611470836018602060ff8616021763ffffffff6115c516565b6114828382600163ffffffff6115fe16565b5061046d565b61ffff81116114bc576114aa836019602060ff8616021763ffffffff6115c516565b6114828382600263ffffffff6115fe16565b63ffffffff81116114f2576114e083601a602060ff8616021763ffffffff6115c516565b6114828382600463ffffffff6115fe16565b67ffffffffffffffff811161046d5761151a83601b602060ff8616021763ffffffff6115c516565b6104678382600863ffffffff6115fe16565b611534611701565b82602001518351518351011115611560576115608361155885602001518551611652565b600202611669565b60008060008451905085518051602081830101945086510190526020850191505b602081106115a157815183526020928301929190910190601f1901611581565b60001960208290036101000a01801983511681855116179093525093949350505050565b816020015182515160010111156115e7576115e7828360200151600202611669565b815180516020818301018381535060010190525050565b611606611701565b8360200151845151830111156116285761162884611558866020015185611652565b60001961010083900a01845180518481830101868419825116179052909301909252509192915050565b600081831115611663575081610885565b50919050565b60608251905061167983836113b5565b610467838261152c565b828054600181600116156101000203166002900490600052602060002090601f016020900481019282601f106116c457805160ff19168380011785556116f1565b828001600101855582156116f1579182015b828111156116f15782518255916020019190600101906116d6565b506116fd929150611719565b5090565b60408051908101604052606081526000602082015290565b61069691905b808211156116fd576000815560010161171f56fe516d554852664662767a364d336d3457326d6d64586a45626e326f673558366768504d456b4d636a51525a37426ea165627a7a7230582088ebe8c7a441a8663da024e0e22a3154a0e3e704db94cb37414186795de1db880029",
  "source": "/*\n    Oraclize based oracle contract.\n*/\n\npragma solidity >= 0.5.0;\n\nimport '../misc/oraclizeAPI.sol';\nimport '../interface/IExchange.sol';\nimport '../interface/IOracle.sol';\n\ncontract OraclizeOracle is IOracle, usingOraclize {\n    mapping(bytes32 => uint256) public tradeOf;\n    IExchange public dex;\n\n    constructor(IExchange _dex) public {\n        dex = _dex;\n    }\n\n    function __callback(bytes32 myid, string memory result) public {\n        if (msg.sender != oraclize_cbAddress()) revert();\n\n        uint256 id = tradeOf[myid];\n        uint256 retCode = parseInt(result);\n\n        if (retCode & 1 > 0)\n            dex.confirmTakerTransfer(id);\n        if (retCode & 2 > 0)\n            dex.confirmMakerTransfer(id);\n        if (retCode & 4 > 0)\n            _checkTrade(id, 300);\n    }\n\n    function checkTrade(address _dex, uint256 _id) external returns(bool success) {\n        require(_dex == address(dex));\n        _checkTrade(_id, 0);\n        success = true;\n    }\n\n    function() external payable {}\n\n    function _checkTrade(uint256 _id, uint256 _wait) internal {\n        bytes32 qid = oraclize_query(_wait, \"computation\", [\n            \"QmUHRfFbvz6M3m4W2mmdXjEbn2og5X6ghPMEkMcjQRZ7Bn\",\n            toString(address(dex)),\n            uint2str(_id)\n        ]);\n        tradeOf[qid] = _id;\n    }\n\n    function toString(address x) internal returns (string memory) {\n        bytes memory b = new bytes(20);\n        for (uint i = 0; i < 20; i++)\n            b[i] = byte(uint8(uint(x) / (2**(8*(19 - i)))));\n        return string(b);\n    }\n}\n",
  "sourcePath": "/home/akru/devel/cdex/contracts/oracles/OraclizeOracle.sol",
  "compiler": {
    "name": "solc",
    "version": "0.5.4+commit.9549d8ff.Emscripten.clang"
  },
  "schemaVersion": "3.0.2",
  "updatedAt": "2019-02-22T14:03:22.260Z",
  "devdoc": {
    "methods": {}
  },
  "userdoc": {
    "methods": {}
  }
}