{
  "contractName": "OraclizeOracle",
  "abi": [
    {
      "constant": true,
      "inputs": [],
      "name": "dex",
      "outputs": [
        {
          "name": "",
          "type": "address"
        }
      ],
      "payable": false,
      "stateMutability": "view",
      "type": "function"
    },
    {
      "constant": true,
      "inputs": [],
      "name": "oracleComputation",
      "outputs": [
        {
          "name": "",
          "type": "string"
        }
      ],
      "payable": false,
      "stateMutability": "view",
      "type": "function"
    },
    {
      "constant": true,
      "inputs": [
        {
          "name": "",
          "type": "bytes32"
        }
      ],
      "name": "tradeOf",
      "outputs": [
        {
          "name": "",
          "type": "uint256"
        }
      ],
      "payable": false,
      "stateMutability": "view",
      "type": "function"
    },
    {
      "inputs": [
        {
          "name": "_dex",
          "type": "address"
        }
      ],
      "payable": false,
      "stateMutability": "nonpayable",
      "type": "constructor"
    },
    {
      "payable": true,
      "stateMutability": "payable",
      "type": "fallback"
    },
    {
      "anonymous": false,
      "inputs": [
        {
          "indexed": true,
          "name": "qid",
          "type": "bytes32"
        }
      ],
      "name": "OraclizeQuery",
      "type": "event"
    },
    {
      "constant": false,
      "inputs": [
        {
          "name": "myid",
          "type": "bytes32"
        },
        {
          "name": "result",
          "type": "string"
        }
      ],
      "name": "__callback",
      "outputs": [],
      "payable": false,
      "stateMutability": "nonpayable",
      "type": "function"
    },
    {
      "constant": false,
      "inputs": [
        {
          "name": "_myid",
          "type": "bytes32"
        },
        {
          "name": "_result",
          "type": "string"
        },
        {
          "name": "_proof",
          "type": "bytes"
        }
      ],
      "name": "__callback",
      "outputs": [],
      "payable": false,
      "stateMutability": "nonpayable",
      "type": "function"
    },
    {
      "constant": false,
      "inputs": [
        {
          "name": "_dex",
          "type": "address"
        },
        {
          "name": "_id",
          "type": "uint256"
        }
      ],
      "name": "checkTrade",
      "outputs": [
        {
          "name": "success",
          "type": "bool"
        }
      ],
      "payable": false,
      "stateMutability": "nonpayable",
      "type": "function"
    },
    {
      "constant": true,
      "inputs": [
        {
          "name": "_addr",
          "type": "address"
        }
      ],
      "name": "toString",
      "outputs": [
        {
          "name": "",
          "type": "string"
        }
      ],
      "payable": false,
      "stateMutability": "pure",
      "type": "function"
    }
  ],
  "bytecode": "0x608060405234801561001057600080fd5b506040516020806120de8339810180604052602081101561003057600080fd5b505160068054600160a060020a031916600160a060020a0390921691909117905561207e806100606000396000f3fe6080604052600436106100745760003560e060020a90048063692058c211610052578063692058c21461031857806373d146ab1461034957806381145d5c1461035e578063ef53d2c0146103ab57610074565b806327dc297e1461007657806338bbfa501461012f57806356ca623e1461026e575b005b34801561008257600080fd5b506100746004803603604081101561009957600080fd5b813591908101906040810160208201356401000000008111156100bb57600080fd5b8201836020820111156100cd57600080fd5b803590602001918460018302840111640100000000831117156100ef57600080fd5b91908080601f01602080910402602001604051908101604052818152929190602084018383808284376000920191909152509295506103e7945050505050565b34801561013b57600080fd5b506100746004803603606081101561015257600080fd5b8135919081019060408101602082013564010000000081111561017457600080fd5b82018360208201111561018657600080fd5b803590602001918460018302840111640100000000831117156101a857600080fd5b91908080601f016020809104026020016040519081016040528181529291906020840183838082843760009201919091525092959493602081019350359150506401000000008111156101fa57600080fd5b82018360208201111561020c57600080fd5b8035906020019184600183028401116401000000008311171561022e57600080fd5b91908080601f0160208091040260200160405190810160405281815292919060208401838380828437600092019190915250929550610621945050505050565b34801561027a57600080fd5b506102a16004803603602081101561029157600080fd5b5035600160a060020a0316610626565b60405160208082528190810183818151815260200191508051906020019080838360005b838110156102dd5780820151838201526020016102c5565b50505050905090810190601f16801561030a5780820380516001836020036101000a031916815260200191505b509250505060405180910390f35b34801561032457600080fd5b5061032d610827565b604051600160a060020a03909116815260200160405180910390f35b34801561035557600080fd5b506102a1610836565b34801561036a57600080fd5b506103976004803603604081101561038157600080fd5b50600160a060020a038135169060200135610851565b604051901515815260200160405180910390f35b3480156103b757600080fd5b506103d5600480360360208110156103ce57600080fd5b5035610932565b60405190815260200160405180910390f35b6103ef610946565b600160a060020a0316331461040357600080fd5b6000828152600560205260408120549050600061041f83610b19565b905060008160011611156104ab57600654600160a060020a031663b29531a88360405160e060020a63ffffffff84160281526004810191909152602401602060405180830381600087803b15801561047657600080fd5b505af115801561048a573d6000803e3d6000fd5b505050506040513d60208110156104a057600080fd5b810190808051505050505b600081600216111561053557600654600160a060020a03166318671b0d8360405160e060020a63ffffffff84160281526004810191909152602401602060405180830381600087803b15801561050057600080fd5b505af1158015610514573d6000803e3d6000fd5b505050506040513d602081101561052a57600080fd5b810190808051505050505b600081600416111561061b5760006105d8601e6040805190810160405280600b81526020017f636f6d7075746174696f6e0000000000000000000000000000000000000000008152506060604051908101604052806060604051908101604052602e808252612025602083013981526006546020909101906105bf90600160a060020a0316610626565b81526020016105cd88610b2c565b9052620f4240610c07565b6000818152600560205290915083906040902055807f971b0866f91e6150f522277231ed5889fe16b939e5722a33b17a48b6fa0442cb60405160405180910390a2505b50505050565b505050565b6060600160a060020a038216816040805190810160405280601081526020017f3031323334353637383961626364656600000000000000000000000000000000815250905060606033604051818152601f19601f8301168101602001604052908015610699576020820181803883390190505b5090507f3000000000000000000000000000000000000000000000000000000000000000816000815181106106ca57fe5b906020010190600160f860020a031916908160001a9053507f78000000000000000000000000000000000000000000000000000000000000008160018151811061071057fe5b906020010190600160f860020a031916908160001a90535060005b601481101561081c5782600485600c84016020811061074657fe5b1a60f860020a0260f860020a900460ff16908060020a820491505060ff168151811061076e57fe5b016020015160f860020a900460f860020a0282826002026002018151811061079257fe5b906020010190600160f860020a031916908160001a9053508284600c8301602081106107ba57fe5b1a60f860020a0260f860020a9004600f1660ff16815181106107d857fe5b016020015160f860020a900460f860020a028282600202600301815181106107fc57fe5b906020010190600160f860020a031916908160001a90535060010161072b565b50925050505b919050565b600654600160a060020a031681565b6060604051908101604052602e808252612025602083013981565b6000806108e76040805190810160405280600b81526020017f636f6d7075746174696f6e0000000000000000000000000000000000000000008152506060604051908101604052806060604051908101604052602e808252612025602083013981526006546020909101906108ce90600160a060020a0316610626565b81526020016108dc87610b2c565b9052620f4240610e0a565b6000818152600560205290915083906040902055807f971b0866f91e6150f522277231ed5889fe16b939e5722a33b17a48b6fa0442cb60405160405180910390a25060019392505050565b600560205280600052604060002054905081565b600154600090600160a060020a03161580610973575060015461097190600160a060020a031661100b565b155b1561098457610982600061100f565b505b600154600160a060020a03166338cc48316040518163ffffffff1660e060020a028152600401602060405180830381600087803b1580156109c457600080fd5b505af11580156109d8573d6000803e3d6000fd5b505050506040513d60208110156109ee57600080fd5b810190808051600054600160a060020a039081169116149250610aa291505057600154600160a060020a03166338cc48316040518163ffffffff1660e060020a028152600401602060405180830381600087803b158015610a4e57600080fd5b505af1158015610a62573d6000803e3d6000fd5b505050506040513d6020811015610a7857600080fd5b81019080805160008054600160a060020a031916600160a060020a03929092169190911790555050505b600054600160a060020a031663c281d19e6040518163ffffffff1660e060020a02815260040160206040518083038186803b158015610ae057600080fd5b505afa158015610af4573d6000803e3d6000fd5b505050506040513d6020811015610b0a57600080fd5b81019080805193505050505b90565b6000610b26826000611019565b92915050565b6060811515610b705760408051908101604052600181527f300000000000000000000000000000000000000000000000000000000000000060208201529050610822565b8160005b8115610b8857600101600a82049150610b74565b606081604051818152601f19601f8301168101602001604052908015610bb5576020820181803883390190505b50905060001982015b851561081c5760001981019060f860020a6030600a8906010290839081518110610be457fe5b906020010190600160f860020a031916908160001a905350600a86049550610bbe565b600154600090600160a060020a03161580610c345750600154610c3290600160a060020a031661100b565b155b15610c4557610c43600061100f565b505b600154600160a060020a03166338cc48316040518163ffffffff1660e060020a028152600401602060405180830381600087803b158015610c8557600080fd5b505af1158015610c99573d6000803e3d6000fd5b505050506040513d6020811015610caf57600080fd5b810190808051600054600160a060020a039081169116149250610d6391505057600154600160a060020a03166338cc48316040518163ffffffff1660e060020a028152600401602060405180830381600087803b158015610d0f57600080fd5b505af1158015610d23573d6000803e3d6000fd5b505050506040513d6020811015610d3957600080fd5b81019080805160008054600160a060020a031916600160a060020a03929092169190911790555050505b60606003604051908082528060200260200182016040528015610d9a57816020015b6060815260200190600190039081610d855790505b509050835181600081518110610dac57fe5b60209081029091010152836001602002015181600181518110610dcb57fe5b6020908102919091010152604084015181600281518110610de857fe5b60209081029091010152610dfe8686838661113b565b9150505b949350505050565b600154600090600160a060020a03161580610e375750600154610e3590600160a060020a031661100b565b155b15610e4857610e46600061100f565b505b600154600160a060020a03166338cc48316040518163ffffffff1660e060020a028152600401602060405180830381600087803b158015610e8857600080fd5b505af1158015610e9c573d6000803e3d6000fd5b505050506040513d6020811015610eb257600080fd5b810190808051600054600160a060020a039081169116149250610f6691505057600154600160a060020a03166338cc48316040518163ffffffff1660e060020a028152600401602060405180830381600087803b158015610f1257600080fd5b505af1158015610f26573d6000803e3d6000fd5b505050506040513d6020811015610f3c57600080fd5b81019080805160008054600160a060020a031916600160a060020a03929092169190911790555050505b60606003604051908082528060200260200182016040528015610f9d57816020015b6060815260200190600190039081610f885790505b509050835181600081518110610faf57fe5b60209081029091010152836001602002015181600181518110610fce57fe5b6020908102919091010152604084015181600281518110610feb57fe5b60209081029091010152611000858285611514565b9150505b9392505050565b3b90565b6000610b266118f1565b6000828180805b835181101561111f57603084828151811061103757fe5b016020015160f860020a900460f860020a0260f860020a900460ff16101580156110895750603984828151811061106a57fe5b016020015160f860020a900460f860020a0260f860020a900460ff1611155b156110e25781156110a8578515156110a05761111f565b600019909501945b600a8302925060308482815181106110bc57fe5b016020015160f860020a900460f860020a0260f860020a900460ff160383019250611117565b8381815181106110ee57fe5b016020015160f860020a900460f860020a0260f860020a900460ff16602e141561111757600191505b600101611020565b5060008511156111325784600a0a820291505b50949350505050565b600154600090600160a060020a03161580611168575060015461116690600160a060020a031661100b565b155b1561117957611177600061100f565b505b600154600160a060020a03166338cc48316040518163ffffffff1660e060020a028152600401602060405180830381600087803b1580156111b957600080fd5b505af11580156111cd573d6000803e3d6000fd5b505050506040513d60208110156111e357600080fd5b810190808051600054600160a060020a03908116911614925061129791505057600154600160a060020a03166338cc48316040518163ffffffff1660e060020a028152600401602060405180830381600087803b15801561124357600080fd5b505af1158015611257573d6000803e3d6000fd5b505050506040513d602081101561126d57600080fd5b81019080805160008054600160a060020a031916600160a060020a03929092169190911790555050505b60008054600160a060020a0316632ef3accc86856040518363ffffffff1660e060020a0281526004018080602001838152602001828103825284818151815260200191508051906020019080838360005b838110156113005780820151838201526020016112e8565b50505050905090810190601f16801561132d5780820380516001836020036101000a031916815260200191505b509350505050602060405180830381600087803b15801561134d57600080fd5b505af1158015611361573d6000803e3d6000fd5b505050506040513d602081101561137757600080fd5b8101908080519350505050670de0b6b3a76400003a8402018111156113a0575060009050610e02565b60606113ab85611c0f565b600054909150600160a060020a031663c55c1cb683898985896040518663ffffffff1660e060020a028152600401808581526020018060200180602001848152602001838103835286818151815260200191508051906020019080838360005b8381101561142357808201518382015260200161140b565b50505050905090810190601f1680156114505780820380516001836020036101000a031916815260200191505b50838103825285818151815260200191508051906020019080838360005b8381101561148657808201518382015260200161146e565b50505050905090810190601f1680156114b35780820380516001836020036101000a031916815260200191505b5096505050505050506020604051808303818588803b1580156114d557600080fd5b505af11580156114e9573d6000803e3d6000fd5b50505050506040513d602081101561150057600080fd5b8101908080519a9950505050505050505050565b600154600090600160a060020a03161580611541575060015461153f90600160a060020a031661100b565b155b1561155257611550600061100f565b505b600154600160a060020a03166338cc48316040518163ffffffff1660e060020a028152600401602060405180830381600087803b15801561159257600080fd5b505af11580156115a6573d6000803e3d6000fd5b505050506040513d60208110156115bc57600080fd5b810190808051600054600160a060020a03908116911614925061167091505057600154600160a060020a03166338cc48316040518163ffffffff1660e060020a028152600401602060405180830381600087803b15801561161c57600080fd5b505af1158015611630573d6000803e3d6000fd5b505050506040513d602081101561164657600080fd5b81019080805160008054600160a060020a031916600160a060020a03929092169190911790555050505b60008054600160a060020a0316632ef3accc86856040518363ffffffff1660e060020a0281526004018080602001838152602001828103825284818151815260200191508051906020019080838360005b838110156116d95780820151838201526020016116c1565b50505050905090810190601f1680156117065780820380516001836020036101000a031916815260200191505b509350505050602060405180830381600087803b15801561172657600080fd5b505af115801561173a573d6000803e3d6000fd5b505050506040513d602081101561175057600080fd5b8101908080519350505050670de0b6b3a76400003a840201811115611779575060009050611004565b606061178485611c0f565b60008054919250600160a060020a039091169063c55c1cb69084908985896040518663ffffffff1660e060020a028152600401808581526020018060200180602001848152602001838103835286818151815260200191508051906020019080838360005b838110156118015780820151838201526020016117e9565b50505050905090810190601f16801561182e5780820380516001836020036101000a031916815260200191505b50838103825285818151815260200191508051906020019080838360005b8381101561186457808201518382015260200161184c565b50505050905090810190601f1680156118915780820380516001836020036101000a031916815260200191505b5096505050505050506020604051808303818588803b1580156118b357600080fd5b505af11580156118c7573d6000803e3d6000fd5b50505050506040513d60208110156118de57600080fd5b8101908080519998505050505050505050565b600080611911731d3b2638a7cc9f2cb3d298a3da7a90b67e5506ed61100b565b11156119815760018054600160a060020a031916731d3b2638a7cc9f2cb3d298a3da7a90b67e5506ed17905561197960408051908101604052600b81527f6574685f6d61696e6e65740000000000000000000000000000000000000000006020820152611c83565b506001610b16565b60006119a073c03a2615d5efaf5f49f60b7bb6583eaec212fdf161100b565b1115611a085760018054600160a060020a03191673c03a2615d5efaf5f49f60b7bb6583eaec212fdf117905561197960408051908101604052600c81527f6574685f726f707374656e3300000000000000000000000000000000000000006020820152611c83565b6000611a2773b7a07bcf2ba2f2703b24c0691b5278999c59ac7e61100b565b1115611a8f5760018054600160a060020a03191673b7a07bcf2ba2f2703b24c0691b5278999c59ac7e17905561197960408051908101604052600981527f6574685f6b6f76616e00000000000000000000000000000000000000000000006020820152611c83565b6000611aae73146500cfd35b22e4a392fe0adc06de1a1368ed4861100b565b1115611b165760018054600160a060020a03191673146500cfd35b22e4a392fe0adc06de1a1368ed4817905561197960408051908101604052600b81527f6574685f72696e6b6562790000000000000000000000000000000000000000006020820152611c83565b6000611b35736f485c8bf6fc43ea212e93bbf8ce046c7f1cb47561100b565b1115611b67575060018054600160a060020a031916736f485c8bf6fc43ea212e93bbf8ce046c7f1cb475178155610b16565b6000611b867320e12a1f859b3feae5fb2a0a32c18f5a65555bbf61100b565b1115611bb8575060018054600160a060020a0319167320e12a1f859b3feae5fb2a0a32c18f5a65555bbf178155610b16565b6000611bd77351efaf4c8b3c9afbd5ab9f4bbc82784ab6ef8faa61100b565b1115611c09575060018054600160a060020a0319167351efaf4c8b3c9afbd5ab9f4bbc82784ab6ef8faa178155610b16565b50600090565b6060611c19611c9a565b611c21611f74565b611c2d81610400611ca6565b611c3681611cd4565b60005b8351811015611c7057611c68848281518110611c5157fe5b90602001906020020151839063ffffffff611ce216565b600101611c39565b50611c7a81611cff565b80519392505050565b6002818051611c96929160200190611f8c565b5050565b60405180590338823950565b806020810615611cb95760208106602003015b60208301819052604051928390526000835290910160405250565b611cdf816004611d06565b50565b611cef8260038351611d1f565b610621828263ffffffff611e1d16565b611cdf8160075b611c9682601f602060ff8516021763ffffffff611eb616565b60178111611d4057611d3b8360ff848116602002168317611eb6565b610621565b60ff8111611d7957611d61836018602060ff8616021763ffffffff611eb616565b611d738382600163ffffffff611eef16565b50610621565b61ffff8111611dad57611d9b836019602060ff8616021763ffffffff611eb616565b611d738382600263ffffffff611eef16565b63ffffffff8111611de357611dd183601a602060ff8616021763ffffffff611eb616565b611d738382600463ffffffff611eef16565b67ffffffffffffffff811161062157611e0b83601b602060ff8616021763ffffffff611eb616565b61061b8382600863ffffffff611eef16565b611e25611f74565b82602001518351518351011115611e5157611e5183611e4985602001518551611f43565b600202611f5a565b60008060008451905085518051602081830101945086510190526020850191505b60208110611e9257815183526020928301929190910190601f1901611e72565b60001960208290036101000a01801983511681855116179093525093949350505050565b81602001518251516001011115611ed857611ed8828360200151600202611f5a565b815180516020818301018381535060010190525050565b611ef7611f74565b836020015184515183011115611f1957611f1984611e49866020015185611f43565b60001961010083900a01845180518481830101868419825116179052909301909252509192915050565b600081831115611f54575081610b26565b50919050565b606082519050611f6a8383611ca6565b61061b8382611e1d565b60408051908101604052606081526000602082015290565b828054600181600116156101000203166002900490600052602060002090601f016020900481019282601f10611fcd57805160ff1916838001178555611ffa565b82800160010185558215611ffa579182015b82811115611ffa578251825591602001919060010190611fdf565b5061200692915061200a565b5090565b610b1691905b80821115612006576000815560010161201056fe516d58695a414b686837374b47666e336a4c66626271655552665656724b775551666f58795433697056364b6955a165627a7a72305820d0cb05afb02d216400daf8b8d2eaf2da4ffd92512db985807bee899464f0be6e0029",
  "source": "/*\n    Oraclize based oracle contract.\n*/\n\npragma solidity >= 0.5.0;\n\nimport '../misc/oraclizeAPI.sol';\nimport '../interface/IExchange.sol';\nimport '../interface/IOracle.sol';\n\ncontract OraclizeOracle is IOracle, usingOraclize {\n    string public constant oracleComputation = \"QmXiZAKhh77KGfn3jLfbbqeURfVVrKwUQfoXyT3ipV6KiU\";\n    mapping(bytes32 => uint256) public tradeOf;\n    IExchange public dex;\n\n    event OraclizeQuery(bytes32 indexed qid);\n\n    constructor(IExchange _dex) public {\n        dex = _dex;\n    }\n\n    function __callback(bytes32 myid, string memory result) public {\n        if (msg.sender != oraclize_cbAddress()) revert();\n\n        uint256 id = tradeOf[myid];\n        uint256 retCode = parseInt(result);\n\n        if (retCode & 1 > 0)\n            dex.confirmTakerTransfer(id);\n\n        if (retCode & 2 > 0)\n            dex.confirmMakerTransfer(id);\n\n        if (retCode & 4 > 0) {\n            bytes32 qid = oraclize_query(30, \"computation\", [\n                oracleComputation,\n                toString(address(dex)),\n                uint2str(id)\n            ], 1000000);\n            tradeOf[qid] = id;\n            emit OraclizeQuery(qid);\n        }\n    }\n\n    function checkTrade(address _dex, uint256 _id) external returns(bool success) {\n        //require(_dex == address(dex));\n        bytes32 qid = oraclize_query(\"computation\", [\n            oracleComputation,\n            toString(address(dex)),\n            uint2str(_id)\n        ], 1000000);\n        tradeOf[qid] = _id;\n        emit OraclizeQuery(qid);\n        success = true;\n    }\n\n    function() external payable {}\n\n    function toString(address _addr) public pure returns(string memory) {\n        bytes32 value = bytes32(uint256(_addr));\n        bytes memory alphabet = \"0123456789abcdef\";\n\n        bytes memory str = new bytes(51);\n        str[0] = '0';\n        str[1] = 'x';\n        for (uint256 i = 0; i < 20; i++) {\n            str[2+i*2] = alphabet[uint8(value[i + 12]) >> 4];\n            str[3+i*2] = alphabet[uint8(value[i + 12]) & 0x0f];\n        }\n        return string(str);\n    }\n}\n",
  "sourcePath": "/home/akru/devel/cdex/contracts/oracles/OraclizeOracle.sol",
  "compiler": {
    "name": "solc",
    "version": "0.5.4+commit.9549d8ff.Emscripten.clang"
  },
  "schemaVersion": "3.0.2",
  "updatedAt": "2019-03-02T10:05:18.481Z",
  "devdoc": {
    "methods": {}
  },
  "userdoc": {
    "methods": {}
  }
}