{
  "contractName": "OraclizeOracle",
  "abi": [
    {
      "constant": true,
      "inputs": [],
      "name": "dex",
      "outputs": [
        {
          "name": "",
          "type": "address"
        }
      ],
      "payable": false,
      "stateMutability": "view",
      "type": "function",
      "signature": "0x692058c2"
    },
    {
      "constant": true,
      "inputs": [],
      "name": "oracleComputation",
      "outputs": [
        {
          "name": "",
          "type": "string"
        }
      ],
      "payable": false,
      "stateMutability": "view",
      "type": "function",
      "signature": "0x73d146ab"
    },
    {
      "constant": true,
      "inputs": [
        {
          "name": "",
          "type": "bytes32"
        }
      ],
      "name": "tradeOf",
      "outputs": [
        {
          "name": "",
          "type": "uint256"
        }
      ],
      "payable": false,
      "stateMutability": "view",
      "type": "function",
      "signature": "0xef53d2c0"
    },
    {
      "inputs": [
        {
          "name": "_dex",
          "type": "address"
        }
      ],
      "payable": false,
      "stateMutability": "nonpayable",
      "type": "constructor",
      "signature": "constructor"
    },
    {
      "payable": true,
      "stateMutability": "payable",
      "type": "fallback"
    },
    {
      "anonymous": false,
      "inputs": [
        {
          "indexed": true,
          "name": "qid",
          "type": "bytes32"
        }
      ],
      "name": "OraclizeQuery",
      "type": "event",
      "signature": "0x971b0866f91e6150f522277231ed5889fe16b939e5722a33b17a48b6fa0442cb"
    },
    {
      "constant": false,
      "inputs": [
        {
          "name": "myid",
          "type": "bytes32"
        },
        {
          "name": "result",
          "type": "string"
        }
      ],
      "name": "__callback",
      "outputs": [],
      "payable": false,
      "stateMutability": "nonpayable",
      "type": "function",
      "signature": "0x27dc297e"
    },
    {
      "constant": false,
      "inputs": [
        {
          "name": "_myid",
          "type": "bytes32"
        },
        {
          "name": "_result",
          "type": "string"
        },
        {
          "name": "_proof",
          "type": "bytes"
        }
      ],
      "name": "__callback",
      "outputs": [],
      "payable": false,
      "stateMutability": "nonpayable",
      "type": "function",
      "signature": "0x38bbfa50"
    },
    {
      "constant": false,
      "inputs": [
        {
          "name": "_dex",
          "type": "address"
        },
        {
          "name": "_id",
          "type": "uint256"
        }
      ],
      "name": "checkTrade",
      "outputs": [
        {
          "name": "success",
          "type": "bool"
        }
      ],
      "payable": false,
      "stateMutability": "nonpayable",
      "type": "function",
      "signature": "0x81145d5c"
    }
  ],
  "bytecode": "0x608060405234801561001057600080fd5b50604051602080611f528339810180604052602081101561003057600080fd5b505160068054600160a060020a031916600160a060020a03909216919091179055611ef2806100606000396000f3fe6080604052600436106100585760e060020a600035046327dc297e811461005a57806338bbfa5014610113578063692058c21461025257806373d146ab1461028357806381145d5c1461030f578063ef53d2c01461035c575b005b34801561006657600080fd5b506100586004803603604081101561007d57600080fd5b8135919081019060408101602082013564010000000081111561009f57600080fd5b8201836020820111156100b157600080fd5b803590602001918460018302840111640100000000831117156100d357600080fd5b91908080601f0160208091040260200160405190810160405281815292919060208401838380828437600092019190915250929550610398945050505050565b34801561011f57600080fd5b506100586004803603606081101561013657600080fd5b8135919081019060408101602082013564010000000081111561015857600080fd5b82018360208201111561016a57600080fd5b8035906020019184600183028401116401000000008311171561018c57600080fd5b91908080601f016020809104026020016040519081016040528181529291906020840183838082843760009201919091525092959493602081019350359150506401000000008111156101de57600080fd5b8201836020820111156101f057600080fd5b8035906020019184600183028401116401000000008311171561021257600080fd5b91908080601f01602080910402602001604051908101604052818152929190602084018383808284376000920191909152509295506105cf945050505050565b34801561025e57600080fd5b506102676105d4565b604051600160a060020a03909116815260200160405180910390f35b34801561028f57600080fd5b506102986105e3565b60405160208082528190810183818151815260200191508051906020019080838360005b838110156102d45780820151838201526020016102bc565b50505050905090810190601f1680156103015780820380516001836020036101000a031916815260200191505b509250505060405180910390f35b34801561031b57600080fd5b506103486004803603604081101561033257600080fd5b50600160a060020a0381351690602001356105fe565b604051901515815260200160405180910390f35b34801561036857600080fd5b506103866004803603602081101561037f57600080fd5b50356106f7565b60405190815260200160405180910390f35b6103a061070b565b600160a060020a031633146103b457600080fd5b600082815260056020526040812054905060006103d0836108de565b9050600081600116111561045c57600654600160a060020a031663b29531a88360405160e060020a63ffffffff84160281526004810191909152602401602060405180830381600087803b15801561042757600080fd5b505af115801561043b573d6000803e3d6000fd5b505050506040513d602081101561045157600080fd5b810190808051505050505b60008160021611156104e657600654600160a060020a03166318671b0d8360405160e060020a63ffffffff84160281526004810191909152602401602060405180830381600087803b1580156104b157600080fd5b505af11580156104c5573d6000803e3d6000fd5b505050506040513d60208110156104db57600080fd5b810190808051505050505b60008160041611156105c957600061058661012c6040805190810160405280600b81526020017f636f6d7075746174696f6e0000000000000000000000000000000000000000008152506060604051908101604052806060604051908101604052602e808252611e996020830139815260065460209091019061057190600160a060020a03166108f3565b815260200161057f886109a0565b9052610a9c565b6000818152600560205290915083906040902055807f971b0866f91e6150f522277231ed5889fe16b939e5722a33b17a48b6fa0442cb60405160405180910390a2505b50505050565b505050565b600654600160a060020a031681565b6060604051908101604052602e808252611e99602083013981565b600654600090600160a060020a0384811691161461061b57600080fd5b60006106ac6040805190810160405280600b81526020017f636f6d7075746174696f6e0000000000000000000000000000000000000000008152506060604051908101604052806060604051908101604052602e808252611e996020830139815260065460209091019061069790600160a060020a03166108f3565b81526020016106a5876109a0565b9052610c9d565b6000818152600560205290915083906040902055807f971b0866f91e6150f522277231ed5889fe16b939e5722a33b17a48b6fa0442cb60405160405180910390a25060019392505050565b600560205280600052604060002054905081565b600154600090600160a060020a03161580610738575060015461073690600160a060020a0316610e9c565b155b15610749576107476000610ea0565b505b600154600160a060020a03166338cc48316040518163ffffffff1660e060020a028152600401602060405180830381600087803b15801561078957600080fd5b505af115801561079d573d6000803e3d6000fd5b505050506040513d60208110156107b357600080fd5b810190808051600054600160a060020a03908116911614925061086791505057600154600160a060020a03166338cc48316040518163ffffffff1660e060020a028152600401602060405180830381600087803b15801561081357600080fd5b505af1158015610827573d6000803e3d6000fd5b505050506040513d602081101561083d57600080fd5b81019080805160008054600160a060020a031916600160a060020a03929092169190911790555050505b600054600160a060020a031663c281d19e6040518163ffffffff1660e060020a02815260040160206040518083038186803b1580156108a557600080fd5b505afa1580156108b9573d6000803e3d6000fd5b505050506040513d60208110156108cf57600080fd5b81019080805193505050505b90565b60006108eb826000610eaa565b90505b919050565b6060806014604051818152601f19601f8301168101602001604052908015610922576020820181803883390190505b50905060005b6014811015610999578060130360080260020a84600160a060020a031681151561094e57fe5b0460f860020a0282828151811061096157fe5b9060200101907effffffffffffffffffffffffffffffffffffffffffffffffffffffffffffff1916908160001a905350600101610928565b5092915050565b60608115156109e45760408051908101604052600181527f3000000000000000000000000000000000000000000000000000000000000000602082015290506108ee565b8160005b81156109fc57600101600a820491506109e8565b606081604051818152601f19601f8301168101602001604052908015610a29576020820181803883390190505b50905060001982015b8515610a935760001981019060f860020a6030600a8906010290839081518110610a5857fe5b9060200101907effffffffffffffffffffffffffffffffffffffffffffffffffffffffffffff1916908160001a905350600a86049550610a32565b50949350505050565b600154600090600160a060020a03161580610ac95750600154610ac790600160a060020a0316610e9c565b155b15610ada57610ad86000610ea0565b505b600154600160a060020a03166338cc48316040518163ffffffff1660e060020a028152600401602060405180830381600087803b158015610b1a57600080fd5b505af1158015610b2e573d6000803e3d6000fd5b505050506040513d6020811015610b4457600080fd5b810190808051600054600160a060020a039081169116149250610bf891505057600154600160a060020a03166338cc48316040518163ffffffff1660e060020a028152600401602060405180830381600087803b158015610ba457600080fd5b505af1158015610bb8573d6000803e3d6000fd5b505050506040513d6020811015610bce57600080fd5b81019080805160008054600160a060020a031916600160a060020a03929092169190911790555050505b60606003604051908082528060200260200182016040528015610c2f57816020015b6060815260200190600190039081610c1a5790505b509050825181600081518110610c4157fe5b60209081029091010152826001602002015181600181518110610c6057fe5b6020908102919091010152604083015181600281518110610c7d57fe5b60209081029091010152610c92858583610fcb565b9150505b9392505050565b600154600090600160a060020a03161580610cca5750600154610cc890600160a060020a0316610e9c565b155b15610cdb57610cd96000610ea0565b505b600154600160a060020a03166338cc48316040518163ffffffff1660e060020a028152600401602060405180830381600087803b158015610d1b57600080fd5b505af1158015610d2f573d6000803e3d6000fd5b505050506040513d6020811015610d4557600080fd5b810190808051600054600160a060020a039081169116149250610df991505057600154600160a060020a03166338cc48316040518163ffffffff1660e060020a028152600401602060405180830381600087803b158015610da557600080fd5b505af1158015610db9573d6000803e3d6000fd5b505050506040513d6020811015610dcf57600080fd5b81019080805160008054600160a060020a031916600160a060020a03929092169190911790555050505b60606003604051908082528060200260200182016040528015610e3057816020015b6060815260200190600190039081610e1b5790505b509050825181600081518110610e4257fe5b60209081029091010152826001602002015181600181518110610e6157fe5b6020908102919091010152604083015181600281518110610e7e57fe5b60209081029091010152610e928482611396565b9150505b92915050565b3b90565b60006108eb611765565b6000828180805b8351811015610fb0576030848281518110610ec857fe5b016020015160f860020a900460f860020a0260f860020a900460ff1610158015610f1a57506039848281518110610efb57fe5b016020015160f860020a900460f860020a0260f860020a900460ff1611155b15610f73578115610f3957851515610f3157610fb0565b600019909501945b600a830292506030848281518110610f4d57fe5b016020015160f860020a900460f860020a0260f860020a900460ff160383019250610fa8565b838181518110610f7f57fe5b016020015160f860020a900460f860020a0260f860020a900460ff16602e1415610fa857600191505b600101610eb1565b506000851115610a935784600a0a8202915050949350505050565b600154600090600160a060020a03161580610ff85750600154610ff690600160a060020a0316610e9c565b155b15611009576110076000610ea0565b505b600154600160a060020a03166338cc48316040518163ffffffff1660e060020a028152600401602060405180830381600087803b15801561104957600080fd5b505af115801561105d573d6000803e3d6000fd5b505050506040513d602081101561107357600080fd5b810190808051600054600160a060020a03908116911614925061112791505057600154600160a060020a03166338cc48316040518163ffffffff1660e060020a028152600401602060405180830381600087803b1580156110d357600080fd5b505af11580156110e7573d6000803e3d6000fd5b505050506040513d60208110156110fd57600080fd5b81019080805160008054600160a060020a031916600160a060020a03929092169190911790555050505b60008054600160a060020a031663524f3889856040518263ffffffff1660e060020a0281526004018080602001828103825283818151815260200191508051906020019080838360005b83811015611189578082015183820152602001611171565b50505050905090810190601f1680156111b65780820380516001836020036101000a031916815260200191505b5092505050602060405180830381600087803b1580156111d557600080fd5b505af11580156111e9573d6000803e3d6000fd5b505050506040513d60208110156111ff57600080fd5b8101908080519350505050670de0b6b3a764000062030d403a020181111561122b575060009050610c96565b606061123684611a83565b600054909150600160a060020a03166383eed3d5838888856040518563ffffffff1660e060020a028152600401808481526020018060200180602001838103835285818151815260200191508051906020019080838360005b838110156112a757808201518382015260200161128f565b50505050905090810190601f1680156112d45780820380516001836020036101000a031916815260200191505b50838103825284818151815260200191508051906020019080838360005b8381101561130a5780820151838201526020016112f2565b50505050905090810190601f1680156113375780820380516001836020036101000a031916815260200191505b50955050505050506020604051808303818588803b15801561135857600080fd5b505af115801561136c573d6000803e3d6000fd5b50505050506040513d602081101561138357600080fd5b8101908080519998505050505050505050565b600154600090600160a060020a031615806113c357506001546113c190600160a060020a0316610e9c565b155b156113d4576113d26000610ea0565b505b600154600160a060020a03166338cc48316040518163ffffffff1660e060020a028152600401602060405180830381600087803b15801561141457600080fd5b505af1158015611428573d6000803e3d6000fd5b505050506040513d602081101561143e57600080fd5b810190808051600054600160a060020a0390811691161492506114f291505057600154600160a060020a03166338cc48316040518163ffffffff1660e060020a028152600401602060405180830381600087803b15801561149e57600080fd5b505af11580156114b2573d6000803e3d6000fd5b505050506040513d60208110156114c857600080fd5b81019080805160008054600160a060020a031916600160a060020a03929092169190911790555050505b60008054600160a060020a031663524f3889856040518263ffffffff1660e060020a0281526004018080602001828103825283818151815260200191508051906020019080838360005b8381101561155457808201518382015260200161153c565b50505050905090810190601f1680156115815780820380516001836020036101000a031916815260200191505b5092505050602060405180830381600087803b1580156115a057600080fd5b505af11580156115b4573d6000803e3d6000fd5b505050506040513d60208110156115ca57600080fd5b8101908080519350505050670de0b6b3a764000062030d403a02018111156115f6575060009050610e96565b606061160184611a83565b60008054919250600160a060020a03909116906383eed3d590849088856040518563ffffffff1660e060020a028152600401808481526020018060200180602001838103835285818151815260200191508051906020019080838360005b8381101561167757808201518382015260200161165f565b50505050905090810190601f1680156116a45780820380516001836020036101000a031916815260200191505b50838103825284818151815260200191508051906020019080838360005b838110156116da5780820151838201526020016116c2565b50505050905090810190601f1680156117075780820380516001836020036101000a031916815260200191505b50955050505050506020604051808303818588803b15801561172857600080fd5b505af115801561173c573d6000803e3d6000fd5b50505050506040513d602081101561175357600080fd5b81019080805198975050505050505050565b600080611785731d3b2638a7cc9f2cb3d298a3da7a90b67e5506ed610e9c565b11156117f55760018054600160a060020a031916731d3b2638a7cc9f2cb3d298a3da7a90b67e5506ed1790556117ed60408051908101604052600b81527f6574685f6d61696e6e65740000000000000000000000000000000000000000006020820152611af7565b5060016108db565b600061181473c03a2615d5efaf5f49f60b7bb6583eaec212fdf1610e9c565b111561187c5760018054600160a060020a03191673c03a2615d5efaf5f49f60b7bb6583eaec212fdf11790556117ed60408051908101604052600c81527f6574685f726f707374656e3300000000000000000000000000000000000000006020820152611af7565b600061189b73b7a07bcf2ba2f2703b24c0691b5278999c59ac7e610e9c565b11156119035760018054600160a060020a03191673b7a07bcf2ba2f2703b24c0691b5278999c59ac7e1790556117ed60408051908101604052600981527f6574685f6b6f76616e00000000000000000000000000000000000000000000006020820152611af7565b600061192273146500cfd35b22e4a392fe0adc06de1a1368ed48610e9c565b111561198a5760018054600160a060020a03191673146500cfd35b22e4a392fe0adc06de1a1368ed481790556117ed60408051908101604052600b81527f6574685f72696e6b6562790000000000000000000000000000000000000000006020820152611af7565b60006119a9736f485c8bf6fc43ea212e93bbf8ce046c7f1cb475610e9c565b11156119db575060018054600160a060020a031916736f485c8bf6fc43ea212e93bbf8ce046c7f1cb4751781556108db565b60006119fa7320e12a1f859b3feae5fb2a0a32c18f5a65555bbf610e9c565b1115611a2c575060018054600160a060020a0319167320e12a1f859b3feae5fb2a0a32c18f5a65555bbf1781556108db565b6000611a4b7351efaf4c8b3c9afbd5ab9f4bbc82784ab6ef8faa610e9c565b1115611a7d575060018054600160a060020a0319167351efaf4c8b3c9afbd5ab9f4bbc82784ab6ef8faa1781556108db565b50600090565b6060611a8d611b0e565b611a95611de8565b611aa181610400611b1a565b611aaa81611b48565b60005b8351811015611ae457611adc848281518110611ac557fe5b90602001906020020151839063ffffffff611b5616565b600101611aad565b50611aee81611b73565b80519392505050565b6002818051611b0a929160200190611e00565b5050565b60405180590338823950565b806020810615611b2d5760208106602003015b60208301819052604051928390526000835290910160405250565b611b53816004611b7a565b50565b611b638260038351611b93565b6105cf828263ffffffff611c9116565b611b538160075b611b0a82601f602060ff8516021763ffffffff611d2a16565b60178111611bb457611baf8360ff848116602002168317611d2a565b6105cf565b60ff8111611bed57611bd5836018602060ff8616021763ffffffff611d2a16565b611be78382600163ffffffff611d6316565b506105cf565b61ffff8111611c2157611c0f836019602060ff8616021763ffffffff611d2a16565b611be78382600263ffffffff611d6316565b63ffffffff8111611c5757611c4583601a602060ff8616021763ffffffff611d2a16565b611be78382600463ffffffff611d6316565b67ffffffffffffffff81116105cf57611c7f83601b602060ff8616021763ffffffff611d2a16565b6105c98382600863ffffffff611d6316565b611c99611de8565b82602001518351518351011115611cc557611cc583611cbd85602001518551611db7565b600202611dce565b60008060008451905085518051602081830101945086510190526020850191505b60208110611d0657815183526020928301929190910190601f1901611ce6565b60001960208290036101000a01801983511681855116179093525093949350505050565b81602001518251516001011115611d4c57611d4c828360200151600202611dce565b815180516020818301018381535060010190525050565b611d6b611de8565b836020015184515183011115611d8d57611d8d84611cbd866020015185611db7565b60001961010083900a01845180518481830101868419825116179052909301909252509192915050565b600081831115611dc8575081610e96565b50919050565b606082519050611dde8383611b1a565b6105c98382611c91565b60408051908101604052606081526000602082015290565b828054600181600116156101000203166002900490600052602060002090601f016020900481019282601f10611e4157805160ff1916838001178555611e6e565b82800160010185558215611e6e579182015b82811115611e6e578251825591602001919060010190611e53565b50611e7a929150611e7e565b5090565b6108db91905b80821115611e7a5760008155600101611e8456fe516d58695a414b686837374b47666e336a4c66626271655552665656724b775551666f58795433697056364b6955a165627a7a72305820538c98613e794db0e275e1e89866d5ac0cba640f38e5f310612818ed16b90c760029",
  "source": "/*\n    Oraclize based oracle contract.\n*/\n\npragma solidity >= 0.5.0;\n\nimport '../misc/oraclizeAPI.sol';\nimport '../interface/IExchange.sol';\nimport '../interface/IOracle.sol';\n\ncontract OraclizeOracle is IOracle, usingOraclize {\n    string public constant oracleComputation = \"QmXiZAKhh77KGfn3jLfbbqeURfVVrKwUQfoXyT3ipV6KiU\";\n    mapping(bytes32 => uint256) public tradeOf;\n    IExchange public dex;\n\n    event OraclizeQuery(bytes32 indexed qid);\n\n    constructor(IExchange _dex) public {\n        dex = _dex;\n    }\n\n    function __callback(bytes32 myid, string memory result) public {\n        if (msg.sender != oraclize_cbAddress()) revert();\n\n        uint256 id = tradeOf[myid];\n        uint256 retCode = parseInt(result);\n\n        if (retCode & 1 > 0)\n            dex.confirmTakerTransfer(id);\n\n        if (retCode & 2 > 0)\n            dex.confirmMakerTransfer(id);\n\n        if (retCode & 4 > 0) {\n            bytes32 qid = oraclize_query(300, \"computation\", [\n                oracleComputation,\n                toString(address(dex)),\n                uint2str(id)\n            ]);\n            tradeOf[qid] = id;\n            emit OraclizeQuery(qid);\n        }\n    }\n\n    function checkTrade(address _dex, uint256 _id) external returns(bool success) {\n        require(_dex == address(dex));\n        bytes32 qid = oraclize_query(\"computation\", [\n            oracleComputation,\n            toString(address(dex)),\n            uint2str(_id)\n        ]);\n        tradeOf[qid] = _id;\n        emit OraclizeQuery(qid);\n        success = true;\n    }\n\n    function() external payable {}\n\n    function toString(address x) internal returns (string memory) {\n        bytes memory b = new bytes(20);\n        for (uint i = 0; i < 20; i++)\n            b[i] = byte(uint8(uint(x) / (2**(8*(19 - i)))));\n        return string(b);\n    }\n}\n",
  "sourcePath": "/home/akru/devel/cdex/contracts/oracles/OraclizeOracle.sol",
  "compiler": {
    "name": "solc",
    "version": "0.5.4+commit.9549d8ff.Emscripten.clang"
  },
  "schemaVersion": "3.0.2",
  "updatedAt": "2019-02-22T20:57:25.568Z",
  "devdoc": {
    "methods": {}
  },
  "userdoc": {
    "methods": {}
  }
}