{
  "contractName": "OraclizeOracle",
  "abi": [
    {
      "constant": true,
      "inputs": [],
      "name": "dex",
      "outputs": [
        {
          "name": "",
          "type": "address"
        }
      ],
      "payable": false,
      "stateMutability": "view",
      "type": "function",
      "signature": "0x692058c2"
    },
    {
      "constant": true,
      "inputs": [],
      "name": "oracleComputation",
      "outputs": [
        {
          "name": "",
          "type": "string"
        }
      ],
      "payable": false,
      "stateMutability": "view",
      "type": "function",
      "signature": "0x73d146ab"
    },
    {
      "constant": true,
      "inputs": [
        {
          "name": "",
          "type": "bytes32"
        }
      ],
      "name": "tradeOf",
      "outputs": [
        {
          "name": "",
          "type": "uint256"
        }
      ],
      "payable": false,
      "stateMutability": "view",
      "type": "function",
      "signature": "0xef53d2c0"
    },
    {
      "inputs": [
        {
          "name": "_dex",
          "type": "address"
        }
      ],
      "payable": false,
      "stateMutability": "nonpayable",
      "type": "constructor",
      "signature": "constructor"
    },
    {
      "payable": true,
      "stateMutability": "payable",
      "type": "fallback"
    },
    {
      "constant": false,
      "inputs": [
        {
          "name": "myid",
          "type": "bytes32"
        },
        {
          "name": "result",
          "type": "string"
        }
      ],
      "name": "__callback",
      "outputs": [],
      "payable": false,
      "stateMutability": "nonpayable",
      "type": "function",
      "signature": "0x27dc297e"
    },
    {
      "constant": false,
      "inputs": [
        {
          "name": "_myid",
          "type": "bytes32"
        },
        {
          "name": "_result",
          "type": "string"
        },
        {
          "name": "_proof",
          "type": "bytes"
        }
      ],
      "name": "__callback",
      "outputs": [],
      "payable": false,
      "stateMutability": "nonpayable",
      "type": "function",
      "signature": "0x38bbfa50"
    },
    {
      "constant": false,
      "inputs": [
        {
          "name": "_dex",
          "type": "address"
        },
        {
          "name": "_id",
          "type": "uint256"
        }
      ],
      "name": "checkTrade",
      "outputs": [
        {
          "name": "success",
          "type": "bool"
        }
      ],
      "payable": false,
      "stateMutability": "nonpayable",
      "type": "function",
      "signature": "0x81145d5c"
    }
  ],
  "bytecode": "0x608060405234801561001057600080fd5b50604051602080611ef88339810180604052602081101561003057600080fd5b505160068054600160a060020a031916600160a060020a03909216919091179055611e98806100606000396000f3fe6080604052600436106100585760e060020a600035046327dc297e811461005a57806338bbfa5014610113578063692058c21461025257806373d146ab1461028357806381145d5c1461030f578063ef53d2c01461035c575b005b34801561006657600080fd5b506100586004803603604081101561007d57600080fd5b8135919081019060408101602082013564010000000081111561009f57600080fd5b8201836020820111156100b157600080fd5b803590602001918460018302840111640100000000831117156100d357600080fd5b91908080601f0160208091040260200160405190810160405281815292919060208401838380828437600092019190915250929550610398945050505050565b34801561011f57600080fd5b506100586004803603606081101561013657600080fd5b8135919081019060408101602082013564010000000081111561015857600080fd5b82018360208201111561016a57600080fd5b8035906020019184600183028401116401000000008311171561018c57600080fd5b91908080601f016020809104026020016040519081016040528181529291906020840183838082843760009201919091525092959493602081019350359150506401000000008111156101de57600080fd5b8201836020820111156101f057600080fd5b8035906020019184600183028401116401000000008311171561021257600080fd5b91908080601f01602080910402602001604051908101604052818152929190602084018383808284376000920191909152509295506105a2945050505050565b34801561025e57600080fd5b506102676105a7565b604051600160a060020a03909116815260200160405180910390f35b34801561028f57600080fd5b506102986105b6565b60405160208082528190810183818151815260200191508051906020019080838360005b838110156102d45780820151838201526020016102bc565b50505050905090810190601f1680156103015780820380516001836020036101000a031916815260200191505b509250505060405180910390f35b34801561031b57600080fd5b506103486004803603604081101561033257600080fd5b50600160a060020a0381351690602001356105d1565b604051901515815260200160405180910390f35b34801561036857600080fd5b506103866004803603602081101561037f57600080fd5b503561069d565b60405190815260200160405180910390f35b6103a06106b1565b600160a060020a031633146103b457600080fd5b600082815260056020526040812054905060006103d083610884565b9050600081600116111561045c57600654600160a060020a031663b29531a88360405160e060020a63ffffffff84160281526004810191909152602401602060405180830381600087803b15801561042757600080fd5b505af115801561043b573d6000803e3d6000fd5b505050506040513d602081101561045157600080fd5b810190808051505050505b60008160021611156104e657600654600160a060020a03166318671b0d8360405160e060020a63ffffffff84160281526004810191909152602401602060405180830381600087803b1580156104b157600080fd5b505af11580156104c5573d6000803e3d6000fd5b505050506040513d60208110156104db57600080fd5b810190808051505050505b600081600416111561059c57600061058661012c6040805190810160405280600b81526020017f636f6d7075746174696f6e0000000000000000000000000000000000000000008152506060604051908101604052806060604051908101604052602e808252611e3f6020830139815260065460209091019061057190600160a060020a0316610899565b815260200161057f88610946565b9052610a42565b6000818152600560205290915083906040902055505b50505050565b505050565b600654600160a060020a031681565b6060604051908101604052602e808252611e3f602083013981565b600654600090600160a060020a038481169116146105ee57600080fd5b600061067f6040805190810160405280600b81526020017f636f6d7075746174696f6e0000000000000000000000000000000000000000008152506060604051908101604052806060604051908101604052602e808252611e3f6020830139815260065460209091019061066a90600160a060020a0316610899565b815260200161067887610946565b9052610c43565b60008181526005602052909150839060409020555060019392505050565b600560205280600052604060002054905081565b600154600090600160a060020a031615806106de57506001546106dc90600160a060020a0316610e42565b155b156106ef576106ed6000610e46565b505b600154600160a060020a03166338cc48316040518163ffffffff1660e060020a028152600401602060405180830381600087803b15801561072f57600080fd5b505af1158015610743573d6000803e3d6000fd5b505050506040513d602081101561075957600080fd5b810190808051600054600160a060020a03908116911614925061080d91505057600154600160a060020a03166338cc48316040518163ffffffff1660e060020a028152600401602060405180830381600087803b1580156107b957600080fd5b505af11580156107cd573d6000803e3d6000fd5b505050506040513d60208110156107e357600080fd5b81019080805160008054600160a060020a031916600160a060020a03929092169190911790555050505b600054600160a060020a031663c281d19e6040518163ffffffff1660e060020a02815260040160206040518083038186803b15801561084b57600080fd5b505afa15801561085f573d6000803e3d6000fd5b505050506040513d602081101561087557600080fd5b81019080805193505050505b90565b6000610891826000610e50565b90505b919050565b6060806014604051818152601f19601f83011681016020016040529080156108c8576020820181803883390190505b50905060005b601481101561093f578060130360080260020a84600160a060020a03168115156108f457fe5b0460f860020a0282828151811061090757fe5b9060200101907effffffffffffffffffffffffffffffffffffffffffffffffffffffffffffff1916908160001a9053506001016108ce565b5092915050565b606081151561098a5760408051908101604052600181527f300000000000000000000000000000000000000000000000000000000000000060208201529050610894565b8160005b81156109a257600101600a8204915061098e565b606081604051818152601f19601f83011681016020016040529080156109cf576020820181803883390190505b50905060001982015b8515610a395760001981019060f860020a6030600a89060102908390815181106109fe57fe5b9060200101907effffffffffffffffffffffffffffffffffffffffffffffffffffffffffffff1916908160001a905350600a860495506109d8565b50949350505050565b600154600090600160a060020a03161580610a6f5750600154610a6d90600160a060020a0316610e42565b155b15610a8057610a7e6000610e46565b505b600154600160a060020a03166338cc48316040518163ffffffff1660e060020a028152600401602060405180830381600087803b158015610ac057600080fd5b505af1158015610ad4573d6000803e3d6000fd5b505050506040513d6020811015610aea57600080fd5b810190808051600054600160a060020a039081169116149250610b9e91505057600154600160a060020a03166338cc48316040518163ffffffff1660e060020a028152600401602060405180830381600087803b158015610b4a57600080fd5b505af1158015610b5e573d6000803e3d6000fd5b505050506040513d6020811015610b7457600080fd5b81019080805160008054600160a060020a031916600160a060020a03929092169190911790555050505b60606003604051908082528060200260200182016040528015610bd557816020015b6060815260200190600190039081610bc05790505b509050825181600081518110610be757fe5b60209081029091010152826001602002015181600181518110610c0657fe5b6020908102919091010152604083015181600281518110610c2357fe5b60209081029091010152610c38858583610f71565b9150505b9392505050565b600154600090600160a060020a03161580610c705750600154610c6e90600160a060020a0316610e42565b155b15610c8157610c7f6000610e46565b505b600154600160a060020a03166338cc48316040518163ffffffff1660e060020a028152600401602060405180830381600087803b158015610cc157600080fd5b505af1158015610cd5573d6000803e3d6000fd5b505050506040513d6020811015610ceb57600080fd5b810190808051600054600160a060020a039081169116149250610d9f91505057600154600160a060020a03166338cc48316040518163ffffffff1660e060020a028152600401602060405180830381600087803b158015610d4b57600080fd5b505af1158015610d5f573d6000803e3d6000fd5b505050506040513d6020811015610d7557600080fd5b81019080805160008054600160a060020a031916600160a060020a03929092169190911790555050505b60606003604051908082528060200260200182016040528015610dd657816020015b6060815260200190600190039081610dc15790505b509050825181600081518110610de857fe5b60209081029091010152826001602002015181600181518110610e0757fe5b6020908102919091010152604083015181600281518110610e2457fe5b60209081029091010152610e38848261133c565b9150505b92915050565b3b90565b600061089161170b565b6000828180805b8351811015610f56576030848281518110610e6e57fe5b016020015160f860020a900460f860020a0260f860020a900460ff1610158015610ec057506039848281518110610ea157fe5b016020015160f860020a900460f860020a0260f860020a900460ff1611155b15610f19578115610edf57851515610ed757610f56565b600019909501945b600a830292506030848281518110610ef357fe5b016020015160f860020a900460f860020a0260f860020a900460ff160383019250610f4e565b838181518110610f2557fe5b016020015160f860020a900460f860020a0260f860020a900460ff16602e1415610f4e57600191505b600101610e57565b506000851115610a395784600a0a8202915050949350505050565b600154600090600160a060020a03161580610f9e5750600154610f9c90600160a060020a0316610e42565b155b15610faf57610fad6000610e46565b505b600154600160a060020a03166338cc48316040518163ffffffff1660e060020a028152600401602060405180830381600087803b158015610fef57600080fd5b505af1158015611003573d6000803e3d6000fd5b505050506040513d602081101561101957600080fd5b810190808051600054600160a060020a0390811691161492506110cd91505057600154600160a060020a03166338cc48316040518163ffffffff1660e060020a028152600401602060405180830381600087803b15801561107957600080fd5b505af115801561108d573d6000803e3d6000fd5b505050506040513d60208110156110a357600080fd5b81019080805160008054600160a060020a031916600160a060020a03929092169190911790555050505b60008054600160a060020a031663524f3889856040518263ffffffff1660e060020a0281526004018080602001828103825283818151815260200191508051906020019080838360005b8381101561112f578082015183820152602001611117565b50505050905090810190601f16801561115c5780820380516001836020036101000a031916815260200191505b5092505050602060405180830381600087803b15801561117b57600080fd5b505af115801561118f573d6000803e3d6000fd5b505050506040513d60208110156111a557600080fd5b8101908080519350505050670de0b6b3a764000062030d403a02018111156111d1575060009050610c3c565b60606111dc84611a29565b600054909150600160a060020a03166383eed3d5838888856040518563ffffffff1660e060020a028152600401808481526020018060200180602001838103835285818151815260200191508051906020019080838360005b8381101561124d578082015183820152602001611235565b50505050905090810190601f16801561127a5780820380516001836020036101000a031916815260200191505b50838103825284818151815260200191508051906020019080838360005b838110156112b0578082015183820152602001611298565b50505050905090810190601f1680156112dd5780820380516001836020036101000a031916815260200191505b50955050505050506020604051808303818588803b1580156112fe57600080fd5b505af1158015611312573d6000803e3d6000fd5b50505050506040513d602081101561132957600080fd5b8101908080519998505050505050505050565b600154600090600160a060020a03161580611369575060015461136790600160a060020a0316610e42565b155b1561137a576113786000610e46565b505b600154600160a060020a03166338cc48316040518163ffffffff1660e060020a028152600401602060405180830381600087803b1580156113ba57600080fd5b505af11580156113ce573d6000803e3d6000fd5b505050506040513d60208110156113e457600080fd5b810190808051600054600160a060020a03908116911614925061149891505057600154600160a060020a03166338cc48316040518163ffffffff1660e060020a028152600401602060405180830381600087803b15801561144457600080fd5b505af1158015611458573d6000803e3d6000fd5b505050506040513d602081101561146e57600080fd5b81019080805160008054600160a060020a031916600160a060020a03929092169190911790555050505b60008054600160a060020a031663524f3889856040518263ffffffff1660e060020a0281526004018080602001828103825283818151815260200191508051906020019080838360005b838110156114fa5780820151838201526020016114e2565b50505050905090810190601f1680156115275780820380516001836020036101000a031916815260200191505b5092505050602060405180830381600087803b15801561154657600080fd5b505af115801561155a573d6000803e3d6000fd5b505050506040513d602081101561157057600080fd5b8101908080519350505050670de0b6b3a764000062030d403a020181111561159c575060009050610e3c565b60606115a784611a29565b60008054919250600160a060020a03909116906383eed3d590849088856040518563ffffffff1660e060020a028152600401808481526020018060200180602001838103835285818151815260200191508051906020019080838360005b8381101561161d578082015183820152602001611605565b50505050905090810190601f16801561164a5780820380516001836020036101000a031916815260200191505b50838103825284818151815260200191508051906020019080838360005b83811015611680578082015183820152602001611668565b50505050905090810190601f1680156116ad5780820380516001836020036101000a031916815260200191505b50955050505050506020604051808303818588803b1580156116ce57600080fd5b505af11580156116e2573d6000803e3d6000fd5b50505050506040513d60208110156116f957600080fd5b81019080805198975050505050505050565b60008061172b731d3b2638a7cc9f2cb3d298a3da7a90b67e5506ed610e42565b111561179b5760018054600160a060020a031916731d3b2638a7cc9f2cb3d298a3da7a90b67e5506ed17905561179360408051908101604052600b81527f6574685f6d61696e6e65740000000000000000000000000000000000000000006020820152611a9d565b506001610881565b60006117ba73c03a2615d5efaf5f49f60b7bb6583eaec212fdf1610e42565b11156118225760018054600160a060020a03191673c03a2615d5efaf5f49f60b7bb6583eaec212fdf117905561179360408051908101604052600c81527f6574685f726f707374656e3300000000000000000000000000000000000000006020820152611a9d565b600061184173b7a07bcf2ba2f2703b24c0691b5278999c59ac7e610e42565b11156118a95760018054600160a060020a03191673b7a07bcf2ba2f2703b24c0691b5278999c59ac7e17905561179360408051908101604052600981527f6574685f6b6f76616e00000000000000000000000000000000000000000000006020820152611a9d565b60006118c873146500cfd35b22e4a392fe0adc06de1a1368ed48610e42565b11156119305760018054600160a060020a03191673146500cfd35b22e4a392fe0adc06de1a1368ed4817905561179360408051908101604052600b81527f6574685f72696e6b6562790000000000000000000000000000000000000000006020820152611a9d565b600061194f736f485c8bf6fc43ea212e93bbf8ce046c7f1cb475610e42565b1115611981575060018054600160a060020a031916736f485c8bf6fc43ea212e93bbf8ce046c7f1cb475178155610881565b60006119a07320e12a1f859b3feae5fb2a0a32c18f5a65555bbf610e42565b11156119d2575060018054600160a060020a0319167320e12a1f859b3feae5fb2a0a32c18f5a65555bbf178155610881565b60006119f17351efaf4c8b3c9afbd5ab9f4bbc82784ab6ef8faa610e42565b1115611a23575060018054600160a060020a0319167351efaf4c8b3c9afbd5ab9f4bbc82784ab6ef8faa178155610881565b50600090565b6060611a33611ab4565b611a3b611d8e565b611a4781610400611ac0565b611a5081611aee565b60005b8351811015611a8a57611a82848281518110611a6b57fe5b90602001906020020151839063ffffffff611afc16565b600101611a53565b50611a9481611b19565b80519392505050565b6002818051611ab0929160200190611da6565b5050565b60405180590338823950565b806020810615611ad35760208106602003015b60208301819052604051928390526000835290910160405250565b611af9816004611b20565b50565b611b098260038351611b39565b6105a2828263ffffffff611c3716565b611af98160075b611ab082601f602060ff8516021763ffffffff611cd016565b60178111611b5a57611b558360ff848116602002168317611cd0565b6105a2565b60ff8111611b9357611b7b836018602060ff8616021763ffffffff611cd016565b611b8d8382600163ffffffff611d0916565b506105a2565b61ffff8111611bc757611bb5836019602060ff8616021763ffffffff611cd016565b611b8d8382600263ffffffff611d0916565b63ffffffff8111611bfd57611beb83601a602060ff8616021763ffffffff611cd016565b611b8d8382600463ffffffff611d0916565b67ffffffffffffffff81116105a257611c2583601b602060ff8616021763ffffffff611cd016565b61059c8382600863ffffffff611d0916565b611c3f611d8e565b82602001518351518351011115611c6b57611c6b83611c6385602001518551611d5d565b600202611d74565b60008060008451905085518051602081830101945086510190526020850191505b60208110611cac57815183526020928301929190910190601f1901611c8c565b60001960208290036101000a01801983511681855116179093525093949350505050565b81602001518251516001011115611cf257611cf2828360200151600202611d74565b815180516020818301018381535060010190525050565b611d11611d8e565b836020015184515183011115611d3357611d3384611c63866020015185611d5d565b60001961010083900a01845180518481830101868419825116179052909301909252509192915050565b600081831115611d6e575081610e3c565b50919050565b606082519050611d848383611ac0565b61059c8382611c37565b60408051908101604052606081526000602082015290565b828054600181600116156101000203166002900490600052602060002090601f016020900481019282601f10611de757805160ff1916838001178555611e14565b82800160010185558215611e14579182015b82811115611e14578251825591602001919060010190611df9565b50611e20929150611e24565b5090565b61088191905b80821115611e205760008155600101611e2a56fe516d5344644a775446363643564c4b44353252644e6b547a354b42666f50626b36616a33684c7272487131774763a165627a7a7230582068fdb853f969a266884b2b91f4827fd47b2cc714fbced6b0e6eb7eca0100dcee0029",
  "source": "/*\n    Oraclize based oracle contract.\n*/\n\npragma solidity >= 0.5.0;\n\nimport '../misc/oraclizeAPI.sol';\nimport '../interface/IExchange.sol';\nimport '../interface/IOracle.sol';\n\ncontract OraclizeOracle is IOracle, usingOraclize {\n    string public constant oracleComputation = \"QmSDdJwTF66CVLKD52RdNkTz5KBfoPbk6aj3hLrrHq1wGc\";\n    mapping(bytes32 => uint256) public tradeOf;\n    IExchange public dex;\n\n    constructor(IExchange _dex) public {\n        dex = _dex;\n    }\n\n    function __callback(bytes32 myid, string memory result) public {\n        if (msg.sender != oraclize_cbAddress()) revert();\n\n        uint256 id = tradeOf[myid];\n        uint256 retCode = parseInt(result);\n\n        if (retCode & 1 > 0)\n            dex.confirmTakerTransfer(id);\n\n        if (retCode & 2 > 0)\n            dex.confirmMakerTransfer(id);\n\n        if (retCode & 4 > 0) {\n            bytes32 qid = oraclize_query(300, \"computation\", [\n                oracleComputation,\n                toString(address(dex)),\n                uint2str(id)\n            ]);\n            tradeOf[qid] = id;\n        }\n    }\n\n    function checkTrade(address _dex, uint256 _id) external returns(bool success) {\n        require(_dex == address(dex));\n        bytes32 qid = oraclize_query(\"computation\", [\n            oracleComputation,\n            toString(address(dex)),\n            uint2str(_id)\n        ]);\n        tradeOf[qid] = _id;\n        success = true;\n    }\n\n    function() external payable {}\n\n    function toString(address x) internal returns (string memory) {\n        bytes memory b = new bytes(20);\n        for (uint i = 0; i < 20; i++)\n            b[i] = byte(uint8(uint(x) / (2**(8*(19 - i)))));\n        return string(b);\n    }\n}\n",
  "sourcePath": "/home/akru/devel/cdex/contracts/oracles/OraclizeOracle.sol",
  "compiler": {
    "name": "solc",
    "version": "0.5.4+commit.9549d8ff.Emscripten.clang"
  },
  "schemaVersion": "3.0.2",
  "updatedAt": "2019-02-22T19:38:49.096Z",
  "devdoc": {
    "methods": {}
  },
  "userdoc": {
    "methods": {}
  }
}