{
  "contractName": "OraclizeOracle",
  "abi": [
    {
      "constant": true,
      "inputs": [],
      "name": "dex",
      "outputs": [
        {
          "name": "",
          "type": "address"
        }
      ],
      "payable": false,
      "stateMutability": "view",
      "type": "function",
      "signature": "0x692058c2"
    },
    {
      "constant": true,
      "inputs": [
        {
          "name": "",
          "type": "bytes32"
        }
      ],
      "name": "requestOf",
      "outputs": [
        {
          "name": "tradeId",
          "type": "uint256"
        },
        {
          "name": "trader",
          "type": "address"
        }
      ],
      "payable": false,
      "stateMutability": "view",
      "type": "function",
      "signature": "0xeacb1408"
    },
    {
      "inputs": [
        {
          "name": "_dex",
          "type": "address"
        }
      ],
      "payable": false,
      "stateMutability": "nonpayable",
      "type": "constructor",
      "signature": "constructor"
    },
    {
      "payable": true,
      "stateMutability": "payable",
      "type": "fallback"
    },
    {
      "constant": false,
      "inputs": [
        {
          "name": "myid",
          "type": "bytes32"
        },
        {
          "name": "result",
          "type": "string"
        }
      ],
      "name": "__callback",
      "outputs": [],
      "payable": false,
      "stateMutability": "nonpayable",
      "type": "function",
      "signature": "0x27dc297e"
    },
    {
      "constant": false,
      "inputs": [
        {
          "name": "_myid",
          "type": "bytes32"
        },
        {
          "name": "_result",
          "type": "string"
        },
        {
          "name": "_proof",
          "type": "bytes"
        }
      ],
      "name": "__callback",
      "outputs": [],
      "payable": false,
      "stateMutability": "nonpayable",
      "type": "function",
      "signature": "0x38bbfa50"
    },
    {
      "constant": false,
      "inputs": [
        {
          "name": "_tradeId",
          "type": "uint256"
        }
      ],
      "name": "checkTrade",
      "outputs": [
        {
          "name": "success",
          "type": "bool"
        }
      ],
      "payable": false,
      "stateMutability": "nonpayable",
      "type": "function",
      "signature": "0x5905df9d"
    }
  ],
  "bytecode": "0x608060405234801561001057600080fd5b5060405160208061211d8339810180604052602081101561003057600080fd5b505160008054600160a060020a03909216600160a060020a03199092169190911790556120bb806100626000396000f3fe60806040526004361061004d5760e060020a600035046327dc297e811461004f57806338bbfa50146101085780635905df9d14610247578063692058c214610285578063eacb1408146102b6575b005b34801561005b57600080fd5b5061004d6004803603604081101561007257600080fd5b8135919081019060408101602082013564010000000081111561009457600080fd5b8201836020820111156100a657600080fd5b803590602001918460018302840111640100000000831117156100c857600080fd5b91908080601f0160208091040260200160405190810160405281815292919060208401838380828437600092019190915250929550610301945050505050565b34801561011457600080fd5b5061004d6004803603606081101561012b57600080fd5b8135919081019060408101602082013564010000000081111561014d57600080fd5b82018360208201111561015f57600080fd5b8035906020019184600183028401116401000000008311171561018157600080fd5b91908080601f016020809104026020016040519081016040528181529291906020840183838082843760009201919091525092959493602081019350359150506401000000008111156101d357600080fd5b8201836020820111156101e557600080fd5b8035906020019184600183028401116401000000008311171561020757600080fd5b91908080601f016020809104026020016040519081016040528181529291906020840183838082843760009201919091525092955061068a945050505050565b34801561025357600080fd5b506102716004803603602081101561026a57600080fd5b503561068f565b604051901515815260200160405180910390f35b34801561029157600080fd5b5061029a610775565b604051600160a060020a03909116815260200160405180910390f35b3480156102c257600080fd5b506102e0600480360360208110156102d957600080fd5b5035610784565b604051918252600160a060020a031660208201526040908101905180910390f35b6103096107a9565b600160a060020a0316331461031d57600080fd5b6000828152600660205260408120600080548254929350909182918291600160a060020a0390911690631e6c598e9060405160e060020a63ffffffff8416028152600481019190915260240160a06040518083038186803b15801561038157600080fd5b505afa158015610395573d6000803e3d6000fd5b505050506040513d60a08110156103ab57600080fd5b810190808051929190602001805192919060200180519291906020018051929190602001805150506000548a5460018c0154979a5095985092965050600160a060020a0391821694639e073ab9949350909116905060405160e060020a63ffffffff85160281526004810192909252600160a060020a0316602482015260440160206040518083038186803b15801561044357600080fd5b505afa158015610457573d6000803e3d6000fd5b505050506040513d602081101561046d57600080fd5b8101908080519250610482915087905061097c565b106105e5576001840154600160a060020a0384811691161415610536576000548454600160a060020a0390911690636ab04436908460405160e060020a63ffffffff85160281526004810192909252600160a060020a03166024820152604401602060405180830381600087803b1580156104fc57600080fd5b505af1158015610510573d6000803e3d6000fd5b505050506040513d602081101561052657600080fd5b810190808051506105e092505050565b6001840154600160a060020a03838116911614156105e0576000548454600160a060020a0390911690636ab04436908560405160e060020a63ffffffff85160281526004810192909252600160a060020a03166024820152604401602060405180830381600087803b1580156105ab57600080fd5b505af11580156105bf573d6000803e3d6000fd5b505050506040513d60208110156105d557600080fd5b810190808051505050505b610682565b6000544390600160a060020a031663537592bb6040518163ffffffff1660e060020a02815260040160206040518083038186803b15801561062557600080fd5b505afa158015610639573d6000803e3d6000fd5b505050506040513d602081101561064f57600080fd5b81019080805185019390931115925061068291505057835460018501546106829190600160a060020a031661012c61098f565b505050505050565b505050565b60008054600160a060020a031633146106a757600080fd5b600080548190600160a060020a0316631e6c598e8560405160e060020a63ffffffff8416028152600481019190915260240160a06040518083038186803b1580156106f157600080fd5b505afa158015610705573d6000803e3d6000fd5b505050506040513d60a081101561071b57600080fd5b810190808051929190602001805192919060200180519291906020018051929190602001805190602001909291905050505050509150915061075f8483600061098f565b61076b8482600061098f565b5060019392505050565b600054600160a060020a031681565b60066020528060005260406000208054600190910154909150600160a060020a031682565b600254600090600160a060020a031615806107d657506002546107d490600160a060020a0316610c94565b155b156107e7576107e56000610c98565b505b600254600160a060020a03166338cc48316040518163ffffffff1660e060020a028152600401602060405180830381600087803b15801561082757600080fd5b505af115801561083b573d6000803e3d6000fd5b505050506040513d602081101561085157600080fd5b810190808051600154600160a060020a03908116911614925061090591505057600254600160a060020a03166338cc48316040518163ffffffff1660e060020a028152600401602060405180830381600087803b1580156108b157600080fd5b505af11580156108c5573d6000803e3d6000fd5b505050506040513d60208110156108db57600080fd5b81019080805160018054600160a060020a031916600160a060020a03929092169190911790555050505b600154600160a060020a031663c281d19e6040518163ffffffff1660e060020a02815260040160206040518083038186803b15801561094357600080fd5b505afa158015610957573d6000803e3d6000fd5b505050506040513d602081101561096d57600080fd5b81019080805193505050505b90565b6000610989826000610ca2565b92915050565b600080821115610ae957610ae282604080519081016040908152600b82527f636f6d7075746174696f6e00000000000000000000000000000000000000000060208301528051908101604052806060604051908101604052602e80825261206260208301398152600054602090910190600160a060020a031663a79902d08a8a60405160e060020a63ffffffff85160281526004810192909252600160a060020a0316602482015260440160006040518083038186803b158015610a5257600080fd5b505afa158015610a66573d6000803e3d6000fd5b505050506040513d6000823e601f3d908101601f191682016040526020811015610a8f57600080fd5b810190808051640100000000811115610aa757600080fd5b82016020810184811115610aba57600080fd5b8151640100000000811182820187101715610ad457600080fd5b505090935250610dc4915050565b9050610c34565b610c31604080519081016040908152600b82527f636f6d7075746174696f6e00000000000000000000000000000000000000000060208301528051908101604052806060604051908101604052602e80825261206260208301398152600054602090910190600160a060020a031663a79902d0898960405160e060020a63ffffffff85160281526004810192909252600160a060020a0316602482015260440160006040518083038186803b158015610ba157600080fd5b505afa158015610bb5573d6000803e3d6000fd5b505050506040513d6000823e601f3d908101601f191682016040526020811015610bde57600080fd5b810190808051640100000000811115610bf657600080fd5b82016020810184811115610c0957600080fd5b8151640100000000811182820187101715610c2357600080fd5b505090935250610fa8915050565b90505b604080519081016040908152858252600160a060020a03851660208084019190915260008481526006909152208151815560208201516001919091018054600160a060020a031916600160a060020a039092169190911790555050505050565b3b90565b6000610989611188565b6000828180805b8351811015610da8576030848281518110610cc057fe5b016020015160f860020a900460f860020a0260f860020a900460ff1610158015610d1257506039848281518110610cf357fe5b016020015160f860020a900460f860020a0260f860020a900460ff1611155b15610d6b578115610d3157851515610d2957610da8565b600019909501945b600a830292506030848281518110610d4557fe5b016020015160f860020a900460f860020a0260f860020a900460ff160383019250610da0565b838181518110610d7757fe5b016020015160f860020a900460f860020a0260f860020a900460ff16602e1415610da057600191505b600101610ca9565b506000851115610dbb5784600a0a820291505b50949350505050565b600254600090600160a060020a03161580610df15750600254610def90600160a060020a0316610c94565b155b15610e0257610e006000610c98565b505b600254600160a060020a03166338cc48316040518163ffffffff1660e060020a028152600401602060405180830381600087803b158015610e4257600080fd5b505af1158015610e56573d6000803e3d6000fd5b505050506040513d6020811015610e6c57600080fd5b810190808051600154600160a060020a039081169116149250610f2091505057600254600160a060020a03166338cc48316040518163ffffffff1660e060020a028152600401602060405180830381600087803b158015610ecc57600080fd5b505af1158015610ee0573d6000803e3d6000fd5b505050506040513d6020811015610ef657600080fd5b81019080805160018054600160a060020a031916600160a060020a03929092169190911790555050505b60606002604051908082528060200260200182016040528015610f5757816020015b6060815260200190600190039081610f425790505b509050825181600081518110610f6957fe5b60209081029091010152826001602002015181600181518110610f8857fe5b60209081029091010152610f9d8585836114ac565b9150505b9392505050565b600254600090600160a060020a03161580610fd55750600254610fd390600160a060020a0316610c94565b155b15610fe657610fe46000610c98565b505b600254600160a060020a03166338cc48316040518163ffffffff1660e060020a028152600401602060405180830381600087803b15801561102657600080fd5b505af115801561103a573d6000803e3d6000fd5b505050506040513d602081101561105057600080fd5b810190808051600154600160a060020a03908116911614925061110491505057600254600160a060020a03166338cc48316040518163ffffffff1660e060020a028152600401602060405180830381600087803b1580156110b057600080fd5b505af11580156110c4573d6000803e3d6000fd5b505050506040513d60208110156110da57600080fd5b81019080805160018054600160a060020a031916600160a060020a03929092169190911790555050505b6060600260405190808252806020026020018201604052801561113b57816020015b60608152602001906001900390816111265790505b50905082518160008151811061114d57fe5b6020908102909101015282600160200201518160018151811061116c57fe5b602090810290910101526111808482611879565b949350505050565b6000806111a8731d3b2638a7cc9f2cb3d298a3da7a90b67e5506ed610c94565b11156112185760028054600160a060020a031916731d3b2638a7cc9f2cb3d298a3da7a90b67e5506ed17905561121060408051908101604052600b81527f6574685f6d61696e6e65740000000000000000000000000000000000000000006020820152611c46565b506001610979565b600061123773c03a2615d5efaf5f49f60b7bb6583eaec212fdf1610c94565b111561129f5760028054600160a060020a03191673c03a2615d5efaf5f49f60b7bb6583eaec212fdf117905561121060408051908101604052600c81527f6574685f726f707374656e3300000000000000000000000000000000000000006020820152611c46565b60006112be73b7a07bcf2ba2f2703b24c0691b5278999c59ac7e610c94565b11156113265760028054600160a060020a03191673b7a07bcf2ba2f2703b24c0691b5278999c59ac7e17905561121060408051908101604052600981527f6574685f6b6f76616e00000000000000000000000000000000000000000000006020820152611c46565b600061134573146500cfd35b22e4a392fe0adc06de1a1368ed48610c94565b11156113ad5760028054600160a060020a03191673146500cfd35b22e4a392fe0adc06de1a1368ed4817905561121060408051908101604052600b81527f6574685f72696e6b6562790000000000000000000000000000000000000000006020820152611c46565b60006113cc736f485c8bf6fc43ea212e93bbf8ce046c7f1cb475610c94565b1115611400575060028054600160a060020a031916736f485c8bf6fc43ea212e93bbf8ce046c7f1cb4751790556001610979565b600061141f7320e12a1f859b3feae5fb2a0a32c18f5a65555bbf610c94565b1115611453575060028054600160a060020a0319167320e12a1f859b3feae5fb2a0a32c18f5a65555bbf1790556001610979565b60006114727351efaf4c8b3c9afbd5ab9f4bbc82784ab6ef8faa610c94565b11156114a6575060028054600160a060020a0319167351efaf4c8b3c9afbd5ab9f4bbc82784ab6ef8faa1790556001610979565b50600090565b600254600090600160a060020a031615806114d957506002546114d790600160a060020a0316610c94565b155b156114ea576114e86000610c98565b505b600254600160a060020a03166338cc48316040518163ffffffff1660e060020a028152600401602060405180830381600087803b15801561152a57600080fd5b505af115801561153e573d6000803e3d6000fd5b505050506040513d602081101561155457600080fd5b810190808051600154600160a060020a03908116911614925061160891505057600254600160a060020a03166338cc48316040518163ffffffff1660e060020a028152600401602060405180830381600087803b1580156115b457600080fd5b505af11580156115c8573d6000803e3d6000fd5b505050506040513d60208110156115de57600080fd5b81019080805160018054600160a060020a031916600160a060020a03929092169190911790555050505b600154600090600160a060020a031663524f3889856040518263ffffffff1660e060020a0281526004018080602001828103825283818151815260200191508051906020019080838360005b8381101561166c578082015183820152602001611654565b50505050905090810190601f1680156116995780820380516001836020036101000a031916815260200191505b5092505050602060405180830381600087803b1580156116b857600080fd5b505af11580156116cc573d6000803e3d6000fd5b505050506040513d60208110156116e257600080fd5b8101908080519350505050670de0b6b3a764000062030d403a020181111561170e575060009050610fa1565b606061171984611c5d565b600154909150600160a060020a03166383eed3d5838888856040518563ffffffff1660e060020a028152600401808481526020018060200180602001838103835285818151815260200191508051906020019080838360005b8381101561178a578082015183820152602001611772565b50505050905090810190601f1680156117b75780820380516001836020036101000a031916815260200191505b50838103825284818151815260200191508051906020019080838360005b838110156117ed5780820151838201526020016117d5565b50505050905090810190601f16801561181a5780820380516001836020036101000a031916815260200191505b50955050505050506020604051808303818588803b15801561183b57600080fd5b505af115801561184f573d6000803e3d6000fd5b50505050506040513d602081101561186657600080fd5b8101908080519998505050505050505050565b600254600090600160a060020a031615806118a657506002546118a490600160a060020a0316610c94565b155b156118b7576118b56000610c98565b505b600254600160a060020a03166338cc48316040518163ffffffff1660e060020a028152600401602060405180830381600087803b1580156118f757600080fd5b505af115801561190b573d6000803e3d6000fd5b505050506040513d602081101561192157600080fd5b810190808051600154600160a060020a0390811691161492506119d591505057600254600160a060020a03166338cc48316040518163ffffffff1660e060020a028152600401602060405180830381600087803b15801561198157600080fd5b505af1158015611995573d6000803e3d6000fd5b505050506040513d60208110156119ab57600080fd5b81019080805160018054600160a060020a031916600160a060020a03929092169190911790555050505b600154600090600160a060020a031663524f3889856040518263ffffffff1660e060020a0281526004018080602001828103825283818151815260200191508051906020019080838360005b83811015611a39578082015183820152602001611a21565b50505050905090810190601f168015611a665780820380516001836020036101000a031916815260200191505b5092505050602060405180830381600087803b158015611a8557600080fd5b505af1158015611a99573d6000803e3d6000fd5b505050506040513d6020811015611aaf57600080fd5b8101908080519350505050670de0b6b3a764000062030d403a0201811115611adb575060009050610989565b6060611ae684611c5d565b600154909150600160a060020a03166383eed3d583600088856040518563ffffffff1660e060020a028152600401808481526020018060200180602001838103835285818151815260200191508051906020019080838360005b83811015611b58578082015183820152602001611b40565b50505050905090810190601f168015611b855780820380516001836020036101000a031916815260200191505b50838103825284818151815260200191508051906020019080838360005b83811015611bbb578082015183820152602001611ba3565b50505050905090810190601f168015611be85780820380516001836020036101000a031916815260200191505b50955050505050506020604051808303818588803b158015611c0957600080fd5b505af1158015611c1d573d6000803e3d6000fd5b50505050506040513d6020811015611c3457600080fd5b81019080805198975050505050505050565b6003818051611c59929160200190611fb1565b5050565b6060611c67611cd1565b611c6f61202f565b611c7b81610400611cdd565b611c8481611d0b565b60005b8351811015611cbe57611cb6848281518110611c9f57fe5b90602001906020020151839063ffffffff611d1916565b600101611c87565b50611cc881611d36565b80519392505050565b60405180590338823950565b806020810615611cf05760208106602003015b60208301819052604051928390526000835290910160405250565b611d16816004611d3d565b50565b611d268260038351611d56565b61068a828263ffffffff611e5a16565b611d168160075b611c5982601f602060ff8516021763ffffffff611ef316565b60178111611d7757611d728360ff848116602002168317611ef3565b61068a565b60ff8111611db057611d98836018602060ff8616021763ffffffff611ef316565b611daa8382600163ffffffff611f2c16565b5061068a565b61ffff8111611de457611dd2836019602060ff8616021763ffffffff611ef316565b611daa8382600263ffffffff611f2c16565b63ffffffff8111611e1a57611e0883601a602060ff8616021763ffffffff611ef316565b611daa8382600463ffffffff611f2c16565b67ffffffffffffffff811161068a57611e4283601b602060ff8616021763ffffffff611ef316565b611e548382600863ffffffff611f2c16565b50505050565b611e6261202f565b82602001518351518351011115611e8e57611e8e83611e8685602001518551611f80565b600202611f97565b60008060008451905085518051602081830101945086510190526020850191505b60208110611ecf57815183526020928301929190910190601f1901611eaf565b60001960208290036101000a01801983511681855116179093525093949350505050565b81602001518251516001011115611f1557611f15828360200151600202611f97565b815180516020818301018381535060010190525050565b611f3461202f565b836020015184515183011115611f5657611f5684611e86866020015185611f80565b60001961010083900a01845180518481830101868419825116179052909301909252509192915050565b600081831115611f91575081610989565b50919050565b606082519050611fa78383611cdd565b611e548382611e5a565b828054600181600116156101000203166002900490600052602060002090601f016020900481019282601f10611ff257805160ff191683800117855561201f565b8280016001018555821561201f579182015b8281111561201f578251825591602001919060010190612004565b5061202b929150612047565b5090565b60408051908101604052606081526000602082015290565b61097991905b8082111561202b576000815560010161204d56fe516d6437344c47384170734375595a72696252345655705a4e4e345a586157383234376d6f77794852436d744579a165627a7a723058203a0462ca443dc4749a12d01bea238f480c408dca5469ac1fd8844a9d797301710029",
  "source": "/*\n    Oraclize based oracle contract.\n*/\n\npragma solidity >= 0.5.0;\n\nimport './oraclizeAPI.sol';\nimport './DEX.sol';\nimport './AbstractOracle.sol';\n\ncontract OraclizeOracle is AbstractOracle, usingOraclize {\n    struct Request {\n        uint256 tradeId;\n        address trader;\n    }\n    mapping(bytes32 => Request) public requestOf;\n\n    constructor(AbstractDEX _dex) public {\n        dex = _dex;\n    }\n\n    function __callback(bytes32 myid, string memory result) public {\n        if (msg.sender != oraclize_cbAddress()) revert();\n        Request storage req = requestOf[myid];\n        (address maker, address taker,,uint256 open,) = dex.trades(req.tradeId);\n\n        if (parseInt(result) >= dex.valueToBuy(req.tradeId, req.trader)) {\n            if (req.trader == maker)\n                dex.confirmTransfer(req.tradeId, taker);\n            else if (req.trader == taker)\n                dex.confirmTransfer(req.tradeId, maker);\n        } else if (open + dex.tradingBlocks() > block.number) {\n            checkBalance(req.tradeId, req.trader, 300);\n        }\n    }\n\n    function checkTrade(uint256 _tradeId) external returns(bool success) {\n        require(msg.sender == address(dex));\n        (address maker, address taker,,,) = dex.trades(_tradeId);\n\n        // Request maker balance\n        checkBalance(_tradeId, maker, 0);\n\n        // Request taker balance\n        checkBalance(_tradeId, taker, 0);\n\n        success = true;\n    }\n\n    function checkBalance(uint256 _tradeId, address _trader, uint256 _wait) internal {\n        bytes32 qid;\n        if (_wait > 0) {\n            qid = oraclize_query(_wait, \"computation\", [\n                \"Qmd74LG8ApsCuYZribR4VUpZNN4ZXaW8247mowyHRCmtEy\",\n                string(dex.extraData(_tradeId, _trader))\n            ]);\n        } else {\n            qid = oraclize_query(\"computation\", [\n                \"Qmd74LG8ApsCuYZribR4VUpZNN4ZXaW8247mowyHRCmtEy\",\n                string(dex.extraData(_tradeId, _trader))\n            ]);\n        }\n        requestOf[qid] = Request(_tradeId, _trader);\n    }\n\n    function() external payable {}\n}\n",
  "sourcePath": "/home/akru/devel/cdex/contracts/OraclizeOracle.sol",
  "compiler": {
    "name": "solc",
    "version": "0.5.3+commit.10d17f24.Emscripten.clang"
  },
  "schemaVersion": "3.0.1",
  "updatedAt": "2019-02-08T07:49:09.396Z",
  "devdoc": {
    "methods": {}
  },
  "userdoc": {
    "methods": {}
  }
}