{
  "contractName": "OraclizeOracle",
  "abi": [
    {
      "constant": true,
      "inputs": [],
      "name": "dex",
      "outputs": [
        {
          "name": "",
          "type": "address"
        }
      ],
      "payable": false,
      "stateMutability": "view",
      "type": "function"
    },
    {
      "constant": true,
      "inputs": [],
      "name": "oracleComputation",
      "outputs": [
        {
          "name": "",
          "type": "string"
        }
      ],
      "payable": false,
      "stateMutability": "view",
      "type": "function"
    },
    {
      "constant": true,
      "inputs": [
        {
          "name": "",
          "type": "bytes32"
        }
      ],
      "name": "tradeOf",
      "outputs": [
        {
          "name": "",
          "type": "uint256"
        }
      ],
      "payable": false,
      "stateMutability": "view",
      "type": "function"
    },
    {
      "inputs": [
        {
          "name": "_dex",
          "type": "address"
        }
      ],
      "payable": false,
      "stateMutability": "nonpayable",
      "type": "constructor"
    },
    {
      "payable": true,
      "stateMutability": "payable",
      "type": "fallback"
    },
    {
      "anonymous": false,
      "inputs": [
        {
          "indexed": true,
          "name": "qid",
          "type": "bytes32"
        }
      ],
      "name": "OraclizeQuery",
      "type": "event"
    },
    {
      "constant": false,
      "inputs": [
        {
          "name": "myid",
          "type": "bytes32"
        },
        {
          "name": "result",
          "type": "string"
        }
      ],
      "name": "__callback",
      "outputs": [],
      "payable": false,
      "stateMutability": "nonpayable",
      "type": "function"
    },
    {
      "constant": false,
      "inputs": [
        {
          "name": "_myid",
          "type": "bytes32"
        },
        {
          "name": "_result",
          "type": "string"
        },
        {
          "name": "_proof",
          "type": "bytes"
        }
      ],
      "name": "__callback",
      "outputs": [],
      "payable": false,
      "stateMutability": "nonpayable",
      "type": "function"
    },
    {
      "constant": false,
      "inputs": [
        {
          "name": "_dex",
          "type": "address"
        },
        {
          "name": "_id",
          "type": "uint256"
        }
      ],
      "name": "checkTrade",
      "outputs": [
        {
          "name": "success",
          "type": "bool"
        }
      ],
      "payable": false,
      "stateMutability": "nonpayable",
      "type": "function"
    },
    {
      "constant": false,
      "inputs": [
        {
          "name": "x",
          "type": "address"
        }
      ],
      "name": "toString",
      "outputs": [
        {
          "name": "",
          "type": "string"
        }
      ],
      "payable": false,
      "stateMutability": "nonpayable",
      "type": "function"
    }
  ],
  "bytecode": "0x608060405234801561001057600080fd5b50604051602080611fd68339810180604052602081101561003057600080fd5b505160068054600160a060020a031916600160a060020a03909216919091179055611f76806100606000396000f3fe6080604052600436106100745760003560e060020a90048063692058c211610052578063692058c21461031857806373d146ab1461034957806381145d5c1461035e578063ef53d2c0146103ab57610074565b806327dc297e1461007657806338bbfa501461012f57806356ca623e1461026e575b005b34801561008257600080fd5b506100746004803603604081101561009957600080fd5b813591908101906040810160208201356401000000008111156100bb57600080fd5b8201836020820111156100cd57600080fd5b803590602001918460018302840111640100000000831117156100ef57600080fd5b91908080601f01602080910402602001604051908101604052818152929190602084018383808284376000920191909152509295506103e7945050505050565b34801561013b57600080fd5b506100746004803603606081101561015257600080fd5b8135919081019060408101602082013564010000000081111561017457600080fd5b82018360208201111561018657600080fd5b803590602001918460018302840111640100000000831117156101a857600080fd5b91908080601f016020809104026020016040519081016040528181529291906020840183838082843760009201919091525092959493602081019350359150506401000000008111156101fa57600080fd5b82018360208201111561020c57600080fd5b8035906020019184600183028401116401000000008311171561022e57600080fd5b91908080601f0160208091040260200160405190810160405281815292919060208401838380828437600092019190915250929550610621945050505050565b34801561027a57600080fd5b506102a16004803603602081101561029157600080fd5b5035600160a060020a0316610626565b60405160208082528190810183818151815260200191508051906020019080838360005b838110156102dd5780820151838201526020016102c5565b50505050905090810190601f16801561030a5780820380516001836020036101000a031916815260200191505b509250505060405180910390f35b34801561032457600080fd5b5061032d6106d5565b604051600160a060020a03909116815260200160405180910390f35b34801561035557600080fd5b506102a16106e4565b34801561036a57600080fd5b506103976004803603604081101561038157600080fd5b50600160a060020a0381351690602001356106ff565b604051901515815260200160405180910390f35b3480156103b757600080fd5b506103d5600480360360208110156103ce57600080fd5b50356107e0565b60405190815260200160405180910390f35b6103ef6107f4565b600160a060020a0316331461040357600080fd5b6000828152600560205260408120549050600061041f836109c7565b905060008160011611156104ab57600654600160a060020a031663b29531a88360405160e060020a63ffffffff84160281526004810191909152602401602060405180830381600087803b15801561047657600080fd5b505af115801561048a573d6000803e3d6000fd5b505050506040513d60208110156104a057600080fd5b810190808051505050505b600081600216111561053557600654600160a060020a03166318671b0d8360405160e060020a63ffffffff84160281526004810191909152602401602060405180830381600087803b15801561050057600080fd5b505af1158015610514573d6000803e3d6000fd5b505050506040513d602081101561052a57600080fd5b810190808051505050505b600081600416111561061b5760006105d8601e6040805190810160405280600b81526020017f636f6d7075746174696f6e0000000000000000000000000000000000000000008152506060604051908101604052806060604051908101604052602e808252611ef3602083013981526020016060604051908101604052602a808252611f21602083013981526020016105cd886109da565b9052620f4240610ad6565b6000818152600560205290915083906040902055807f971b0866f91e6150f522277231ed5889fe16b939e5722a33b17a48b6fa0442cb60405160405180910390a2505b50505050565b505050565b6060806014604051818152601f19601f8301168101602001604052908015610655576020820181803883390190505b50905060005b60148110156106cc578060130360080260020a84600160a060020a031681151561068157fe5b0460f860020a0282828151811061069457fe5b9060200101907effffffffffffffffffffffffffffffffffffffffffffffffffffffffffffff1916908160001a90535060010161065b565b5090505b919050565b600654600160a060020a031681565b6060604051908101604052602e808252611ef3602083013981565b6000806107956040805190810160405280600b81526020017f636f6d7075746174696f6e0000000000000000000000000000000000000000008152506060604051908101604052806060604051908101604052602e808252611ef3602083013981526020016060604051908101604052602a808252611f216020830139815260200161078a876109da565b9052620f4240610cd9565b6000818152600560205290915083906040902055807f971b0866f91e6150f522277231ed5889fe16b939e5722a33b17a48b6fa0442cb60405160405180910390a25060019392505050565b600560205280600052604060002054905081565b600154600090600160a060020a03161580610821575060015461081f90600160a060020a0316610eda565b155b15610832576108306000610ede565b505b600154600160a060020a03166338cc48316040518163ffffffff1660e060020a028152600401602060405180830381600087803b15801561087257600080fd5b505af1158015610886573d6000803e3d6000fd5b505050506040513d602081101561089c57600080fd5b810190808051600054600160a060020a03908116911614925061095091505057600154600160a060020a03166338cc48316040518163ffffffff1660e060020a028152600401602060405180830381600087803b1580156108fc57600080fd5b505af1158015610910573d6000803e3d6000fd5b505050506040513d602081101561092657600080fd5b81019080805160008054600160a060020a031916600160a060020a03929092169190911790555050505b600054600160a060020a031663c281d19e6040518163ffffffff1660e060020a02815260040160206040518083038186803b15801561098e57600080fd5b505afa1580156109a2573d6000803e3d6000fd5b505050506040513d60208110156109b857600080fd5b81019080805193505050505b90565b60006109d4826000610ee8565b92915050565b6060811515610a1e5760408051908101604052600181527f3000000000000000000000000000000000000000000000000000000000000000602082015290506106d0565b8160005b8115610a3657600101600a82049150610a22565b606081604051818152601f19601f8301168101602001604052908015610a63576020820181803883390190505b50905060001982015b8515610acd5760001981019060f860020a6030600a8906010290839081518110610a9257fe5b9060200101907effffffffffffffffffffffffffffffffffffffffffffffffffffffffffffff1916908160001a905350600a86049550610a6c565b50949350505050565b600154600090600160a060020a03161580610b035750600154610b0190600160a060020a0316610eda565b155b15610b1457610b126000610ede565b505b600154600160a060020a03166338cc48316040518163ffffffff1660e060020a028152600401602060405180830381600087803b158015610b5457600080fd5b505af1158015610b68573d6000803e3d6000fd5b505050506040513d6020811015610b7e57600080fd5b810190808051600054600160a060020a039081169116149250610c3291505057600154600160a060020a03166338cc48316040518163ffffffff1660e060020a028152600401602060405180830381600087803b158015610bde57600080fd5b505af1158015610bf2573d6000803e3d6000fd5b505050506040513d6020811015610c0857600080fd5b81019080805160008054600160a060020a031916600160a060020a03929092169190911790555050505b60606003604051908082528060200260200182016040528015610c6957816020015b6060815260200190600190039081610c545790505b509050835181600081518110610c7b57fe5b60209081029091010152836001602002015181600181518110610c9a57fe5b6020908102919091010152604084015181600281518110610cb757fe5b60209081029091010152610ccd86868386611009565b9150505b949350505050565b600154600090600160a060020a03161580610d065750600154610d0490600160a060020a0316610eda565b155b15610d1757610d156000610ede565b505b600154600160a060020a03166338cc48316040518163ffffffff1660e060020a028152600401602060405180830381600087803b158015610d5757600080fd5b505af1158015610d6b573d6000803e3d6000fd5b505050506040513d6020811015610d8157600080fd5b810190808051600054600160a060020a039081169116149250610e3591505057600154600160a060020a03166338cc48316040518163ffffffff1660e060020a028152600401602060405180830381600087803b158015610de157600080fd5b505af1158015610df5573d6000803e3d6000fd5b505050506040513d6020811015610e0b57600080fd5b81019080805160008054600160a060020a031916600160a060020a03929092169190911790555050505b60606003604051908082528060200260200182016040528015610e6c57816020015b6060815260200190600190039081610e575790505b509050835181600081518110610e7e57fe5b60209081029091010152836001602002015181600181518110610e9d57fe5b6020908102919091010152604084015181600281518110610eba57fe5b60209081029091010152610ecf8582856113e2565b9150505b9392505050565b3b90565b60006109d46117bf565b6000828180805b8351811015610fee576030848281518110610f0657fe5b016020015160f860020a900460f860020a0260f860020a900460ff1610158015610f5857506039848281518110610f3957fe5b016020015160f860020a900460f860020a0260f860020a900460ff1611155b15610fb1578115610f7757851515610f6f57610fee565b600019909501945b600a830292506030848281518110610f8b57fe5b016020015160f860020a900460f860020a0260f860020a900460ff160383019250610fe6565b838181518110610fbd57fe5b016020015160f860020a900460f860020a0260f860020a900460ff16602e1415610fe657600191505b600101610eef565b506000851115610acd5784600a0a8202915050949350505050565b600154600090600160a060020a03161580611036575060015461103490600160a060020a0316610eda565b155b15611047576110456000610ede565b505b600154600160a060020a03166338cc48316040518163ffffffff1660e060020a028152600401602060405180830381600087803b15801561108757600080fd5b505af115801561109b573d6000803e3d6000fd5b505050506040513d60208110156110b157600080fd5b810190808051600054600160a060020a03908116911614925061116591505057600154600160a060020a03166338cc48316040518163ffffffff1660e060020a028152600401602060405180830381600087803b15801561111157600080fd5b505af1158015611125573d6000803e3d6000fd5b505050506040513d602081101561113b57600080fd5b81019080805160008054600160a060020a031916600160a060020a03929092169190911790555050505b60008054600160a060020a0316632ef3accc86856040518363ffffffff1660e060020a0281526004018080602001838152602001828103825284818151815260200191508051906020019080838360005b838110156111ce5780820151838201526020016111b6565b50505050905090810190601f1680156111fb5780820380516001836020036101000a031916815260200191505b509350505050602060405180830381600087803b15801561121b57600080fd5b505af115801561122f573d6000803e3d6000fd5b505050506040513d602081101561124557600080fd5b8101908080519350505050670de0b6b3a76400003a84020181111561126e575060009050610cd1565b606061127985611add565b600054909150600160a060020a031663c55c1cb683898985896040518663ffffffff1660e060020a028152600401808581526020018060200180602001848152602001838103835286818151815260200191508051906020019080838360005b838110156112f15780820151838201526020016112d9565b50505050905090810190601f16801561131e5780820380516001836020036101000a031916815260200191505b50838103825285818151815260200191508051906020019080838360005b8381101561135457808201518382015260200161133c565b50505050905090810190601f1680156113815780820380516001836020036101000a031916815260200191505b5096505050505050506020604051808303818588803b1580156113a357600080fd5b505af11580156113b7573d6000803e3d6000fd5b50505050506040513d60208110156113ce57600080fd5b8101908080519a9950505050505050505050565b600154600090600160a060020a0316158061140f575060015461140d90600160a060020a0316610eda565b155b156114205761141e6000610ede565b505b600154600160a060020a03166338cc48316040518163ffffffff1660e060020a028152600401602060405180830381600087803b15801561146057600080fd5b505af1158015611474573d6000803e3d6000fd5b505050506040513d602081101561148a57600080fd5b810190808051600054600160a060020a03908116911614925061153e91505057600154600160a060020a03166338cc48316040518163ffffffff1660e060020a028152600401602060405180830381600087803b1580156114ea57600080fd5b505af11580156114fe573d6000803e3d6000fd5b505050506040513d602081101561151457600080fd5b81019080805160008054600160a060020a031916600160a060020a03929092169190911790555050505b60008054600160a060020a0316632ef3accc86856040518363ffffffff1660e060020a0281526004018080602001838152602001828103825284818151815260200191508051906020019080838360005b838110156115a757808201518382015260200161158f565b50505050905090810190601f1680156115d45780820380516001836020036101000a031916815260200191505b509350505050602060405180830381600087803b1580156115f457600080fd5b505af1158015611608573d6000803e3d6000fd5b505050506040513d602081101561161e57600080fd5b8101908080519350505050670de0b6b3a76400003a840201811115611647575060009050610ed3565b606061165285611add565b60008054919250600160a060020a039091169063c55c1cb69084908985896040518663ffffffff1660e060020a028152600401808581526020018060200180602001848152602001838103835286818151815260200191508051906020019080838360005b838110156116cf5780820151838201526020016116b7565b50505050905090810190601f1680156116fc5780820380516001836020036101000a031916815260200191505b50838103825285818151815260200191508051906020019080838360005b8381101561173257808201518382015260200161171a565b50505050905090810190601f16801561175f5780820380516001836020036101000a031916815260200191505b5096505050505050506020604051808303818588803b15801561178157600080fd5b505af1158015611795573d6000803e3d6000fd5b50505050506040513d60208110156117ac57600080fd5b8101908080519998505050505050505050565b6000806117df731d3b2638a7cc9f2cb3d298a3da7a90b67e5506ed610eda565b111561184f5760018054600160a060020a031916731d3b2638a7cc9f2cb3d298a3da7a90b67e5506ed17905561184760408051908101604052600b81527f6574685f6d61696e6e65740000000000000000000000000000000000000000006020820152611b51565b5060016109c4565b600061186e73c03a2615d5efaf5f49f60b7bb6583eaec212fdf1610eda565b11156118d65760018054600160a060020a03191673c03a2615d5efaf5f49f60b7bb6583eaec212fdf117905561184760408051908101604052600c81527f6574685f726f707374656e3300000000000000000000000000000000000000006020820152611b51565b60006118f573b7a07bcf2ba2f2703b24c0691b5278999c59ac7e610eda565b111561195d5760018054600160a060020a03191673b7a07bcf2ba2f2703b24c0691b5278999c59ac7e17905561184760408051908101604052600981527f6574685f6b6f76616e00000000000000000000000000000000000000000000006020820152611b51565b600061197c73146500cfd35b22e4a392fe0adc06de1a1368ed48610eda565b11156119e45760018054600160a060020a03191673146500cfd35b22e4a392fe0adc06de1a1368ed4817905561184760408051908101604052600b81527f6574685f72696e6b6562790000000000000000000000000000000000000000006020820152611b51565b6000611a03736f485c8bf6fc43ea212e93bbf8ce046c7f1cb475610eda565b1115611a35575060018054600160a060020a031916736f485c8bf6fc43ea212e93bbf8ce046c7f1cb4751781556109c4565b6000611a547320e12a1f859b3feae5fb2a0a32c18f5a65555bbf610eda565b1115611a86575060018054600160a060020a0319167320e12a1f859b3feae5fb2a0a32c18f5a65555bbf1781556109c4565b6000611aa57351efaf4c8b3c9afbd5ab9f4bbc82784ab6ef8faa610eda565b1115611ad7575060018054600160a060020a0319167351efaf4c8b3c9afbd5ab9f4bbc82784ab6ef8faa1781556109c4565b50600090565b6060611ae7611b68565b611aef611e42565b611afb81610400611b74565b611b0481611ba2565b60005b8351811015611b3e57611b36848281518110611b1f57fe5b90602001906020020151839063ffffffff611bb016565b600101611b07565b50611b4881611bcd565b80519392505050565b6002818051611b64929160200190611e5a565b5050565b60405180590338823950565b806020810615611b875760208106602003015b60208301819052604051928390526000835290910160405250565b611bad816004611bd4565b50565b611bbd8260038351611bed565b610621828263ffffffff611ceb16565b611bad8160075b611b6482601f602060ff8516021763ffffffff611d8416565b60178111611c0e57611c098360ff848116602002168317611d84565b610621565b60ff8111611c4757611c2f836018602060ff8616021763ffffffff611d8416565b611c418382600163ffffffff611dbd16565b50610621565b61ffff8111611c7b57611c69836019602060ff8616021763ffffffff611d8416565b611c418382600263ffffffff611dbd16565b63ffffffff8111611cb157611c9f83601a602060ff8616021763ffffffff611d8416565b611c418382600463ffffffff611dbd16565b67ffffffffffffffff811161062157611cd983601b602060ff8616021763ffffffff611d8416565b61061b8382600863ffffffff611dbd16565b611cf3611e42565b82602001518351518351011115611d1f57611d1f83611d1785602001518551611e11565b600202611e28565b60008060008451905085518051602081830101945086510190526020850191505b60208110611d6057815183526020928301929190910190601f1901611d40565b60001960208290036101000a01801983511681855116179093525093949350505050565b81602001518251516001011115611da657611da6828360200151600202611e28565b815180516020818301018381535060010190525050565b611dc5611e42565b836020015184515183011115611de757611de784611d17866020015185611e11565b60001961010083900a01845180518481830101868419825116179052909301909252509192915050565b600081831115611e225750816109d4565b50919050565b606082519050611e388383611b74565b61061b8382611ceb565b60408051908101604052606081526000602082015290565b828054600181600116156101000203166002900490600052602060002090601f016020900481019282601f10611e9b57805160ff1916838001178555611ec8565b82800160010185558215611ec8579182015b82811115611ec8578251825591602001919060010190611ead565b50611ed4929150611ed8565b5090565b6109c491905b80821115611ed45760008155600101611ede56fe516d58695a414b686837374b47666e336a4c66626271655552665656724b775551666f58795433697056364b6955307835333863376137623263653061353036393262373632626166633264653236333062393333386562a165627a7a723058200d9715b6319962e53f3c1e017fc13b7f7bca484a57dee84804154fb08975879c0029",
  "source": "/*\n    Oraclize based oracle contract.\n*/\n\npragma solidity >= 0.5.0;\n\nimport '../misc/oraclizeAPI.sol';\nimport '../interface/IExchange.sol';\nimport '../interface/IOracle.sol';\n\ncontract OraclizeOracle is IOracle, usingOraclize {\n    string public constant oracleComputation = \"QmXiZAKhh77KGfn3jLfbbqeURfVVrKwUQfoXyT3ipV6KiU\";\n    mapping(bytes32 => uint256) public tradeOf;\n    IExchange public dex;\n\n    event OraclizeQuery(bytes32 indexed qid);\n\n    constructor(IExchange _dex) public {\n        dex = _dex;\n    }\n\n    function __callback(bytes32 myid, string memory result) public {\n        if (msg.sender != oraclize_cbAddress()) revert();\n\n        uint256 id = tradeOf[myid];\n        uint256 retCode = parseInt(result);\n\n        if (retCode & 1 > 0)\n            dex.confirmTakerTransfer(id);\n\n        if (retCode & 2 > 0)\n            dex.confirmMakerTransfer(id);\n\n        if (retCode & 4 > 0) {\n            bytes32 qid = oraclize_query(30, \"computation\", [\n                oracleComputation,\n                //toString(address(dex)),\n                \"0x538c7a7b2ce0a50692b762bafc2de2630b9338eb\", //toString(address(dex)),\n                uint2str(id)\n            ], 1000000);\n            tradeOf[qid] = id;\n            emit OraclizeQuery(qid);\n        }\n    }\n\n    function checkTrade(address _dex, uint256 _id) external returns(bool success) {\n        //require(_dex == address(dex));\n        bytes32 qid = oraclize_query(\"computation\", [\n            oracleComputation,\n            \"0x538c7a7b2ce0a50692b762bafc2de2630b9338eb\", //toString(address(dex)),\n            uint2str(_id)\n        ], 1000000);\n        tradeOf[qid] = _id;\n        emit OraclizeQuery(qid);\n        success = true;\n    }\n\n    function() external payable {}\n\n    function toString(address x) public returns (string memory) {\n        bytes memory b = new bytes(20);\n        for (uint i = 0; i < 20; i++)\n            b[i] = byte(uint8(uint(x) / (2**(8*(19 - i)))));\n        return string(b);\n    }\n}\n",
  "sourcePath": "/home/akru/devel/cdex/contracts/oracles/OraclizeOracle.sol",
  "compiler": {
    "name": "solc",
    "version": "0.5.4+commit.9549d8ff.Emscripten.clang"
  },
  "schemaVersion": "3.0.2",
  "updatedAt": "2019-02-24T18:17:18.901Z",
  "devdoc": {
    "methods": {}
  },
  "userdoc": {
    "methods": {}
  }
}