{
  "contractName": "OraclizeOracle",
  "abi": [
    {
      "constant": true,
      "inputs": [],
      "name": "dex",
      "outputs": [
        {
          "name": "",
          "type": "address"
        }
      ],
      "payable": false,
      "stateMutability": "view",
      "type": "function"
    },
    {
      "constant": true,
      "inputs": [
        {
          "name": "",
          "type": "bytes32"
        }
      ],
      "name": "tradeOf",
      "outputs": [
        {
          "name": "",
          "type": "uint256"
        }
      ],
      "payable": false,
      "stateMutability": "view",
      "type": "function"
    },
    {
      "inputs": [
        {
          "name": "_dex",
          "type": "address"
        }
      ],
      "payable": false,
      "stateMutability": "nonpayable",
      "type": "constructor"
    },
    {
      "payable": true,
      "stateMutability": "payable",
      "type": "fallback"
    },
    {
      "constant": false,
      "inputs": [
        {
          "name": "myid",
          "type": "bytes32"
        },
        {
          "name": "result",
          "type": "string"
        }
      ],
      "name": "__callback",
      "outputs": [],
      "payable": false,
      "stateMutability": "nonpayable",
      "type": "function"
    },
    {
      "constant": false,
      "inputs": [
        {
          "name": "_myid",
          "type": "bytes32"
        },
        {
          "name": "_result",
          "type": "string"
        },
        {
          "name": "_proof",
          "type": "bytes"
        }
      ],
      "name": "__callback",
      "outputs": [],
      "payable": false,
      "stateMutability": "nonpayable",
      "type": "function"
    },
    {
      "constant": false,
      "inputs": [
        {
          "name": "_dex",
          "type": "address"
        },
        {
          "name": "_id",
          "type": "uint256"
        }
      ],
      "name": "checkTrade",
      "outputs": [
        {
          "name": "success",
          "type": "bool"
        }
      ],
      "payable": false,
      "stateMutability": "nonpayable",
      "type": "function"
    }
  ],
  "bytecode": "0x608060405234801561001057600080fd5b5060405160208061165f8339810180604052602081101561003057600080fd5b505160068054600160a060020a031916600160a060020a039092169190911790556115ff806100606000396000f3fe60806040526004361061004d5760e060020a600035046327dc297e811461004f57806338bbfa5014610108578063692058c21461024757806381145d5c14610278578063ef53d2c0146102c5575b005b34801561005b57600080fd5b5061004d6004803603604081101561007257600080fd5b8135919081019060408101602082013564010000000081111561009457600080fd5b8201836020820111156100a657600080fd5b803590602001918460018302840111640100000000831117156100c857600080fd5b91908080601f0160208091040260200160405190810160405281815292919060208401838380828437600092019190915250929550610301945050505050565b34801561011457600080fd5b5061004d6004803603606081101561012b57600080fd5b8135919081019060408101602082013564010000000081111561014d57600080fd5b82018360208201111561015f57600080fd5b8035906020019184600183028401116401000000008311171561018157600080fd5b91908080601f016020809104026020016040519081016040528181529291906020840183838082843760009201919091525092959493602081019350359150506401000000008111156101d357600080fd5b8201836020820111156101e557600080fd5b8035906020019184600183028401116401000000008311171561020757600080fd5b91908080601f016020809104026020016040519081016040528181529291906020840183838082843760009201919091525092955061049e945050505050565b34801561025357600080fd5b5061025c6104a3565b604051600160a060020a03909116815260200160405180910390f35b34801561028457600080fd5b506102b16004803603604081101561029b57600080fd5b50600160a060020a0381351690602001356104b2565b604051901515815260200160405180910390f35b3480156102d157600080fd5b506102ef600480360360208110156102e857600080fd5b50356104e3565b60405190815260200160405180910390f35b6103096104f7565b600160a060020a0316331461031d57600080fd5b600082815260056020526040812054905060008260008151811061033d57fe5b01602001517f010000000000000000000000000000000000000000000000000000000000000090819004810204905060006001821611156103f657600654600160a060020a031663b29531a88360405160e060020a63ffffffff84160281526004810191909152602401602060405180830381600087803b1580156103c157600080fd5b505af11580156103d5573d6000803e3d6000fd5b505050506040513d60208110156103eb57600080fd5b810190808051505050505b600060028216111561048057600654600160a060020a03166318671b0d8360405160e060020a63ffffffff84160281526004810191909152602401602060405180830381600087803b15801561044b57600080fd5b505af115801561045f573d6000803e3d6000fd5b505050506040513d602081101561047557600080fd5b810190808051505050505b6000600482161115610498576104988261012c6106ca565b50505050565b505050565b600654600160a060020a031681565b600654600090600160a060020a038481169116146104cf57600080fd5b6104da8260006106ca565b50600192915050565b600560205280600052604060002054905081565b600154600090600160a060020a03161580610524575060015461052290600160a060020a0316610775565b155b15610535576105336000610779565b505b600154600160a060020a03166338cc48316040518163ffffffff1660e060020a028152600401602060405180830381600087803b15801561057557600080fd5b505af1158015610589573d6000803e3d6000fd5b505050506040513d602081101561059f57600080fd5b810190808051600054600160a060020a03908116911614925061065391505057600154600160a060020a03166338cc48316040518163ffffffff1660e060020a028152600401602060405180830381600087803b1580156105ff57600080fd5b505af1158015610613573d6000803e3d6000fd5b505050506040513d602081101561062957600080fd5b81019080805160008054600160a060020a031916600160a060020a03929092169190911790555050505b600054600160a060020a031663c281d19e6040518163ffffffff1660e060020a02815260040160206040518083038186803b15801561069157600080fd5b505afa1580156106a5573d6000803e3d6000fd5b505050506040513d60208110156106bb57600080fd5b81019080805193505050505b90565b600061075c826040805190810160405280600b81526020017f636f6d7075746174696f6e0000000000000000000000000000000000000000008152506060604051908101604052806060604051908101604052602e8082526115a66020830139815260065460209091019061074790600160a060020a031661078b565b81526020016107558861078b565b90526108a3565b6000818152600560205290915083906040902055505050565b3b90565b6000610783610aa4565b90505b919050565b60608115156107cf5760408051908101604052600181527f300000000000000000000000000000000000000000000000000000000000000060208201529050610786565b8160005b81156107e757600101600a820491506107d3565b606081604051818152601f19601f8301168101602001604052908015610814576020820181803883390190505b50905060001982015b851561089a576000198101907f01000000000000000000000000000000000000000000000000000000000000006030600a890601029083908151811061085f57fe5b9060200101907effffffffffffffffffffffffffffffffffffffffffffffffffffffffffffff1916908160001a905350600a8604955061081d565b50949350505050565b600154600090600160a060020a031615806108d057506001546108ce90600160a060020a0316610775565b155b156108e1576108df6000610779565b505b600154600160a060020a03166338cc48316040518163ffffffff1660e060020a028152600401602060405180830381600087803b15801561092157600080fd5b505af1158015610935573d6000803e3d6000fd5b505050506040513d602081101561094b57600080fd5b810190808051600054600160a060020a0390811691161492506109ff91505057600154600160a060020a03166338cc48316040518163ffffffff1660e060020a028152600401602060405180830381600087803b1580156109ab57600080fd5b505af11580156109bf573d6000803e3d6000fd5b505050506040513d60208110156109d557600080fd5b81019080805160008054600160a060020a031916600160a060020a03929092169190911790555050505b60606003604051908082528060200260200182016040528015610a3657816020015b6060815260200190600190039081610a215790505b509050825181600081518110610a4857fe5b60209081029091010152826001602002015181600181518110610a6757fe5b6020908102919091010152604083015181600281518110610a8457fe5b60209081029091010152610a99858583610dc2565b9150505b9392505050565b600080610ac4731d3b2638a7cc9f2cb3d298a3da7a90b67e5506ed610775565b1115610b345760018054600160a060020a031916731d3b2638a7cc9f2cb3d298a3da7a90b67e5506ed179055610b2c60408051908101604052600b81527f6574685f6d61696e6e6574000000000000000000000000000000000000000000602082015261118d565b5060016106c7565b6000610b5373c03a2615d5efaf5f49f60b7bb6583eaec212fdf1610775565b1115610bbb5760018054600160a060020a03191673c03a2615d5efaf5f49f60b7bb6583eaec212fdf1179055610b2c60408051908101604052600c81527f6574685f726f707374656e330000000000000000000000000000000000000000602082015261118d565b6000610bda73b7a07bcf2ba2f2703b24c0691b5278999c59ac7e610775565b1115610c425760018054600160a060020a03191673b7a07bcf2ba2f2703b24c0691b5278999c59ac7e179055610b2c60408051908101604052600981527f6574685f6b6f76616e0000000000000000000000000000000000000000000000602082015261118d565b6000610c6173146500cfd35b22e4a392fe0adc06de1a1368ed48610775565b1115610cc95760018054600160a060020a03191673146500cfd35b22e4a392fe0adc06de1a1368ed48179055610b2c60408051908101604052600b81527f6574685f72696e6b656279000000000000000000000000000000000000000000602082015261118d565b6000610ce8736f485c8bf6fc43ea212e93bbf8ce046c7f1cb475610775565b1115610d1a575060018054600160a060020a031916736f485c8bf6fc43ea212e93bbf8ce046c7f1cb4751781556106c7565b6000610d397320e12a1f859b3feae5fb2a0a32c18f5a65555bbf610775565b1115610d6b575060018054600160a060020a0319167320e12a1f859b3feae5fb2a0a32c18f5a65555bbf1781556106c7565b6000610d8a7351efaf4c8b3c9afbd5ab9f4bbc82784ab6ef8faa610775565b1115610dbc575060018054600160a060020a0319167351efaf4c8b3c9afbd5ab9f4bbc82784ab6ef8faa1781556106c7565b50600090565b600154600090600160a060020a03161580610def5750600154610ded90600160a060020a0316610775565b155b15610e0057610dfe6000610779565b505b600154600160a060020a03166338cc48316040518163ffffffff1660e060020a028152600401602060405180830381600087803b158015610e4057600080fd5b505af1158015610e54573d6000803e3d6000fd5b505050506040513d6020811015610e6a57600080fd5b810190808051600054600160a060020a039081169116149250610f1e91505057600154600160a060020a03166338cc48316040518163ffffffff1660e060020a028152600401602060405180830381600087803b158015610eca57600080fd5b505af1158015610ede573d6000803e3d6000fd5b505050506040513d6020811015610ef457600080fd5b81019080805160008054600160a060020a031916600160a060020a03929092169190911790555050505b60008054600160a060020a031663524f3889856040518263ffffffff1660e060020a0281526004018080602001828103825283818151815260200191508051906020019080838360005b83811015610f80578082015183820152602001610f68565b50505050905090810190601f168015610fad5780820380516001836020036101000a031916815260200191505b5092505050602060405180830381600087803b158015610fcc57600080fd5b505af1158015610fe0573d6000803e3d6000fd5b505050506040513d6020811015610ff657600080fd5b8101908080519350505050670de0b6b3a764000062030d403a0201811115611022575060009050610a9d565b606061102d846111a4565b600054909150600160a060020a03166383eed3d5838888856040518563ffffffff1660e060020a028152600401808481526020018060200180602001838103835285818151815260200191508051906020019080838360005b8381101561109e578082015183820152602001611086565b50505050905090810190601f1680156110cb5780820380516001836020036101000a031916815260200191505b50838103825284818151815260200191508051906020019080838360005b838110156111015780820151838201526020016110e9565b50505050905090810190601f16801561112e5780820380516001836020036101000a031916815260200191505b50955050505050506020604051808303818588803b15801561114f57600080fd5b505af1158015611163573d6000803e3d6000fd5b50505050506040513d602081101561117a57600080fd5b8101908080519998505050505050505050565b60028180516111a09291602001906114f5565b5050565b60606111ae611218565b6111b6611573565b6111c281610400611224565b6111cb81611252565b60005b8351811015611205576111fd8482815181106111e657fe5b90602001906020020151839063ffffffff61126016565b6001016111ce565b5061120f8161127d565b80519392505050565b60405180590338823950565b8060208106156112375760208106602003015b60208301819052604051928390526000835290910160405250565b61125d816004611284565b50565b61126d826003835161129d565b61049e828263ffffffff61139b16565b61125d8160075b6111a082601f602060ff8516021763ffffffff61143716565b601781116112be576112b98360ff848116602002168317611437565b61049e565b60ff81116112f7576112df836018602060ff8616021763ffffffff61143716565b6112f18382600163ffffffff61147016565b5061049e565b61ffff811161132b57611319836019602060ff8616021763ffffffff61143716565b6112f18382600263ffffffff61147016565b63ffffffff81116113615761134f83601a602060ff8616021763ffffffff61143716565b6112f18382600463ffffffff61147016565b67ffffffffffffffff811161049e5761138983601b602060ff8616021763ffffffff61143716565b6104988382600863ffffffff61147016565b6113a3611573565b826020015183515183510111156113cf576113cf836113c7856020015185516114c4565b6002026114db565b60008060008451905085518051602081830101945086510190526020850191505b6020811061141057815183526020928301929190910190601f19016113f0565b60001960208290036101000a01801983511681855116179093525084925050505b92915050565b81602001518251516001011115611459576114598283602001516002026114db565b815180516020818301018381535060010190525050565b611478611573565b83602001518451518301111561149a5761149a846113c78660200151856114c4565b60001961010083900a01845180518481830101868419825116179052909301909252509192915050565b6000818311156114d5575081611431565b50919050565b6060825190506114eb8383611224565b610498838261139b565b828054600181600116156101000203166002900490600052602060002090601f016020900481019282601f1061153657805160ff1916838001178555611563565b82800160010185558215611563579182015b82811115611563578251825591602001919060010190611548565b5061156f92915061158b565b5090565b60408051908101604052606081526000602082015290565b6106c791905b8082111561156f576000815560010161159156fe516d5556614d35317370375044394c3346364462735270767351466e31543573756863723773633951587068545aa165627a7a72305820a94011eeafcac43d39016119118a876d853b528d26ed10afa747629aa68ef4340029",
  "source": "/*\n    Oraclize based oracle contract.\n*/\n\npragma solidity >= 0.5.0;\n\nimport '../misc/oraclizeAPI.sol';\nimport '../interface/IExchange.sol';\nimport '../interface/IOracle.sol';\n\ncontract OraclizeOracle is IOracle, usingOraclize {\n    mapping(bytes32 => uint256) public tradeOf;\n    IExchange public dex;\n\n    constructor(IExchange _dex) public {\n        dex = _dex;\n    }\n\n    function __callback(bytes32 myid, string memory result) public {\n        if (msg.sender != oraclize_cbAddress()) revert();\n\n        uint256 id = tradeOf[myid];\n        uint8 retCode = uint8(bytes(result)[0]);\n\n        if (retCode & 1 > 0)\n            dex.confirmTakerTransfer(id);\n        if (retCode & 2 > 0)\n            dex.confirmMakerTransfer(id);\n        if (retCode & 4 > 0)\n            _checkTrade(id, 300);\n    }\n\n    function checkTrade(address _dex, uint256 _id) external returns(bool success) {\n        require(_dex == address(dex));\n        _checkTrade(_id, 0);\n        success = true;\n    }\n\n    function() external payable {}\n\n    function _checkTrade(uint256 _id, uint256 _wait) internal {\n        bytes32 qid = oraclize_query(_wait, \"computation\", [\n            \"QmUVaM51sp7PD9L3F6DbsRpvsQFn1T5suhcr7sc9QXphTZ\",\n            uint2str(uint(address(dex))),\n            uint2str(_id)\n        ]);\n        tradeOf[qid] = _id;\n    }\n}\n",
  "sourcePath": "/home/akru/devel/cdex/contracts/oracles/OraclizeOracle.sol",
  "compiler": {
    "name": "solc",
    "version": "0.5.4+commit.9549d8ff.Emscripten.clang"
  },
  "schemaVersion": "3.0.2",
  "updatedAt": "2019-02-21T18:41:12.839Z",
  "devdoc": {
    "methods": {}
  },
  "userdoc": {
    "methods": {}
  }
}