{
  "contractName": "OraclizeOracle",
  "abi": [
    {
      "constant": true,
      "inputs": [],
      "name": "dex",
      "outputs": [
        {
          "name": "",
          "type": "address"
        }
      ],
      "payable": false,
      "stateMutability": "view",
      "type": "function",
      "signature": "0x692058c2"
    },
    {
      "constant": true,
      "inputs": [
        {
          "name": "",
          "type": "bytes32"
        }
      ],
      "name": "requestOf",
      "outputs": [
        {
          "name": "tradeId",
          "type": "uint256"
        },
        {
          "name": "trader",
          "type": "address"
        }
      ],
      "payable": false,
      "stateMutability": "view",
      "type": "function",
      "signature": "0xeacb1408"
    },
    {
      "inputs": [
        {
          "name": "_dex",
          "type": "address"
        }
      ],
      "payable": false,
      "stateMutability": "nonpayable",
      "type": "constructor",
      "signature": "constructor"
    },
    {
      "payable": true,
      "stateMutability": "payable",
      "type": "fallback"
    },
    {
      "constant": false,
      "inputs": [
        {
          "name": "myid",
          "type": "bytes32"
        },
        {
          "name": "result",
          "type": "string"
        }
      ],
      "name": "__callback",
      "outputs": [],
      "payable": false,
      "stateMutability": "nonpayable",
      "type": "function",
      "signature": "0x27dc297e"
    },
    {
      "constant": false,
      "inputs": [
        {
          "name": "_myid",
          "type": "bytes32"
        },
        {
          "name": "_result",
          "type": "string"
        },
        {
          "name": "_proof",
          "type": "bytes"
        }
      ],
      "name": "__callback",
      "outputs": [],
      "payable": false,
      "stateMutability": "nonpayable",
      "type": "function",
      "signature": "0x38bbfa50"
    },
    {
      "constant": false,
      "inputs": [
        {
          "name": "_tradeId",
          "type": "uint256"
        }
      ],
      "name": "checkTrade",
      "outputs": [
        {
          "name": "success",
          "type": "bool"
        }
      ],
      "payable": false,
      "stateMutability": "nonpayable",
      "type": "function",
      "signature": "0x5905df9d"
    }
  ],
  "bytecode": "0x608060405234801561001057600080fd5b5060405160208061211c8339810180604052602081101561003057600080fd5b505160008054600160a060020a03909216600160a060020a03199092169190911790556120ba806100626000396000f3fe60806040526004361061004d5760e060020a600035046327dc297e811461004f57806338bbfa50146101085780635905df9d14610247578063692058c214610285578063eacb1408146102b6575b005b34801561005b57600080fd5b5061004d6004803603604081101561007257600080fd5b8135919081019060408101602082013564010000000081111561009457600080fd5b8201836020820111156100a657600080fd5b803590602001918460018302840111640100000000831117156100c857600080fd5b91908080601f0160208091040260200160405190810160405281815292919060208401838380828437600092019190915250929550610301945050505050565b34801561011457600080fd5b5061004d6004803603606081101561012b57600080fd5b8135919081019060408101602082013564010000000081111561014d57600080fd5b82018360208201111561015f57600080fd5b8035906020019184600183028401116401000000008311171561018157600080fd5b91908080601f016020809104026020016040519081016040528181529291906020840183838082843760009201919091525092959493602081019350359150506401000000008111156101d357600080fd5b8201836020820111156101e557600080fd5b8035906020019184600183028401116401000000008311171561020757600080fd5b91908080601f0160208091040260200160405190810160405281815292919060208401838380828437600092019190915250929550610689945050505050565b34801561025357600080fd5b506102716004803603602081101561026a57600080fd5b503561068e565b604051901515815260200160405180910390f35b34801561029157600080fd5b5061029a610774565b604051600160a060020a03909116815260200160405180910390f35b3480156102c257600080fd5b506102e0600480360360208110156102d957600080fd5b5035610783565b604051918252600160a060020a031660208201526040908101905180910390f35b6103096107a8565b600160a060020a0316331461031d57600080fd5b6000828152600660205260408120600080548254929350909182918291600160a060020a0390911690631e6c598e9060405160e060020a63ffffffff8416028152600481019190915260240160a06040518083038186803b15801561038157600080fd5b505afa158015610395573d6000803e3d6000fd5b505050506040513d60a08110156103ab57600080fd5b810190808051929190602001805192919060200180519291906020018051929190602001805150506000548a5460018c0154979a5095985092965050600160a060020a0391821694639e073ab9949350909116905060405160e060020a63ffffffff85160281526004810192909252600160a060020a0316602482015260440160206040518083038186803b15801561044357600080fd5b505afa158015610457573d6000803e3d6000fd5b505050506040513d602081101561046d57600080fd5b8101908080519250610482915087905061097b565b106105e5576001840154600160a060020a0384811691161415610536576000548454600160a060020a0390911690636ab04436908460405160e060020a63ffffffff85160281526004810192909252600160a060020a03166024820152604401602060405180830381600087803b1580156104fc57600080fd5b505af1158015610510573d6000803e3d6000fd5b505050506040513d602081101561052657600080fd5b810190808051506105e092505050565b6001840154600160a060020a03838116911614156105e0576000548454600160a060020a0390911690636ab04436908560405160e060020a63ffffffff85160281526004810192909252600160a060020a03166024820152604401602060405180830381600087803b1580156105ab57600080fd5b505af11580156105bf573d6000803e3d6000fd5b505050506040513d60208110156105d557600080fd5b810190808051505050505b610681565b6000544390600160a060020a031663537592bb6040518163ffffffff1660e060020a02815260040160206040518083038186803b15801561062557600080fd5b505afa158015610639573d6000803e3d6000fd5b505050506040513d602081101561064f57600080fd5b81019080805185019390931115925061068191505057835460018501546106819190600160a060020a0316603c61098e565b505050505050565b505050565b60008054600160a060020a031633146106a657600080fd5b600080548190600160a060020a0316631e6c598e8560405160e060020a63ffffffff8416028152600481019190915260240160a06040518083038186803b1580156106f057600080fd5b505afa158015610704573d6000803e3d6000fd5b505050506040513d60a081101561071a57600080fd5b810190808051929190602001805192919060200180519291906020018051929190602001805190602001909291905050505050509150915061075e8483600061098e565b61076a8482600061098e565b5060019392505050565b600054600160a060020a031681565b60066020528060005260406000208054600190910154909150600160a060020a031682565b600254600090600160a060020a031615806107d557506002546107d390600160a060020a0316610c93565b155b156107e6576107e46000610c97565b505b600254600160a060020a03166338cc48316040518163ffffffff1660e060020a028152600401602060405180830381600087803b15801561082657600080fd5b505af115801561083a573d6000803e3d6000fd5b505050506040513d602081101561085057600080fd5b810190808051600154600160a060020a03908116911614925061090491505057600254600160a060020a03166338cc48316040518163ffffffff1660e060020a028152600401602060405180830381600087803b1580156108b057600080fd5b505af11580156108c4573d6000803e3d6000fd5b505050506040513d60208110156108da57600080fd5b81019080805160018054600160a060020a031916600160a060020a03929092169190911790555050505b600154600160a060020a031663c281d19e6040518163ffffffff1660e060020a02815260040160206040518083038186803b15801561094257600080fd5b505afa158015610956573d6000803e3d6000fd5b505050506040513d602081101561096c57600080fd5b81019080805193505050505b90565b6000610988826000610ca1565b92915050565b600080821115610ae857610ae182604080519081016040908152600b82527f636f6d7075746174696f6e00000000000000000000000000000000000000000060208301528051908101604052806060604051908101604052602e80825261206160208301398152600054602090910190600160a060020a031663a79902d08a8a60405160e060020a63ffffffff85160281526004810192909252600160a060020a0316602482015260440160006040518083038186803b158015610a5157600080fd5b505afa158015610a65573d6000803e3d6000fd5b505050506040513d6000823e601f3d908101601f191682016040526020811015610a8e57600080fd5b810190808051640100000000811115610aa657600080fd5b82016020810184811115610ab957600080fd5b8151640100000000811182820187101715610ad357600080fd5b505090935250610dc3915050565b9050610c33565b610c30604080519081016040908152600b82527f636f6d7075746174696f6e00000000000000000000000000000000000000000060208301528051908101604052806060604051908101604052602e80825261206160208301398152600054602090910190600160a060020a031663a79902d0898960405160e060020a63ffffffff85160281526004810192909252600160a060020a0316602482015260440160006040518083038186803b158015610ba057600080fd5b505afa158015610bb4573d6000803e3d6000fd5b505050506040513d6000823e601f3d908101601f191682016040526020811015610bdd57600080fd5b810190808051640100000000811115610bf557600080fd5b82016020810184811115610c0857600080fd5b8151640100000000811182820187101715610c2257600080fd5b505090935250610fa7915050565b90505b604080519081016040908152858252600160a060020a03851660208084019190915260008481526006909152208151815560208201516001919091018054600160a060020a031916600160a060020a039092169190911790555050505050565b3b90565b6000610988611187565b6000828180805b8351811015610da7576030848281518110610cbf57fe5b016020015160f860020a900460f860020a0260f860020a900460ff1610158015610d1157506039848281518110610cf257fe5b016020015160f860020a900460f860020a0260f860020a900460ff1611155b15610d6a578115610d3057851515610d2857610da7565b600019909501945b600a830292506030848281518110610d4457fe5b016020015160f860020a900460f860020a0260f860020a900460ff160383019250610d9f565b838181518110610d7657fe5b016020015160f860020a900460f860020a0260f860020a900460ff16602e1415610d9f57600191505b600101610ca8565b506000851115610dba5784600a0a820291505b50949350505050565b600254600090600160a060020a03161580610df05750600254610dee90600160a060020a0316610c93565b155b15610e0157610dff6000610c97565b505b600254600160a060020a03166338cc48316040518163ffffffff1660e060020a028152600401602060405180830381600087803b158015610e4157600080fd5b505af1158015610e55573d6000803e3d6000fd5b505050506040513d6020811015610e6b57600080fd5b810190808051600154600160a060020a039081169116149250610f1f91505057600254600160a060020a03166338cc48316040518163ffffffff1660e060020a028152600401602060405180830381600087803b158015610ecb57600080fd5b505af1158015610edf573d6000803e3d6000fd5b505050506040513d6020811015610ef557600080fd5b81019080805160018054600160a060020a031916600160a060020a03929092169190911790555050505b60606002604051908082528060200260200182016040528015610f5657816020015b6060815260200190600190039081610f415790505b509050825181600081518110610f6857fe5b60209081029091010152826001602002015181600181518110610f8757fe5b60209081029091010152610f9c8585836114ab565b9150505b9392505050565b600254600090600160a060020a03161580610fd45750600254610fd290600160a060020a0316610c93565b155b15610fe557610fe36000610c97565b505b600254600160a060020a03166338cc48316040518163ffffffff1660e060020a028152600401602060405180830381600087803b15801561102557600080fd5b505af1158015611039573d6000803e3d6000fd5b505050506040513d602081101561104f57600080fd5b810190808051600154600160a060020a03908116911614925061110391505057600254600160a060020a03166338cc48316040518163ffffffff1660e060020a028152600401602060405180830381600087803b1580156110af57600080fd5b505af11580156110c3573d6000803e3d6000fd5b505050506040513d60208110156110d957600080fd5b81019080805160018054600160a060020a031916600160a060020a03929092169190911790555050505b6060600260405190808252806020026020018201604052801561113a57816020015b60608152602001906001900390816111255790505b50905082518160008151811061114c57fe5b6020908102909101015282600160200201518160018151811061116b57fe5b6020908102909101015261117f8482611878565b949350505050565b6000806111a7731d3b2638a7cc9f2cb3d298a3da7a90b67e5506ed610c93565b11156112175760028054600160a060020a031916731d3b2638a7cc9f2cb3d298a3da7a90b67e5506ed17905561120f60408051908101604052600b81527f6574685f6d61696e6e65740000000000000000000000000000000000000000006020820152611c45565b506001610978565b600061123673c03a2615d5efaf5f49f60b7bb6583eaec212fdf1610c93565b111561129e5760028054600160a060020a03191673c03a2615d5efaf5f49f60b7bb6583eaec212fdf117905561120f60408051908101604052600c81527f6574685f726f707374656e3300000000000000000000000000000000000000006020820152611c45565b60006112bd73b7a07bcf2ba2f2703b24c0691b5278999c59ac7e610c93565b11156113255760028054600160a060020a03191673b7a07bcf2ba2f2703b24c0691b5278999c59ac7e17905561120f60408051908101604052600981527f6574685f6b6f76616e00000000000000000000000000000000000000000000006020820152611c45565b600061134473146500cfd35b22e4a392fe0adc06de1a1368ed48610c93565b11156113ac5760028054600160a060020a03191673146500cfd35b22e4a392fe0adc06de1a1368ed4817905561120f60408051908101604052600b81527f6574685f72696e6b6562790000000000000000000000000000000000000000006020820152611c45565b60006113cb736f485c8bf6fc43ea212e93bbf8ce046c7f1cb475610c93565b11156113ff575060028054600160a060020a031916736f485c8bf6fc43ea212e93bbf8ce046c7f1cb4751790556001610978565b600061141e7320e12a1f859b3feae5fb2a0a32c18f5a65555bbf610c93565b1115611452575060028054600160a060020a0319167320e12a1f859b3feae5fb2a0a32c18f5a65555bbf1790556001610978565b60006114717351efaf4c8b3c9afbd5ab9f4bbc82784ab6ef8faa610c93565b11156114a5575060028054600160a060020a0319167351efaf4c8b3c9afbd5ab9f4bbc82784ab6ef8faa1790556001610978565b50600090565b600254600090600160a060020a031615806114d857506002546114d690600160a060020a0316610c93565b155b156114e9576114e76000610c97565b505b600254600160a060020a03166338cc48316040518163ffffffff1660e060020a028152600401602060405180830381600087803b15801561152957600080fd5b505af115801561153d573d6000803e3d6000fd5b505050506040513d602081101561155357600080fd5b810190808051600154600160a060020a03908116911614925061160791505057600254600160a060020a03166338cc48316040518163ffffffff1660e060020a028152600401602060405180830381600087803b1580156115b357600080fd5b505af11580156115c7573d6000803e3d6000fd5b505050506040513d60208110156115dd57600080fd5b81019080805160018054600160a060020a031916600160a060020a03929092169190911790555050505b600154600090600160a060020a031663524f3889856040518263ffffffff1660e060020a0281526004018080602001828103825283818151815260200191508051906020019080838360005b8381101561166b578082015183820152602001611653565b50505050905090810190601f1680156116985780820380516001836020036101000a031916815260200191505b5092505050602060405180830381600087803b1580156116b757600080fd5b505af11580156116cb573d6000803e3d6000fd5b505050506040513d60208110156116e157600080fd5b8101908080519350505050670de0b6b3a764000062030d403a020181111561170d575060009050610fa0565b606061171884611c5c565b600154909150600160a060020a03166383eed3d5838888856040518563ffffffff1660e060020a028152600401808481526020018060200180602001838103835285818151815260200191508051906020019080838360005b83811015611789578082015183820152602001611771565b50505050905090810190601f1680156117b65780820380516001836020036101000a031916815260200191505b50838103825284818151815260200191508051906020019080838360005b838110156117ec5780820151838201526020016117d4565b50505050905090810190601f1680156118195780820380516001836020036101000a031916815260200191505b50955050505050506020604051808303818588803b15801561183a57600080fd5b505af115801561184e573d6000803e3d6000fd5b50505050506040513d602081101561186557600080fd5b8101908080519998505050505050505050565b600254600090600160a060020a031615806118a557506002546118a390600160a060020a0316610c93565b155b156118b6576118b46000610c97565b505b600254600160a060020a03166338cc48316040518163ffffffff1660e060020a028152600401602060405180830381600087803b1580156118f657600080fd5b505af115801561190a573d6000803e3d6000fd5b505050506040513d602081101561192057600080fd5b810190808051600154600160a060020a0390811691161492506119d491505057600254600160a060020a03166338cc48316040518163ffffffff1660e060020a028152600401602060405180830381600087803b15801561198057600080fd5b505af1158015611994573d6000803e3d6000fd5b505050506040513d60208110156119aa57600080fd5b81019080805160018054600160a060020a031916600160a060020a03929092169190911790555050505b600154600090600160a060020a031663524f3889856040518263ffffffff1660e060020a0281526004018080602001828103825283818151815260200191508051906020019080838360005b83811015611a38578082015183820152602001611a20565b50505050905090810190601f168015611a655780820380516001836020036101000a031916815260200191505b5092505050602060405180830381600087803b158015611a8457600080fd5b505af1158015611a98573d6000803e3d6000fd5b505050506040513d6020811015611aae57600080fd5b8101908080519350505050670de0b6b3a764000062030d403a0201811115611ada575060009050610988565b6060611ae584611c5c565b600154909150600160a060020a03166383eed3d583600088856040518563ffffffff1660e060020a028152600401808481526020018060200180602001838103835285818151815260200191508051906020019080838360005b83811015611b57578082015183820152602001611b3f565b50505050905090810190601f168015611b845780820380516001836020036101000a031916815260200191505b50838103825284818151815260200191508051906020019080838360005b83811015611bba578082015183820152602001611ba2565b50505050905090810190601f168015611be75780820380516001836020036101000a031916815260200191505b50955050505050506020604051808303818588803b158015611c0857600080fd5b505af1158015611c1c573d6000803e3d6000fd5b50505050506040513d6020811015611c3357600080fd5b81019080805198975050505050505050565b6003818051611c58929160200190611fb0565b5050565b6060611c66611cd0565b611c6e61202e565b611c7a81610400611cdc565b611c8381611d0a565b60005b8351811015611cbd57611cb5848281518110611c9e57fe5b90602001906020020151839063ffffffff611d1816565b600101611c86565b50611cc781611d35565b80519392505050565b60405180590338823950565b806020810615611cef5760208106602003015b60208301819052604051928390526000835290910160405250565b611d15816004611d3c565b50565b611d258260038351611d55565b610689828263ffffffff611e5916565b611d158160075b611c5882601f602060ff8516021763ffffffff611ef216565b60178111611d7657611d718360ff848116602002168317611ef2565b610689565b60ff8111611daf57611d97836018602060ff8616021763ffffffff611ef216565b611da98382600163ffffffff611f2b16565b50610689565b61ffff8111611de357611dd1836019602060ff8616021763ffffffff611ef216565b611da98382600263ffffffff611f2b16565b63ffffffff8111611e1957611e0783601a602060ff8616021763ffffffff611ef216565b611da98382600463ffffffff611f2b16565b67ffffffffffffffff811161068957611e4183601b602060ff8616021763ffffffff611ef216565b611e538382600863ffffffff611f2b16565b50505050565b611e6161202e565b82602001518351518351011115611e8d57611e8d83611e8585602001518551611f7f565b600202611f96565b60008060008451905085518051602081830101945086510190526020850191505b60208110611ece57815183526020928301929190910190601f1901611eae565b60001960208290036101000a01801983511681855116179093525093949350505050565b81602001518251516001011115611f1457611f14828360200151600202611f96565b815180516020818301018381535060010190525050565b611f3361202e565b836020015184515183011115611f5557611f5584611e85866020015185611f7f565b60001961010083900a01845180518481830101868419825116179052909301909252509192915050565b600081831115611f90575081610988565b50919050565b606082519050611fa68383611cdc565b611e538382611e59565b828054600181600116156101000203166002900490600052602060002090601f016020900481019282601f10611ff157805160ff191683800117855561201e565b8280016001018555821561201e579182015b8281111561201e578251825591602001919060010190612003565b5061202a929150612046565b5090565b60408051908101604052606081526000602082015290565b61097891905b8082111561202a576000815560010161204c56fe516d64536f4e74715647326f443262537162517131506533645a4344516a554453773639326f3663787a3266396fa165627a7a723058203c90f7a7bd81a18cc35f0162e5b580fc2eaca6d3d46d3ef86ed26fa45e533e850029",
  "source": "/*\n    Oraclize based oracle contract.\n*/\n\npragma solidity >= 0.5.0;\n\nimport './oraclizeAPI.sol';\nimport './DEX.sol';\nimport './AbstractOracle.sol';\n\ncontract OraclizeOracle is AbstractOracle, usingOraclize {\n    struct Request {\n        uint256 tradeId;\n        address trader;\n    }\n    mapping(bytes32 => Request) public requestOf;\n\n    constructor(AbstractDEX _dex) public {\n        dex = _dex;\n    }\n\n    function __callback(bytes32 myid, string memory result) public {\n        if (msg.sender != oraclize_cbAddress()) revert();\n        Request storage req = requestOf[myid];\n        (address maker, address taker,,uint256 open,) = dex.trades(req.tradeId);\n\n        if (parseInt(result) >= dex.valueToBuy(req.tradeId, req.trader)) {\n            if (req.trader == maker)\n                dex.confirmTransfer(req.tradeId, taker);\n            else if (req.trader == taker)\n                dex.confirmTransfer(req.tradeId, maker);\n        } else if (open + dex.tradingBlocks() > block.number) {\n            checkBalance(req.tradeId, req.trader, 60);\n        }\n    }\n\n    function checkTrade(uint256 _tradeId) external returns(bool success) {\n        require(msg.sender == address(dex));\n        (address maker, address taker,,,) = dex.trades(_tradeId);\n\n        // Request maker balance\n        checkBalance(_tradeId, maker, 0);\n\n        // Request taker balance\n        checkBalance(_tradeId, taker, 0);\n\n        success = true;\n    }\n\n    function checkBalance(uint256 _tradeId, address _trader, uint256 _wait) internal {\n        bytes32 qid;\n        if (_wait > 0) {\n            qid = oraclize_query(_wait, \"computation\", [\n                \"QmdSoNtqVG2oD2bSqbQq1Pe3dZCDQjUDSw692o6cxz2f9o\",\n                string(dex.extraData(_tradeId, _trader))\n            ]);\n        } else {\n            qid = oraclize_query(\"computation\", [\n                \"QmdSoNtqVG2oD2bSqbQq1Pe3dZCDQjUDSw692o6cxz2f9o\",\n                string(dex.extraData(_tradeId, _trader))\n            ]);\n        }\n        requestOf[qid] = Request(_tradeId, _trader);\n    }\n\n    function() external payable {}\n}\n",
  "sourcePath": "/home/akru/devel/cdex/contracts/OraclizeOracle.sol",
  "compiler": {
    "name": "solc",
    "version": "0.5.3+commit.10d17f24.Emscripten.clang"
  },
  "schemaVersion": "3.0.1",
  "updatedAt": "2019-02-03T22:59:57.327Z",
  "devdoc": {
    "methods": {}
  },
  "userdoc": {
    "methods": {}
  }
}