{
  "contractName": "OwnedOracle",
  "abi": [
    {
      "constant": true,
      "inputs": [],
      "name": "dex",
      "outputs": [
        {
          "name": "",
          "type": "address"
        }
      ],
      "payable": false,
      "stateMutability": "view",
      "type": "function"
    },
    {
      "constant": true,
      "inputs": [],
      "name": "owner",
      "outputs": [
        {
          "name": "",
          "type": "address"
        }
      ],
      "payable": false,
      "stateMutability": "view",
      "type": "function"
    },
    {
      "inputs": [
        {
          "name": "_dex",
          "type": "address"
        },
        {
          "name": "_onwer",
          "type": "address"
        }
      ],
      "payable": false,
      "stateMutability": "nonpayable",
      "type": "constructor"
    },
    {
      "anonymous": false,
      "inputs": [
        {
          "indexed": true,
          "name": "id",
          "type": "uint256"
        }
      ],
      "name": "CheckTrade",
      "type": "event"
    },
    {
      "constant": false,
      "inputs": [
        {
          "name": "_makers",
          "type": "uint256[]"
        },
        {
          "name": "_takers",
          "type": "uint256[]"
        }
      ],
      "name": "confirmTransfer",
      "outputs": [
        {
          "name": "",
          "type": "bool"
        }
      ],
      "payable": false,
      "stateMutability": "nonpayable",
      "type": "function"
    },
    {
      "constant": false,
      "inputs": [
        {
          "name": "_dex",
          "type": "address"
        },
        {
          "name": "_id",
          "type": "uint256"
        }
      ],
      "name": "checkTrade",
      "outputs": [
        {
          "name": "success",
          "type": "bool"
        }
      ],
      "payable": false,
      "stateMutability": "nonpayable",
      "type": "function"
    }
  ],
  "bytecode": "0x608060405234801561001057600080fd5b506040516103973803806103978339818101604052604081101561003357600080fd5b508051602090910151600080546001600160a01b039384166001600160a01b0319918216179091556001805493909216921691909117905561031d8061007a6000396000f3fe608060405234801561001057600080fd5b506004361061004c5760003560e01c8063692058c21461005157806381145d5c146100755780638da5cb5b146100b5578063c40e06db146100bd575b600080fd5b61005961017f565b604080516001600160a01b039092168252519081900360200190f35b6100a16004803603604081101561008b57600080fd5b506001600160a01b03813516906020013561018e565b604080519115158252519081900360200190f35b6100596101dd565b6100a1600480360360408110156100d357600080fd5b8101906020810181356401000000008111156100ee57600080fd5b82018360208201111561010057600080fd5b8035906020019184602083028401116401000000008311171561012257600080fd5b91939092909160208101903564010000000081111561014057600080fd5b82018360208201111561015257600080fd5b8035906020019184602083028401116401000000008311171561017457600080fd5b5090925090506101ec565b6000546001600160a01b031681565b600080546001600160a01b038481169116146101a957600080fd5b60405182907f8e613cdc4b6f1c7aef914fe20df6bc18028bdc4e2b5a05c9d73844226fd84cbc90600090a250600192915050565b6001546001600160a01b031681565b6001546000906001600160a01b0316331461020657600080fd5b6000546040805163c40e06db60e01b815260048101918252604481018790526001600160a01b039092169163c40e06db9188918891889188919081906024810190606401876020880280828437600083820152601f01601f19169091018481038352858152602090810191508690860280828437600081840152601f19601f8201169050808301925050509650505050505050602060405180830381600087803b1580156102b357600080fd5b505af11580156102c7573d6000803e3d6000fd5b505050506040513d60208110156102dd57600080fd5b50519594505050505056fea265627a7a72305820ee4463b4b39de2779e6bdd936f4c28824cad26685f7816bce1ec1ebe9fdeec6664736f6c634300050a0032",
  "source": "/*\n    EOA based oracle contract.\n*/\n\npragma solidity >= 0.5.0;\n\nimport '../interface/IExchange.sol';\nimport '../interface/IOracle.sol';\n\ncontract OwnedOracle is IOracle {\n    IExchange public dex;\n    address public owner;\n\n    event CheckTrade(uint256 indexed id);\n\n    constructor(IExchange _dex, address _onwer) public {\n        dex = _dex;\n        owner = _onwer;\n    }\n\n    function confirmTransfer(\n        uint256[] calldata _makers,\n        uint256[] calldata _takers\n    ) external returns (bool) {\n        require(msg.sender == owner);\n        return dex.confirmTransfer(_makers, _takers);\n    }\n\n    function checkTrade(address _dex, uint256 _id) external returns(bool success) {\n        require(_dex == address(dex));\n        emit CheckTrade(_id);\n        success = true;\n    }\n}\n",
  "sourcePath": "/home/akru/devel/enon-dex/contracts/oracles/OwnedOracle.sol",
  "compiler": {
    "name": "solc",
    "version": "0.5.10+commit.5a6ea5b1.Emscripten.clang"
  },
  "schemaVersion": "3.0.11",
  "updatedAt": "2019-07-15T13:21:53.226Z",
  "devdoc": {
    "methods": {}
  },
  "userdoc": {
    "methods": {}
  }
}