{
  "contractName": "OwnedOracle",
  "abi": [
    {
      "constant": true,
      "inputs": [],
      "name": "tradeId",
      "outputs": [
        {
          "name": "",
          "type": "uint256"
        }
      ],
      "payable": false,
      "stateMutability": "view",
      "type": "function"
    },
    {
      "constant": true,
      "inputs": [],
      "name": "dex",
      "outputs": [
        {
          "name": "",
          "type": "address"
        }
      ],
      "payable": false,
      "stateMutability": "view",
      "type": "function"
    },
    {
      "constant": true,
      "inputs": [],
      "name": "owner",
      "outputs": [
        {
          "name": "",
          "type": "address"
        }
      ],
      "payable": false,
      "stateMutability": "view",
      "type": "function"
    },
    {
      "inputs": [
        {
          "name": "_dex",
          "type": "address"
        },
        {
          "name": "_onwer",
          "type": "address"
        }
      ],
      "payable": false,
      "stateMutability": "nonpayable",
      "type": "constructor"
    },
    {
      "constant": false,
      "inputs": [
        {
          "name": "_trader",
          "type": "address"
        }
      ],
      "name": "confirmTransfer",
      "outputs": [
        {
          "name": "",
          "type": "bool"
        }
      ],
      "payable": false,
      "stateMutability": "nonpayable",
      "type": "function"
    },
    {
      "constant": false,
      "inputs": [
        {
          "name": "_tradeId",
          "type": "uint256"
        }
      ],
      "name": "checkTrade",
      "outputs": [
        {
          "name": "success",
          "type": "bool"
        }
      ],
      "payable": false,
      "stateMutability": "nonpayable",
      "type": "function"
    }
  ],
  "bytecode": "0x608060405234801561001057600080fd5b506040516040806102f18339810180604052604081101561003057600080fd5b50805160209091015160008054600160a060020a03938416600160a060020a0319918216179091556001805493909216921691909117905561027a806100776000396000f3fe608060405234801561001057600080fd5b5060043610610073577c0100000000000000000000000000000000000000000000000000000000600035046302c5115b81146100785780635905df9d14610092578063692058c2146100c35780638da5cb5b146100f4578063bfad3ea8146100fc575b600080fd5b61008061012f565b60408051918252519081900360200190f35b6100af600480360360208110156100a857600080fd5b5035610135565b604080519115158252519081900360200190f35b6100cb61013d565b6040805173ffffffffffffffffffffffffffffffffffffffff9092168252519081900360200190f35b6100cb610159565b6100af6004803603602081101561011257600080fd5b503573ffffffffffffffffffffffffffffffffffffffff16610175565b60025481565b600255600190565b60005473ffffffffffffffffffffffffffffffffffffffff1681565b60015473ffffffffffffffffffffffffffffffffffffffff1681565b60015460009073ffffffffffffffffffffffffffffffffffffffff16331461019c57600080fd5b60008054600254604080517f6ab04436000000000000000000000000000000000000000000000000000000008152600481019290925273ffffffffffffffffffffffffffffffffffffffff86811660248401529051921692636ab04436926044808401936020939083900390910190829087803b15801561021c57600080fd5b505af1158015610230573d6000803e3d6000fd5b505050506040513d602081101561024657600080fd5b50519291505056fea165627a7a723058201a1f46051232f6911c96ca95b4f1a0bc076f87bbd120f71a1adf8d17546867ad0029",
  "source": "/*\n    EOA based oracle contract.\n*/\n\npragma solidity >= 0.5.0;\n\nimport './AbstractDEX.sol';\nimport './AbstractOracle.sol';\n\ncontract OwnedOracle is AbstractOracle {\n    address public owner;\n    uint256 public tradeId;\n\n    constructor(AbstractDEX _dex, address _onwer) public {\n        dex = _dex;\n        owner = _onwer;\n    }\n\n    function confirmTransfer(address _trader) public returns (bool) {\n        require(msg.sender == owner);\n        return dex.confirmTransfer(tradeId, _trader);\n    }\n\n    function checkTrade(uint256 _tradeId) external returns(bool success) {\n        tradeId = _tradeId;\n        success = true;\n    }\n}\n",
  "sourcePath": "/home/akru/devel/cdex/contracts/OwnedOracle.sol",
  "compiler": {
    "name": "solc",
    "version": "0.5.3+commit.10d17f24.Emscripten.clang"
  },
  "schemaVersion": "3.0.1",
  "updatedAt": "2019-02-11T22:40:09.615Z",
  "devdoc": {
    "methods": {}
  },
  "userdoc": {
    "methods": {}
  }
}