{
  "contractName": "OwnedOracle",
  "abi": [
    {
      "constant": true,
      "inputs": [],
      "name": "dex",
      "outputs": [
        {
          "name": "",
          "type": "address"
        }
      ],
      "payable": false,
      "stateMutability": "view",
      "type": "function"
    },
    {
      "constant": true,
      "inputs": [],
      "name": "owner",
      "outputs": [
        {
          "name": "",
          "type": "address"
        }
      ],
      "payable": false,
      "stateMutability": "view",
      "type": "function"
    },
    {
      "inputs": [
        {
          "name": "_dex",
          "type": "address"
        },
        {
          "name": "_onwer",
          "type": "address"
        }
      ],
      "payable": false,
      "stateMutability": "nonpayable",
      "type": "constructor"
    },
    {
      "anonymous": false,
      "inputs": [
        {
          "indexed": true,
          "name": "id",
          "type": "uint256"
        }
      ],
      "name": "CheckTrade",
      "type": "event"
    },
    {
      "constant": false,
      "inputs": [
        {
          "name": "_id",
          "type": "uint256"
        }
      ],
      "name": "confirmMakerTransfer",
      "outputs": [
        {
          "name": "",
          "type": "bool"
        }
      ],
      "payable": false,
      "stateMutability": "nonpayable",
      "type": "function"
    },
    {
      "constant": false,
      "inputs": [
        {
          "name": "_id",
          "type": "uint256"
        }
      ],
      "name": "confirmTakerTransfer",
      "outputs": [
        {
          "name": "",
          "type": "bool"
        }
      ],
      "payable": false,
      "stateMutability": "nonpayable",
      "type": "function"
    },
    {
      "constant": false,
      "inputs": [
        {
          "name": "_dex",
          "type": "address"
        },
        {
          "name": "_id",
          "type": "uint256"
        }
      ],
      "name": "checkTrade",
      "outputs": [
        {
          "name": "success",
          "type": "bool"
        }
      ],
      "payable": false,
      "stateMutability": "nonpayable",
      "type": "function"
    }
  ],
  "bytecode": "0x608060405234801561001057600080fd5b506040516040806103648339810180604052604081101561003057600080fd5b50805160209091015160008054600160a060020a03938416600160a060020a031991821617909155600180549390921692169190911790556102ed806100776000396000f3fe608060405234801561001057600080fd5b5060043610610073577c0100000000000000000000000000000000000000000000000000000000600035046318671b0d8114610078578063692058c2146100a957806381145d5c146100cd5780638da5cb5b146100f9578063b29531a814610101575b600080fd5b6100956004803603602081101561008e57600080fd5b503561011e565b604080519115158252519081900360200190f35b6100b16101d2565b60408051600160a060020a039092168252519081900360200190f35b610095600480360360408110156100e357600080fd5b50600160a060020a0381351690602001356101e1565b6100b1610230565b6100956004803603602081101561011757600080fd5b503561023f565b600154600090600160a060020a0316331461013857600080fd5b60008054604080517f18671b0d000000000000000000000000000000000000000000000000000000008152600481018690529051600160a060020a03909216926318671b0d926024808401936020939083900390910190829087803b1580156101a057600080fd5b505af11580156101b4573d6000803e3d6000fd5b505050506040513d60208110156101ca57600080fd5b505192915050565b600054600160a060020a031681565b60008054600160a060020a038481169116146101fc57600080fd5b60405182907f8e613cdc4b6f1c7aef914fe20df6bc18028bdc4e2b5a05c9d73844226fd84cbc90600090a250600192915050565b600154600160a060020a031681565b600154600090600160a060020a0316331461025957600080fd5b60008054604080517fb29531a8000000000000000000000000000000000000000000000000000000008152600481018690529051600160a060020a039092169263b29531a8926024808401936020939083900390910190829087803b1580156101a057600080fdfea165627a7a72305820d1dd67ab118feed29fcfc74c9208189616dc9f7b879d5ce835b9ba50f75ad4820029",
  "source": "/*\n    EOA based oracle contract.\n*/\n\npragma solidity >= 0.5.0;\n\nimport '../interface/IExchange.sol';\nimport '../interface/IOracle.sol';\n\ncontract OwnedOracle is IOracle {\n    IExchange public dex;\n    address public owner;\n\n    event CheckTrade(uint256 indexed id);\n\n    constructor(IExchange _dex, address _onwer) public {\n        dex = _dex;\n        owner = _onwer;\n    }\n\n    function confirmMakerTransfer(uint256 _id) public returns (bool) {\n        require(msg.sender == owner);\n        return dex.confirmMakerTransfer(_id);\n    }\n\n    function confirmTakerTransfer(uint256 _id) public returns (bool) {\n        require(msg.sender == owner);\n        return dex.confirmTakerTransfer(_id);\n    }\n\n    function checkTrade(address _dex, uint256 _id) external returns(bool success) {\n        require(_dex == address(dex));\n        emit CheckTrade(_id);\n        success = true;\n    }\n}\n",
  "sourcePath": "/home/akru/enon-dex/contracts/oracles/OwnedOracle.sol",
  "compiler": {
    "name": "solc",
    "version": "0.5.4+commit.9549d8ff.Emscripten.clang"
  },
  "schemaVersion": "3.0.6",
  "updatedAt": "2019-05-24T14:10:55.136Z",
  "devdoc": {
    "methods": {}
  },
  "userdoc": {
    "methods": {}
  }
}