{
  "contractName": "SingletonHash",
  "abi": [
    {
      "constant": true,
      "inputs": [
        {
          "name": "",
          "type": "bytes32"
        }
      ],
      "name": "isHashConsumed",
      "outputs": [
        {
          "name": "",
          "type": "bool"
        }
      ],
      "payable": false,
      "stateMutability": "view",
      "type": "function"
    },
    {
      "anonymous": false,
      "inputs": [
        {
          "indexed": true,
          "name": "hash",
          "type": "bytes32"
        }
      ],
      "name": "HashConsumed",
      "type": "event"
    }
  ],
  "bytecode": "0x608060405234801561001057600080fd5b5060b88061001f6000396000f3fe6080604052348015600f57600080fd5b50600436106044577c01000000000000000000000000000000000000000000000000000000006000350463fa3260de81146049575b600080fd5b606360048036036020811015605d57600080fd5b50356077565b604080519115158252519081900360200190f35b60006020819052908152604090205460ff168156fea165627a7a72305820bf3f7334252e5dcca6affd44fcc1400e797bda527a82c6d09cb04837f40d7fe00029",
  "source": "/**\n * @title Hash consumtion accounting.\n */\n\npragma solidity >= 0.5.0;\n\ncontract SingletonHash {\n    event HashConsumed(bytes32 indexed hash);\n\n    /**\n     * @dev Used hash accounting\n     */\n    mapping(bytes32 => bool) public isHashConsumed;\n\n    /**\n     * @dev Parameter can be used only once\n     * @param _hash Single usage hash\n     */\n    function singleton(bytes32 _hash) internal returns (bytes32) {\n        require(!isHashConsumed[_hash]);\n        isHashConsumed[_hash] = true;\n        emit HashConsumed(_hash);\n        return _hash;\n    }\n}\n",
  "sourcePath": "/home/akru/devel/cdex/contracts/misc/SingletonHash.sol",
  "compiler": {
    "name": "solc",
    "version": "0.5.4+commit.9549d8ff.Emscripten.clang"
  },
  "schemaVersion": "3.0.2",
  "updatedAt": "2019-02-18T15:18:35.653Z",
  "devdoc": {
    "methods": {}
  },
  "userdoc": {
    "methods": {}
  }
}