{
  "contractName": "SingletonHash",
  "abi": [
    {
      "constant": true,
      "inputs": [
        {
          "name": "",
          "type": "bytes32"
        }
      ],
      "name": "isHashConsumed",
      "outputs": [
        {
          "name": "",
          "type": "bool"
        }
      ],
      "payable": false,
      "stateMutability": "view",
      "type": "function"
    },
    {
      "anonymous": false,
      "inputs": [
        {
          "indexed": true,
          "name": "hash",
          "type": "bytes32"
        }
      ],
      "name": "HashConsumed",
      "type": "event"
    }
  ],
  "bytecode": "0x6080604052348015600f57600080fd5b5060a58061001e6000396000f3fe6080604052348015600f57600080fd5b506004361060285760003560e01c8063fa3260de14602d575b600080fd5b604760048036036020811015604157600080fd5b5035605b565b604080519115158252519081900360200190f35b60006020819052908152604090205460ff168156fea265627a7a723058203850cf403e939d357257be12cae78a569e0bd52ce851288d1c280fc342a2db2b64736f6c634300050a0032",
  "source": "/**\n * @title Hash consumtion accounting.\n */\n\npragma solidity >= 0.5.0;\n\ncontract SingletonHash {\n    event HashConsumed(bytes32 indexed hash);\n\n    /**\n     * @dev Used hash accounting\n     */\n    mapping(bytes32 => bool) public isHashConsumed;\n\n    /**\n     * @dev Parameter can be used only once\n     * @param _hash Single usage hash\n     */\n    function singleton(bytes32 _hash) internal returns (bytes32) {\n        require(!isHashConsumed[_hash]);\n        isHashConsumed[_hash] = true;\n        emit HashConsumed(_hash);\n        return _hash;\n    }\n}\n",
  "sourcePath": "/home/akru/devel/enon-dex/contracts/misc/SingletonHash.sol",
  "compiler": {
    "name": "solc",
    "version": "0.5.10+commit.5a6ea5b1.Emscripten.clang"
  },
  "schemaVersion": "3.0.11",
  "updatedAt": "2019-07-15T13:12:23.107Z",
  "devdoc": {
    "methods": {}
  },
  "userdoc": {
    "methods": {}
  }
}